{
  "contractName": "LicenseInventory",
  "abi": [
    {
      "constant": true,
      "inputs": [],
      "name": "saleController",
      "outputs": [
        {
          "name": "",
          "type": "address"
        }
      ],
      "payable": false,
      "stateMutability": "view",
      "type": "function"
    },
    {
      "constant": false,
      "inputs": [],
      "name": "renounceOwnership",
      "outputs": [],
      "payable": false,
      "stateMutability": "nonpayable",
      "type": "function"
    },
    {
      "constant": true,
      "inputs": [
        {
          "name": "",
          "type": "uint256"
        }
      ],
      "name": "products",
      "outputs": [
        {
          "name": "id",
          "type": "uint256"
        },
        {
          "name": "price",
          "type": "uint256"
        },
        {
          "name": "available",
          "type": "uint256"
        },
        {
          "name": "supply",
          "type": "uint256"
        },
        {
          "name": "sold",
          "type": "uint256"
        },
        {
          "name": "interval",
          "type": "uint256"
        },
        {
          "name": "renewable",
          "type": "bool"
        }
      ],
      "payable": false,
      "stateMutability": "view",
      "type": "function"
    },
    {
      "constant": true,
      "inputs": [],
      "name": "owner",
      "outputs": [
        {
          "name": "",
          "type": "address"
        }
      ],
      "payable": false,
      "stateMutability": "view",
      "type": "function"
    },
    {
      "constant": true,
      "inputs": [],
      "name": "isOwner",
      "outputs": [
        {
          "name": "",
          "type": "bool"
        }
      ],
      "payable": false,
      "stateMutability": "view",
      "type": "function"
    },
    {
      "constant": true,
      "inputs": [
        {
          "name": "",
          "type": "uint256"
        }
      ],
      "name": "allProductIds",
      "outputs": [
        {
          "name": "",
          "type": "uint256"
        }
      ],
      "payable": false,
      "stateMutability": "view",
      "type": "function"
    },
    {
      "constant": false,
      "inputs": [
        {
          "name": "newOwner",
          "type": "address"
        }
      ],
      "name": "transferOwnership",
      "outputs": [],
      "payable": false,
      "stateMutability": "nonpayable",
      "type": "function"
    },
    {
      "anonymous": false,
      "inputs": [
        {
          "indexed": false,
          "name": "id",
          "type": "uint256"
        },
        {
          "indexed": false,
          "name": "price",
          "type": "uint256"
        },
        {
          "indexed": false,
          "name": "available",
          "type": "uint256"
        },
        {
          "indexed": false,
          "name": "supply",
          "type": "uint256"
        },
        {
          "indexed": false,
          "name": "interval",
          "type": "uint256"
        },
        {
          "indexed": false,
          "name": "renewable",
          "type": "bool"
        }
      ],
      "name": "ProductCreated",
      "type": "event"
    },
    {
      "anonymous": false,
      "inputs": [
        {
          "indexed": false,
          "name": "productId",
          "type": "uint256"
        },
        {
          "indexed": false,
          "name": "available",
          "type": "uint256"
        }
      ],
      "name": "ProductInventoryAdjusted",
      "type": "event"
    },
    {
      "anonymous": false,
      "inputs": [
        {
          "indexed": false,
          "name": "productId",
          "type": "uint256"
        },
        {
          "indexed": false,
          "name": "price",
          "type": "uint256"
        }
      ],
      "name": "ProductPriceChanged",
      "type": "event"
    },
    {
      "anonymous": false,
      "inputs": [
        {
          "indexed": false,
          "name": "productId",
          "type": "uint256"
        },
        {
          "indexed": false,
          "name": "renewable",
          "type": "bool"
        }
      ],
      "name": "ProductRenewableChanged",
      "type": "event"
    },
    {
      "anonymous": false,
      "inputs": [
        {
          "indexed": true,
          "name": "previousOwner",
          "type": "address"
        },
        {
          "indexed": true,
          "name": "newOwner",
          "type": "address"
        }
      ],
      "name": "OwnershipTransferred",
      "type": "event"
    },
    {
      "constant": false,
      "inputs": [
        {
          "name": "_saleController",
          "type": "address"
        }
      ],
      "name": "setSaleController",
      "outputs": [],
      "payable": false,
      "stateMutability": "nonpayable",
      "type": "function"
    },
    {
      "constant": false,
      "inputs": [
        {
          "name": "_productId",
          "type": "uint256"
        }
      ],
      "name": "purchaseOneUnitInStock",
      "outputs": [],
      "payable": false,
      "stateMutability": "nonpayable",
      "type": "function"
    },
    {
      "constant": true,
      "inputs": [
        {
          "name": "_productId",
          "type": "uint256"
        }
      ],
      "name": "requireRenewableProduct",
      "outputs": [],
      "payable": false,
      "stateMutability": "view",
      "type": "function"
    },
    {
      "constant": false,
      "inputs": [
        {
          "name": "_productId",
          "type": "uint256"
        },
        {
          "name": "_initialPrice",
          "type": "uint256"
        },
        {
          "name": "_initialInventoryQuantity",
          "type": "uint256"
        },
        {
          "name": "_supply",
          "type": "uint256"
        },
        {
          "name": "_interval",
          "type": "uint256"
        }
      ],
      "name": "createProduct",
      "outputs": [],
      "payable": false,
      "stateMutability": "nonpayable",
      "type": "function"
    },
    {
      "constant": false,
      "inputs": [
        {
          "name": "_productId",
          "type": "uint256"
        },
        {
          "name": "_inventoryAdjustment",
          "type": "uint256"
        }
      ],
      "name": "incrementInventory",
      "outputs": [],
      "payable": false,
      "stateMutability": "nonpayable",
      "type": "function"
    },
    {
      "constant": false,
      "inputs": [
        {
          "name": "_productId",
          "type": "uint256"
        },
        {
          "name": "_inventoryAdjustment",
          "type": "uint256"
        }
      ],
      "name": "decrementInventory",
      "outputs": [],
      "payable": false,
      "stateMutability": "nonpayable",
      "type": "function"
    },
    {
      "constant": false,
      "inputs": [
        {
          "name": "_productId",
          "type": "uint256"
        }
      ],
      "name": "clearInventory",
      "outputs": [],
      "payable": false,
      "stateMutability": "nonpayable",
      "type": "function"
    },
    {
      "constant": false,
      "inputs": [
        {
          "name": "_productId",
          "type": "uint256"
        },
        {
          "name": "_price",
          "type": "uint256"
        }
      ],
      "name": "setPrice",
      "outputs": [],
      "payable": false,
      "stateMutability": "nonpayable",
      "type": "function"
    },
    {
      "constant": false,
      "inputs": [
        {
          "name": "_productId",
          "type": "uint256"
        },
        {
          "name": "_newRenewable",
          "type": "bool"
        }
      ],
      "name": "setRenewable",
      "outputs": [],
      "payable": false,
      "stateMutability": "nonpayable",
      "type": "function"
    },
    {
      "constant": true,
      "inputs": [
        {
          "name": "_productId",
          "type": "uint256"
        }
      ],
      "name": "priceOf",
      "outputs": [
        {
          "name": "",
          "type": "uint256"
        }
      ],
      "payable": false,
      "stateMutability": "view",
      "type": "function"
    },
    {
      "constant": true,
      "inputs": [
        {
          "name": "_productId",
          "type": "uint256"
        }
      ],
      "name": "availableInventoryOf",
      "outputs": [
        {
          "name": "",
          "type": "uint256"
        }
      ],
      "payable": false,
      "stateMutability": "view",
      "type": "function"
    },
    {
      "constant": true,
      "inputs": [
        {
          "name": "_productId",
          "type": "uint256"
        }
      ],
      "name": "totalSupplyOf",
      "outputs": [
        {
          "name": "",
          "type": "uint256"
        }
      ],
      "payable": false,
      "stateMutability": "view",
      "type": "function"
    },
    {
      "constant": true,
      "inputs": [
        {
          "name": "_productId",
          "type": "uint256"
        }
      ],
      "name": "totalSold",
      "outputs": [
        {
          "name": "",
          "type": "uint256"
        }
      ],
      "payable": false,
      "stateMutability": "view",
      "type": "function"
    },
    {
      "constant": true,
      "inputs": [
        {
          "name": "_productId",
          "type": "uint256"
        }
      ],
      "name": "intervalOf",
      "outputs": [
        {
          "name": "",
          "type": "uint256"
        }
      ],
      "payable": false,
      "stateMutability": "view",
      "type": "function"
    },
    {
      "constant": true,
      "inputs": [
        {
          "name": "_productId",
          "type": "uint256"
        }
      ],
      "name": "renewableOf",
      "outputs": [
        {
          "name": "",
          "type": "bool"
        }
      ],
      "payable": false,
      "stateMutability": "view",
      "type": "function"
    },
    {
      "constant": true,
      "inputs": [
        {
          "name": "_productId",
          "type": "uint256"
        }
      ],
      "name": "productInfo",
      "outputs": [
        {
          "name": "price",
          "type": "uint256"
        },
        {
          "name": "inventory",
          "type": "uint256"
        },
        {
          "name": "totalSupply",
          "type": "uint256"
        },
        {
          "name": "interval",
          "type": "uint256"
        },
        {
          "name": "renewable",
          "type": "bool"
        }
      ],
      "payable": false,
      "stateMutability": "view",
      "type": "function"
    },
    {
      "constant": true,
      "inputs": [],
      "name": "getAllProductIds",
      "outputs": [
        {
          "name": "",
          "type": "uint256[]"
        }
      ],
      "payable": false,
      "stateMutability": "view",
      "type": "function"
    },
    {
      "constant": true,
      "inputs": [
        {
          "name": "_productId",
          "type": "uint256"
        },
        {
          "name": "_numCycles",
          "type": "uint256"
        }
      ],
      "name": "costForProductCycles",
      "outputs": [
        {
          "name": "",
          "type": "uint256"
        }
      ],
      "payable": false,
      "stateMutability": "view",
      "type": "function"
    },
    {
      "constant": true,
      "inputs": [
        {
          "name": "_productId",
          "type": "uint256"
        }
      ],
      "name": "isSubscriptionProduct",
      "outputs": [
        {
          "name": "",
          "type": "bool"
        }
      ],
      "payable": false,
      "stateMutability": "view",
      "type": "function"
    }
  ],
  "bytecode": "0x6080604052336000806101000a81548173ffffffffffffffffffffffffffffffffffffffff021916908373ffffffffffffffffffffffffffffffffffffffff1602179055506000809054906101000a900473ffffffffffffffffffffffffffffffffffffffff1673ffffffffffffffffffffffffffffffffffffffff16600073ffffffffffffffffffffffffffffffffffffffff167f8be0079c531659141344cd1fd0a4f28419497f9722a3daafe3b4186f6b6457e060405160405180910390a3612547806100cf6000396000f3fe608060405260043610610154576000357c0100000000000000000000000000000000000000000000000000000000900463ffffffff1680630528bb57146101595780631e1ddacc146101ac57806327597f0a146102035780633f4f30751461025c5780634dac7d6f146102a3578063533f6730146102f6578063663c01af14610331578063715018a61461039d57806375b0d9cd146103b45780637acc0b2014610403578063892412f0146104805780638da5cb5b146104cf5780638f32d59b1461052657806392363a421461055557806393b2467e146105b85780639e53c55414610607578063b369af7114610642578063b9186d7d14610691578063bb119f6e146106e0578063dde1bbcf1461074f578063e58639931461079e578063e89b5d4b146107d9578063eda003ce1461081e578063f2fde38b1461086f578063f7d97577146108c0578063fe3d07e414610905575b600080fd5b34801561016557600080fd5b506101926004803603602081101561017c57600080fd5b810190808035906020019092919050505061094a565b604051808215151515815260200191505060405180910390f35b3480156101b857600080fd5b506101c161095e565b604051808273ffffffffffffffffffffffffffffffffffffffff1673ffffffffffffffffffffffffffffffffffffffff16815260200191505060405180910390f35b34801561020f57600080fd5b506102466004803603604081101561022657600080fd5b810190808035906020019092919080359060200190929190505050610984565b6040518082815260200191505060405180910390f35b34801561026857600080fd5b506102a16004803603604081101561027f57600080fd5b81019080803590602001909291908035151590602001909291905050506109a9565b005b3480156102af57600080fd5b506102dc600480360360208110156102c657600080fd5b8101908080359060200190929190505050610a76565b604051808215151515815260200191505060405180910390f35b34801561030257600080fd5b5061032f6004803603602081101561031957600080fd5b8101908080359060200190929190505050610aa3565b005b34801561033d57600080fd5b50610346610b72565b6040518080602001828103825283818151815260200191508051906020019060200280838360005b8381101561038957808201518184015260208101905061036e565b505050509050019250505060405180910390f35b3480156103a957600080fd5b506103b2610bca565b005b3480156103c057600080fd5b506103ed600480360360208110156103d757600080fd5b8101908080359060200190929190505050610d05565b6040518082815260200191505060405180910390f35b34801561040f57600080fd5b5061043c6004803603602081101561042657600080fd5b8101908080359060200190929190505050610d25565b604051808881526020018781526020018681526020018581526020018481526020018381526020018215151515815260200197505050505050505060405180910390f35b34801561048c57600080fd5b506104b9600480360360208110156104a357600080fd5b8101908080359060200190929190505050610d74565b6040518082815260200191505060405180910390f35b3480156104db57600080fd5b506104e4610d94565b604051808273ffffffffffffffffffffffffffffffffffffffff1673ffffffffffffffffffffffffffffffffffffffff16815260200191505060405180910390f35b34801561053257600080fd5b5061053b610dbd565b604051808215151515815260200191505060405180910390f35b34801561056157600080fd5b506105b6600480360360a081101561057857600080fd5b810190808035906020019092919080359060200190929190803590602001909291908035906020019092919080359060200190929190505050610e14565b005b3480156105c457600080fd5b506105f1600480360360208110156105db57600080fd5b8101908080359060200190929190505050610ea4565b6040518082815260200191505060405180910390f35b34801561061357600080fd5b506106406004803603602081101561062a57600080fd5b8101908080359060200190929190505050610ec4565b005b34801561064e57600080fd5b5061067b6004803603602081101561066557600080fd5b81019080803590602001909291905050506111bc565b6040518082815260200191505060405180910390f35b34801561069d57600080fd5b506106ca600480360360208110156106b457600080fd5b81019080803590602001909291905050506111dc565b6040518082815260200191505060405180910390f35b3480156106ec57600080fd5b506107196004803603602081101561070357600080fd5b81019080803590602001909291905050506111fc565b60405180868152602001858152602001848152602001838152602001821515151581526020019550505050505060405180910390f35b34801561075b57600080fd5b506107886004803603602081101561077257600080fd5b8101908080359060200190929190505050611244565b6040518082815260200191505060405180910390f35b3480156107aa57600080fd5b506107d7600480360360208110156107c157600080fd5b8101908080359060200190929190505050611267565b005b3480156107e557600080fd5b5061081c600480360360408110156107fc57600080fd5b8101908080359060200190929190803590602001909291905050506114c1565b005b34801561082a57600080fd5b5061086d6004803603602081101561084157600080fd5b81019080803573ffffffffffffffffffffffffffffffffffffffff169060200190929190505050611592565b005b34801561087b57600080fd5b506108be6004803603602081101561089257600080fd5b81019080803573ffffffffffffffffffffffffffffffffffffffff169060200190929190505050611652565b005b3480156108cc57600080fd5b50610903600480360360408110156108e357600080fd5b8101908080359060200190929190803590602001909291905050506116da565b005b34801561091157600080fd5b506109486004803603604081101561092857600080fd5b8101908080359060200190929190803590602001909291905050506117a3565b005b600080610956836111bc565b119050919050565b600160009054906101000a900473ffffffffffffffffffffffffffffffffffffffff1681565b60006109a182610993856111dc565b61187490919063ffffffff16565b905092915050565b6109b1610dbd565b1515610a25576040517f08c379a00000000000000000000000000000000000000000000000000000000081526004018080602001828103825260208152602001807f4f776e61626c653a2063616c6c6572206973206e6f7420746865206f776e657281525060200191505060405180910390fd5b610a2f8282611941565b7f8993c82fcc9b66ce01f4e84cdf9e0c368fc46c1c20e87e9c8324eb0ab6780cf5828260405180838152602001821515151581526020019250505060405180910390a15050565b60006003600083815260200190815260200160002060060160009054906101000a900460ff169050919050565b610aab610dbd565b1515610b1f576040517f08c379a00000000000000000000000000000000000000000000000000000000081526004018080602001828103825260208152602001807f4f776e61626c653a2063616c6c6572206973206e6f7420746865206f776e657281525060200191505060405180910390fd5b610b2881611a16565b7f52de58a758e06868840036921f6c180f216295e8eb79f91399b9f8edb1f64daa81610b5383610d74565b604051808381526020018281526020019250505060405180910390a150565b60606002805480602002602001604051908101604052809291908181526020018280548015610bc057602002820191906000526020600020905b815481526020019060010190808311610bac575b5050505050905090565b610bd2610dbd565b1515610c46576040517f08c379a00000000000000000000000000000000000000000000000000000000081526004018080602001828103825260208152602001807f4f776e61626c653a2063616c6c6572206973206e6f7420746865206f776e657281525060200191505060405180910390fd5b600073ffffffffffffffffffffffffffffffffffffffff166000809054906101000a900473ffffffffffffffffffffffffffffffffffffffff1673ffffffffffffffffffffffffffffffffffffffff167f8be0079c531659141344cd1fd0a4f28419497f9722a3daafe3b4186f6b6457e060405160405180910390a360008060006101000a81548173ffffffffffffffffffffffffffffffffffffffff021916908373ffffffffffffffffffffffffffffffffffffffff160217905550565b600060036000838152602001908152602001600020600301549050919050565b60036020528060005260406000206000915090508060000154908060010154908060020154908060030154908060040154908060050154908060060160009054906101000a900460ff16905087565b600060036000838152602001908152602001600020600201549050919050565b60008060009054906101000a900473ffffffffffffffffffffffffffffffffffffffff16905090565b60008060009054906101000a900473ffffffffffffffffffffffffffffffffffffffff1673ffffffffffffffffffffffffffffffffffffffff163373ffffffffffffffffffffffffffffffffffffffff1614905090565b610e1c610dbd565b1515610e90576040517f08c379a00000000000000000000000000000000000000000000000000000000081526004018080602001828103825260208152602001807f4f776e61626c653a2063616c6c6572206973206e6f7420746865206f776e657281525060200191505060405180910390fd5b610e9d8585858585611ad8565b5050505050565b600060036000838152602001908152602001600020600401549050919050565b600160009054906101000a900473ffffffffffffffffffffffffffffffffffffffff1673ffffffffffffffffffffffffffffffffffffffff163373ffffffffffffffffffffffffffffffffffffffff16141515610fd5576040517f08c379a00000000000000000000000000000000000000000000000000000000081526004018080602001828103825260538152602001807f4c6963656e7365496e76656e746f72792e70757263686173654f6e65556e697481526020017f496e53746f636b28293a2063616e206f6e6c792062652063616c6c656420627981526020017f207468652073616c65436f6e74726f6c6c65720000000000000000000000000081525060600191505060405180910390fd5b610fde81611db3565b151561109e576040517f08c379a00000000000000000000000000000000000000000000000000000000081526004018080602001828103825260418152602001807f4c6963656e7365496e76656e746f72792e70757263686173654f6e65556e697481526020017f496e53746f636b28293a2070726f6475637420646f6573206e6f74206578697381526020017f740000000000000000000000000000000000000000000000000000000000000081525060600191505060405180910390fd5b60006110a982610d74565b11151561116a576040517f08c379a00000000000000000000000000000000000000000000000000000000081526004018080602001828103825260418152602001807f4c6963656e7365496e76656e746f72792e70757263686173654f6e65556e697481526020017f496e53746f636b28293a206e6f20617661696c61626c6520696e76656e746f7281526020017f790000000000000000000000000000000000000000000000000000000000000081525060600191505060405180910390fd5b611175816001611dd6565b61119f60016003600084815260200190815260200160002060040154611ec690919063ffffffff16565b600360008381526020019081526020016000206004018190555050565b600060036000838152602001908152602001600020600501549050919050565b600060036000838152602001908152602001600020600101549050919050565b600080600080600061120d866111dc565b61121687610d74565b61121f88610d05565b611228896111bc565b6112318a610a76565b9450945094509450945091939590929450565b60028181548110151561125357fe5b906000526020600020016000915090505481565b6000811415151561132c576040517f08c379a00000000000000000000000000000000000000000000000000000000081526004018080602001828103825260468152602001807f4c6963656e7365496e76656e746f72792e7265717569726552656e657761626c81526020017f6550726f6475637428293a2070726f647563744944206d757374206265206e6f81526020017f6e2d7a65726f000000000000000000000000000000000000000000000000000081525060600191505060405180910390fd5b6113358161094a565b15156113f5576040517f08c379a00000000000000000000000000000000000000000000000000000000081526004018080602001828103825260468152602001807f4c6963656e7365496e76656e746f72792e7265717569726552656e657761626c81526020017f6550726f6475637428293a206e6f74206120737562736372697074696f6e207081526020017f726f64756374000000000000000000000000000000000000000000000000000081525060600191505060405180910390fd5b6113fe81610a76565b15156114be576040517f08c379a00000000000000000000000000000000000000000000000000000000081526004018080602001828103825260448152602001807f4c6963656e7365496e76656e746f72792e7265717569726552656e657761626c81526020017f6550726f6475637428293a2070726f64756374206973206e6f742072656e657781526020017f61626c650000000000000000000000000000000000000000000000000000000081525060600191505060405180910390fd5b50565b6114c9610dbd565b151561153d576040517f08c379a00000000000000000000000000000000000000000000000000000000081526004018080602001828103825260208152602001807f4f776e61626c653a2063616c6c6572206973206e6f7420746865206f776e657281525060200191505060405180910390fd5b6115478282611f50565b7f52de58a758e06868840036921f6c180f216295e8eb79f91399b9f8edb1f64daa8261157284610d74565b604051808381526020018281526020019250505060405180910390a15050565b61159a610dbd565b151561160e576040517f08c379a00000000000000000000000000000000000000000000000000000000081526004018080602001828103825260208152602001807f4f776e61626c653a2063616c6c6572206973206e6f7420746865206f776e657281525060200191505060405180910390fd5b80600160006101000a81548173ffffffffffffffffffffffffffffffffffffffff021916908373ffffffffffffffffffffffffffffffffffffffff16021790555050565b61165a610dbd565b15156116ce576040517f08c379a00000000000000000000000000000000000000000000000000000000081526004018080602001828103825260208152602001807f4f776e61626c653a2063616c6c6572206973206e6f7420746865206f776e657281525060200191505060405180910390fd5b6116d781612162565b50565b6116e2610dbd565b1515611756576040517f08c379a00000000000000000000000000000000000000000000000000000000081526004018080602001828103825260208152602001807f4f776e61626c653a2063616c6c6572206973206e6f7420746865206f776e657281525060200191505060405180910390fd5b61176082826122eb565b7fd63cc1ed2f6abbff2bdc8aeb9f139df953e98c6aa57ca5bfe8e1876be9e890ec8282604051808381526020018281526020019250505060405180910390a15050565b6117ab610dbd565b151561181f576040517f08c379a00000000000000000000000000000000000000000000000000000000081526004018080602001828103825260208152602001807f4f776e61626c653a2063616c6c6572206973206e6f7420746865206f776e657281525060200191505060405180910390fd5b6118298282611dd6565b7f52de58a758e06868840036921f6c180f216295e8eb79f91399b9f8edb1f64daa8261185484610d74565b604051808381526020018281526020019250505060405180910390a15050565b600080831415611887576000905061193b565b6000828402905082848281151561189a57fe5b04141515611936576040517f08c379a00000000000000000000000000000000000000000000000000000000081526004018080602001828103825260218152602001807f536166654d6174683a206d756c7469706c69636174696f6e206f766572666c6f81526020017f770000000000000000000000000000000000000000000000000000000000000081525060400191505060405180910390fd5b809150505b92915050565b61194a82611db3565b15156119e4576040517f08c379a00000000000000000000000000000000000000000000000000000000081526004018080602001828103825260388152602001807f4c6963656e7365496e76656e746f72792e5f73657452656e657761626c65282981526020017f3a2070726f6475637420646f6573206e6f74206578697374000000000000000081525060400191505060405180910390fd5b806003600084815260200190815260200160002060060160006101000a81548160ff0219169083151502179055505050565b611a1f81611db3565b1515611ab9576040517f08c379a000000000000000000000000000000000000000000000000000000000815260040180806020018281038252603a8152602001807f4c6963656e7365496e76656e746f72792e5f636c656172496e76656e746f727981526020017f28293a2070726f6475637420646f6573206e6f7420657869737400000000000081525060400191505060405180910390fd5b6000600360008381526020019081526020016000206002018190555050565b611ae1856123ad565b1515611b7b576040517f08c379a00000000000000000000000000000000000000000000000000000000081526004018080602001828103825260398152602001807f4c6963656e7365496e76656e746f72792e5f63726561746550726f647563742881526020017f293a2070726f6475637420616c7265616479206578697374730000000000000081525060400191505060405180910390fd5b818311151515611c3f576040517f08c379a00000000000000000000000000000000000000000000000000000000081526004018080602001828103825260448152602001807f4c6963656e7365496e76656e746f72792e5f63726561746550726f647563742881526020017f293a20696e697469616c496e76656e746f72795175616e74697479203e20737581526020017f70706c790000000000000000000000000000000000000000000000000000000081525060600191505060405180910390fd5b611c476124db565b60e0604051908101604052808781526020018681526020018581526020018481526020016000815260200183815260200160008414611c87576001611c8a565b60005b151581525090508060036000888152602001908152602001600020600082015181600001556020820151816001015560408201518160020155606082015181600301556080820151816004015560a0820151816005015560c08201518160060160006101000a81548160ff02191690831515021790555090505060028690806001815401808255809150509060018203906000526020600020016000909192909190915055507f712119543ff2c643b26af29b73e263a1ae26070bc4c92e6ca2b659885654a70181600001518260200151836040015184606001518560a001518660c001516040518087815260200186815260200185815260200184815260200183815260200182151515158152602001965050505050505060405180910390a1505050505050565b600080600360008481526020019081526020016000206000015414159050919050565b611ddf82611db3565b1515611e79576040517f08c379a000000000000000000000000000000000000000000000000000000000815260040180806020018281038252603e8152602001807f4c6963656e7365496e76656e746f72792e5f64656372656d656e74496e76656e81526020017f746f727928293a2070726f6475637420646f6573206e6f74206578697374000081525060400191505060405180910390fd5b6000611ea48260036000868152602001908152602001600020600201546123cf90919063ffffffff16565b9050806003600085815260200190815260200160002060020181905550505050565b6000808284019050838110151515611f46576040517f08c379a000000000000000000000000000000000000000000000000000000000815260040180806020018281038252601b8152602001807f536166654d6174683a206164646974696f6e206f766572666c6f77000000000081525060200191505060405180910390fd5b8091505092915050565b611f5982611db3565b1515611ff3576040517f08c379a000000000000000000000000000000000000000000000000000000000815260040180806020018281038252603e8152602001807f4c6963656e7365496e76656e746f72792e5f696e6372656d656e74496e76656e81526020017f746f727928293a2070726f6475637420646f6573206e6f74206578697374000081525060400191505060405180910390fd5b600061201e826003600086815260200190815260200160002060020154611ec690919063ffffffff16565b905060006003600085815260200190815260200160002060030154111561214257600360008481526020019081526020016000206003015461207f826003600087815260200190815260200160002060040154611ec690919063ffffffff16565b11151515612141576040517f08c379a00000000000000000000000000000000000000000000000000000000081526004018080602001828103825260488152602001807f4c6963656e7365496e76656e746f72792e5f696e6372656d656e74496e76656e81526020017f746f727928293a207468617420776f756c6420657863656564206d6178696d7581526020017f6d20737570706c7900000000000000000000000000000000000000000000000081525060600191505060405180910390fd5b5b806003600085815260200190815260200160002060020181905550505050565b600073ffffffffffffffffffffffffffffffffffffffff168173ffffffffffffffffffffffffffffffffffffffff161415151561222d576040517f08c379a00000000000000000000000000000000000000000000000000000000081526004018080602001828103825260268152602001807f4f776e61626c653a206e6577206f776e657220697320746865207a65726f206181526020017f646472657373000000000000000000000000000000000000000000000000000081525060400191505060405180910390fd5b8073ffffffffffffffffffffffffffffffffffffffff166000809054906101000a900473ffffffffffffffffffffffffffffffffffffffff1673ffffffffffffffffffffffffffffffffffffffff167f8be0079c531659141344cd1fd0a4f28419497f9722a3daafe3b4186f6b6457e060405160405180910390a3806000806101000a81548173ffffffffffffffffffffffffffffffffffffffff021916908373ffffffffffffffffffffffffffffffffffffffff16021790555050565b6122f482611db3565b151561238e576040517f08c379a00000000000000000000000000000000000000000000000000000000081526004018080602001828103825260348152602001807f4c6963656e7365496e76656e746f72792e5f736574507269636528293a20707281526020017f6f6475637420646f6573206e6f7420657869737400000000000000000000000081525060400191505060405180910390fd5b8060036000848152602001908152602001600020600101819055505050565b6000806003600084815260200190815260200160002060000154149050919050565b600061241183836040805190810160405280601e81526020017f536166654d6174683a207375627472616374696f6e206f766572666c6f770000815250612419565b905092915050565b600083831115829015156124c8576040517f08c379a00000000000000000000000000000000000000000000000000000000081526004018080602001828103825283818151815260200191508051906020019080838360005b8381101561248d578082015181840152602081019050612472565b50505050905090810190601f1680156124ba5780820380516001836020036101000a031916815260200191505b509250505060405180910390fd5b5060008385039050809150509392505050565b60e060405190810160405280600081526020016000815260200160008152602001600081526020016000815260200160008152602001600015158152509056fea165627a7a72305820bc08048f07485ebd9cd4eec7a92a39fcd93f06f7e9b77c1d3e9affb3913631cc0029",
  "source": "pragma solidity 0.5.0;\n\nimport \"./math/SafeMath.sol\";\nimport \"./ownership/Ownable.sol\";\n\n/**\n * @title LicenseInventory\n * @notice LicenseInventory controls the products and inventory for those products\n **/\ncontract LicenseInventory is Ownable {\n  using SafeMath for uint256;\n\n  address public saleController;\n  function setSaleController(address _saleController) onlyOwner public {\n    saleController = _saleController;\n  }\n\n\n  event ProductCreated(\n    uint256 id,\n    uint256 price,\n    uint256 available,\n    uint256 supply,\n    uint256 interval,\n    bool renewable\n  );\n  event ProductInventoryAdjusted(uint256 productId, uint256 available);\n  event ProductPriceChanged(uint256 productId, uint256 price);\n  event ProductRenewableChanged(uint256 productId, bool renewable);\n\n\n  /**\n   * @notice Product defines a product\n   * * renewable: There may come a time when we which to disable the ability to renew a subscription. For example, a plan we no longer wish to support. Obviously care needs to be taken with how we communicate this to customers, but contract-wise, we want to support the ability to discontinue renewal of certain plans.\n  */\n  struct Product {\n    uint256 id;\n    uint256 price;\n    uint256 available;\n    uint256 supply;\n    uint256 sold;\n    uint256 interval;\n    bool renewable;\n  }\n\n  // @notice All products in existence\n  uint256[] public allProductIds;\n\n  // @notice A mapping from product ids to Products\n  mapping (uint256 => Product) public products;\n\n  /*** internal ***/\n\n  /**\n   * @notice _productExists checks to see if a product exists\n   */\n  function _productExists(uint256 _productId) internal view returns (bool) {\n    return products[_productId].id != 0;\n  }\n\n  function _productDoesNotExist(uint256 _productId) internal view returns (bool) {\n    return products[_productId].id == 0;\n  }\n\n  function _createProduct(\n    uint256 _productId,\n    uint256 _initialPrice,\n    uint256 _initialInventoryQuantity,\n    uint256 _supply,\n    uint256 _interval)\n    internal\n  {\n    require(_productDoesNotExist(_productId), \"LicenseInventory._createProduct(): product already exists\");\n    require(_initialInventoryQuantity <= _supply, \"LicenseInventory._createProduct(): initialInventoryQuantity > supply\");\n\n    Product memory _product = Product({\n      id: _productId,\n      price: _initialPrice,\n      available: _initialInventoryQuantity,\n      supply: _supply,\n      sold: 0,\n      interval: _interval,\n      renewable: _interval == 0 ? false : true\n    });\n\n    products[_productId] = _product;\n    allProductIds.push(_productId);\n\n    emit ProductCreated(\n      _product.id,\n      _product.price,\n      _product.available,\n      _product.supply,\n      _product.interval,\n      _product.renewable\n      );\n  }\n\n  function _incrementInventory(\n    uint256 _productId,\n    uint256 _inventoryAdjustment)\n    internal\n  {\n    require(_productExists(_productId), \"LicenseInventory._incrementInventory(): product does not exist\");\n    uint256 newInventoryLevel = products[_productId].available.add(_inventoryAdjustment);\n\n    // A supply of \"0\" means \"unlimited\". Otherwise we need to ensure that we're not over-creating this product\n    if(products[_productId].supply > 0) {\n      // you have to take already sold into account\n      require(products[_productId].sold.add(newInventoryLevel) <= products[_productId].supply, \"LicenseInventory._incrementInventory(): that would exceed maximum supply\");\n    }\n\n    products[_productId].available = newInventoryLevel;\n  }\n\n  function _decrementInventory(\n    uint256 _productId,\n    uint256 _inventoryAdjustment)\n    internal\n  {\n    require(_productExists(_productId), \"LicenseInventory._decrementInventory(): product does not exist\");\n    uint256 newInventoryLevel = products[_productId].available.sub(_inventoryAdjustment);\n    // unnecessary because we're using SafeMath and an unsigned int\n    // require(newInventoryLevel >= 0);\n    products[_productId].available = newInventoryLevel;\n  }\n\n  function _clearInventory(uint256 _productId) internal {\n    require(_productExists(_productId), \"LicenseInventory._clearInventory(): product does not exist\");\n    products[_productId].available = 0;\n  }\n\n  function _setPrice(uint256 _productId, uint256 _price) internal {\n    require(_productExists(_productId), \"LicenseInventory._setPrice(): product does not exist\");\n    products[_productId].price = _price;\n  }\n\n  function _setRenewable(uint256 _productId, bool _isRenewable) internal {\n    require(_productExists(_productId), \"LicenseInventory._setRenewable(): product does not exist\");\n    products[_productId].renewable = _isRenewable;\n  }\n\n  function purchaseOneUnitInStock(uint256 _productId) public {\n    require(msg.sender == saleController, \"LicenseInventory.purchaseOneUnitInStock(): can only be called by the saleController\");\n    require(_productExists(_productId), \"LicenseInventory.purchaseOneUnitInStock(): product does not exist\");\n    require(availableInventoryOf(_productId) > 0, \"LicenseInventory.purchaseOneUnitInStock(): no available inventory\");\n\n    // lower inventory\n    _decrementInventory(_productId, 1);\n\n    // record that one was sold\n    products[_productId].sold = products[_productId].sold.add(1);\n  }\n\n  function requireRenewableProduct(uint256 _productId) public view {\n    // productId must exist\n    require(_productId != 0, \"LicenseInventory.requireRenewableProduct(): productID must be non-zero\");\n    // You can only renew a subscription product\n    require(isSubscriptionProduct(_productId), \"LicenseInventory.requireRenewableProduct(): not a subscription product\");\n    // The product must currently be renewable\n    require(renewableOf(_productId), \"LicenseInventory.requireRenewableProduct(): product is not renewable\");\n  }\n\n  /*** public ***/\n\n  /** executives-only **/\n\n  /**\n   * @notice createProduct creates a new product in the system\n   * @param _productId - the id of the product to use (cannot be changed)\n   * @param _initialPrice - the starting price (price can be changed)\n   * @param _initialInventoryQuantity - the initial inventory (inventory can be changed)\n   * @param _supply - the total supply - use `0` for \"unlimited\" (cannot be changed)\n   */\n  function createProduct(\n    uint256 _productId,\n    uint256 _initialPrice,\n    uint256 _initialInventoryQuantity,\n    uint256 _supply,\n    uint256 _interval)\n    external\n    onlyOwner\n  {\n    _createProduct(\n      _productId,\n      _initialPrice,\n      _initialInventoryQuantity,\n      _supply,\n      _interval);\n  }\n\n  /**\n   * @notice incrementInventory - increments the inventory of a product\n   * @param _productId - the product id\n   * @param _inventoryAdjustment - the amount to increment\n   */\n  function incrementInventory(\n    uint256 _productId,\n    uint256 _inventoryAdjustment)\n    external\n    onlyOwner\n  {\n    _incrementInventory(_productId, _inventoryAdjustment);\n    emit ProductInventoryAdjusted(_productId, availableInventoryOf(_productId));\n  }\n\n  /**\n  * @notice decrementInventory removes inventory levels for a product\n  * @param _productId - the product id\n  * @param _inventoryAdjustment - the amount to decrement\n  */\n  function decrementInventory(\n    uint256 _productId,\n    uint256 _inventoryAdjustment)\n    external\n    onlyOwner\n  {\n    _decrementInventory(_productId, _inventoryAdjustment);\n    emit ProductInventoryAdjusted(_productId, availableInventoryOf(_productId));\n  }\n\n  /**\n  * @notice clearInventory clears the inventory of a product.\n  * @dev decrementInventory verifies inventory levels, whereas this method\n  * simply sets the inventory to zero. This is useful, for example, if an\n  * owner wants to take a product off the market quickly. There could be a\n  * race condition with decrementInventory where a product is sold, which could\n  * cause the admins decrement to fail (because it may try to decrement more\n  * than available).\n  *\n  * @param _productId - the product id\n  */\n  function clearInventory(uint256 _productId)\n    external\n    onlyOwner\n  {\n    _clearInventory(_productId);\n    emit ProductInventoryAdjusted(_productId, availableInventoryOf(_productId));\n  }\n\n  /**\n  * @notice setPrice - sets the price of a product\n  * @param _productId - the product id\n  * @param _price - the product price\n  */\n  function setPrice(uint256 _productId, uint256 _price)\n    external\n    onlyOwner\n  {\n    _setPrice(_productId, _price);\n    emit ProductPriceChanged(_productId, _price);\n  }\n\n  /**\n  * @notice setRenewable - sets if a product is renewable\n  * @param _productId - the product id\n  * @param _newRenewable - the new renewable setting\n  */\n  function setRenewable(uint256 _productId, bool _newRenewable)\n    external\n    onlyOwner\n  {\n    _setRenewable(_productId, _newRenewable);\n    emit ProductRenewableChanged(_productId, _newRenewable);\n  }\n\n  /** anyone **/\n\n  /**\n  * @notice The price of a product\n  * @param _productId - the product id\n  */\n  function priceOf(uint256 _productId) public view returns (uint256) {\n    return products[_productId].price;\n  }\n\n  /**\n  * @notice The available inventory of a product\n  * @param _productId - the product id\n  */\n  function availableInventoryOf(uint256 _productId) public view returns (uint256) {\n    return products[_productId].available;\n  }\n\n  /**\n  * @notice The total supply of a product\n  * @param _productId - the product id\n  */\n  function totalSupplyOf(uint256 _productId) public view returns (uint256) {\n    return products[_productId].supply;\n  }\n\n  /**\n  * @notice The total sold of a product\n  * @param _productId - the product id\n  */\n  function totalSold(uint256 _productId) public view returns (uint256) {\n    return products[_productId].sold;\n  }\n\n  /**\n  * @notice The renewal interval of a product in seconds\n  * @param _productId - the product id\n  */\n  function intervalOf(uint256 _productId) public view returns (uint256) {\n    return products[_productId].interval;\n  }\n\n  /**\n  * @notice Is this product renewable?\n  * @param _productId - the product id\n  */\n  function renewableOf(uint256 _productId) public view returns (bool) {\n    return products[_productId].renewable;\n  }\n\n\n  /**\n  * @notice The product info for a product\n  * @param _productId - the product id\n  */\n  function productInfo(uint256 _productId)\n    public\n    view\n    returns (uint256 price, uint256 inventory, uint256 totalSupply, uint256 interval, bool renewable)\n  {\n    return (\n      priceOf(_productId),\n      availableInventoryOf(_productId),\n      totalSupplyOf(_productId),\n      intervalOf(_productId),\n      renewableOf(_productId));\n  }\n\n  /**\n  * @notice Get all product ids\n  */\n  function getAllProductIds() public view returns (uint256[] memory) {\n    return allProductIds;\n  }\n\n  /**\n   * @notice returns the total cost to renew a product for a number of cycles\n   * @dev If a product is a subscription, the interval defines the period of\n   * time, in seconds, users can subscribe for. E.g. 1 month or 1 year.\n   * _numCycles is the number of these intervals we want to use in the\n   * calculation of the price.\n   *\n   * We require that the end user send precisely the amount required (instead\n   * of dealing with excess refunds). This method is public so that clients can\n   * read the exact amount our contract expects to receive.\n   *\n   * @param _productId - the product we're calculating for\n   * @param _numCycles - the number of cycles to calculate for\n   */\n  function costForProductCycles(uint256 _productId, uint256 _numCycles)\n    public\n    view\n    returns (uint256)\n  {\n    return priceOf(_productId).mul(_numCycles);\n  }\n\n  /**\n   * @notice returns if this product is a subscription or not\n   * @dev Some products are subscriptions and others are not. An interval of 0\n   * means the product is not a subscription\n   * @param _productId - the product we're checking\n   */\n  function isSubscriptionProduct(uint256 _productId) public view returns (bool) {\n    return intervalOf(_productId) > 0;\n  }\n\n}\n",
  "sourcePath": "/Users/alexander/Development/dotta-license/dot-license-contracts/contracts/LicenseInventory.sol",
  "compiler": {
    "name": "solc",
    "version": "0.5.0+commit.1d4f565a.Emscripten.clang"
  },
  "schemaVersion": "3.0.1",
  "updatedAt": "2019-08-16T20:18:31.662Z",
  "devdoc": {
    "methods": {
      "availableInventoryOf(uint256)": {
        "params": {
          "_productId": "- the product id"
        }
      },
      "clearInventory(uint256)": {
        "details": "decrementInventory verifies inventory levels, whereas this method simply sets the inventory to zero. This is useful, for example, if an owner wants to take a product off the market quickly. There could be a race condition with decrementInventory where a product is sold, which could cause the admins decrement to fail (because it may try to decrement more than available).",
        "params": {
          "_productId": "- the product id"
        }
      },
      "costForProductCycles(uint256,uint256)": {
        "details": "If a product is a subscription, the interval defines the period of time, in seconds, users can subscribe for. E.g. 1 month or 1 year. _numCycles is the number of these intervals we want to use in the calculation of the price.   * We require that the end user send precisely the amount required (instead of dealing with excess refunds). This method is public so that clients can read the exact amount our contract expects to receive.",
        "params": {
          "_numCycles": "- the number of cycles to calculate for",
          "_productId": "- the product we're calculating for"
        }
      },
      "createProduct(uint256,uint256,uint256,uint256,uint256)": {
        "params": {
          "_initialInventoryQuantity": "- the initial inventory (inventory can be changed)",
          "_initialPrice": "- the starting price (price can be changed)",
          "_productId": "- the id of the product to use (cannot be changed)",
          "_supply": "- the total supply - use `0` for \"unlimited\" (cannot be changed)"
        }
      },
      "decrementInventory(uint256,uint256)": {
        "params": {
          "_inventoryAdjustment": "- the amount to decrement",
          "_productId": "- the product id"
        }
      },
      "incrementInventory(uint256,uint256)": {
        "params": {
          "_inventoryAdjustment": "- the amount to increment",
          "_productId": "- the product id"
        }
      },
      "intervalOf(uint256)": {
        "params": {
          "_productId": "- the product id"
        }
      },
      "isOwner()": {
        "details": "Returns true if the caller is the current owner."
      },
      "isSubscriptionProduct(uint256)": {
        "details": "Some products are subscriptions and others are not. An interval of 0 means the product is not a subscription",
        "params": {
          "_productId": "- the product we're checking"
        }
      },
      "owner()": {
        "details": "Returns the address of the current owner."
      },
      "priceOf(uint256)": {
        "params": {
          "_productId": "- the product id"
        }
      },
      "productInfo(uint256)": {
        "params": {
          "_productId": "- the product id"
        }
      },
      "renewableOf(uint256)": {
        "params": {
          "_productId": "- the product id"
        }
      },
      "renounceOwnership()": {
        "details": "Leaves the contract without owner. It will not be possible to call `onlyOwner` functions anymore. Can only be called by the current owner.     * NOTE: Renouncing ownership will leave the contract without an owner, thereby removing any functionality that is only available to the owner."
      },
      "setPrice(uint256,uint256)": {
        "params": {
          "_price": "- the product price",
          "_productId": "- the product id"
        }
      },
      "setRenewable(uint256,bool)": {
        "params": {
          "_newRenewable": "- the new renewable setting",
          "_productId": "- the product id"
        }
      },
      "totalSold(uint256)": {
        "params": {
          "_productId": "- the product id"
        }
      },
      "totalSupplyOf(uint256)": {
        "params": {
          "_productId": "- the product id"
        }
      },
      "transferOwnership(address)": {
        "details": "Transfers ownership of the contract to a new account (`newOwner`). Can only be called by the current owner."
      }
    },
    "title": "LicenseInventory"
  },
  "userdoc": {
    "methods": {
      "availableInventoryOf(uint256)": {
        "notice": "The available inventory of a product"
      },
      "clearInventory(uint256)": {
        "notice": "clearInventory clears the inventory of a product."
      },
      "costForProductCycles(uint256,uint256)": {
        "notice": "returns the total cost to renew a product for a number of cycles"
      },
      "createProduct(uint256,uint256,uint256,uint256,uint256)": {
        "notice": "createProduct creates a new product in the system"
      },
      "decrementInventory(uint256,uint256)": {
        "notice": "decrementInventory removes inventory levels for a product"
      },
      "getAllProductIds()": {
        "notice": "Get all product ids"
      },
      "incrementInventory(uint256,uint256)": {
        "notice": "incrementInventory - increments the inventory of a product"
      },
      "intervalOf(uint256)": {
        "notice": "The renewal interval of a product in seconds"
      },
      "isSubscriptionProduct(uint256)": {
        "notice": "returns if this product is a subscription or not"
      },
      "priceOf(uint256)": {
        "notice": "The price of a product"
      },
      "productInfo(uint256)": {
        "notice": "The product info for a product"
      },
      "renewableOf(uint256)": {
        "notice": "Is this product renewable?"
      },
      "setPrice(uint256,uint256)": {
        "notice": "setPrice - sets the price of a product"
      },
      "setRenewable(uint256,bool)": {
        "notice": "setRenewable - sets if a product is renewable"
      },
      "totalSold(uint256)": {
        "notice": "The total sold of a product"
      },
      "totalSupplyOf(uint256)": {
        "notice": "The total supply of a product"
      }
    },
    "notice": "LicenseInventory controls the products and inventory for those products*"
  }
}