{
  "contractName": "LicenseOwnership",
  "abi": [
    {
      "constant": true,
      "inputs": [],
      "name": "saleController",
      "outputs": [
        {
          "name": "",
          "type": "address"
        }
      ],
      "payable": false,
      "stateMutability": "view",
      "type": "function"
    },
    {
      "constant": false,
      "inputs": [],
      "name": "unpause",
      "outputs": [],
      "payable": false,
      "stateMutability": "nonpayable",
      "type": "function"
    },
    {
      "constant": true,
      "inputs": [],
      "name": "paused",
      "outputs": [
        {
          "name": "",
          "type": "bool"
        }
      ],
      "payable": false,
      "stateMutability": "view",
      "type": "function"
    },
    {
      "constant": false,
      "inputs": [],
      "name": "renounceOwnership",
      "outputs": [],
      "payable": false,
      "stateMutability": "nonpayable",
      "type": "function"
    },
    {
      "constant": false,
      "inputs": [],
      "name": "pause",
      "outputs": [],
      "payable": false,
      "stateMutability": "nonpayable",
      "type": "function"
    },
    {
      "constant": true,
      "inputs": [],
      "name": "owner",
      "outputs": [
        {
          "name": "",
          "type": "address"
        }
      ],
      "payable": false,
      "stateMutability": "view",
      "type": "function"
    },
    {
      "constant": true,
      "inputs": [],
      "name": "isOwner",
      "outputs": [
        {
          "name": "",
          "type": "bool"
        }
      ],
      "payable": false,
      "stateMutability": "view",
      "type": "function"
    },
    {
      "constant": true,
      "inputs": [],
      "name": "NAME",
      "outputs": [
        {
          "name": "",
          "type": "string"
        }
      ],
      "payable": false,
      "stateMutability": "view",
      "type": "function"
    },
    {
      "constant": true,
      "inputs": [],
      "name": "tokenMetadataBaseURI",
      "outputs": [
        {
          "name": "",
          "type": "string"
        }
      ],
      "payable": false,
      "stateMutability": "view",
      "type": "function"
    },
    {
      "constant": false,
      "inputs": [
        {
          "name": "newOwner",
          "type": "address"
        }
      ],
      "name": "transferOwnership",
      "outputs": [],
      "payable": false,
      "stateMutability": "nonpayable",
      "type": "function"
    },
    {
      "constant": true,
      "inputs": [],
      "name": "SYMBOL",
      "outputs": [
        {
          "name": "",
          "type": "string"
        }
      ],
      "payable": false,
      "stateMutability": "view",
      "type": "function"
    },
    {
      "anonymous": false,
      "inputs": [
        {
          "indexed": true,
          "name": "from",
          "type": "address"
        },
        {
          "indexed": true,
          "name": "to",
          "type": "address"
        },
        {
          "indexed": true,
          "name": "tokenId",
          "type": "uint256"
        }
      ],
      "name": "Transfer",
      "type": "event"
    },
    {
      "anonymous": false,
      "inputs": [
        {
          "indexed": true,
          "name": "owner",
          "type": "address"
        },
        {
          "indexed": true,
          "name": "approved",
          "type": "address"
        },
        {
          "indexed": true,
          "name": "tokenId",
          "type": "uint256"
        }
      ],
      "name": "Approval",
      "type": "event"
    },
    {
      "anonymous": false,
      "inputs": [
        {
          "indexed": true,
          "name": "owner",
          "type": "address"
        },
        {
          "indexed": true,
          "name": "operator",
          "type": "address"
        },
        {
          "indexed": false,
          "name": "approved",
          "type": "bool"
        }
      ],
      "name": "ApprovalForAll",
      "type": "event"
    },
    {
      "anonymous": false,
      "inputs": [],
      "name": "Pause",
      "type": "event"
    },
    {
      "anonymous": false,
      "inputs": [],
      "name": "Unpause",
      "type": "event"
    },
    {
      "anonymous": false,
      "inputs": [
        {
          "indexed": true,
          "name": "previousOwner",
          "type": "address"
        },
        {
          "indexed": true,
          "name": "newOwner",
          "type": "address"
        }
      ],
      "name": "OwnershipTransferred",
      "type": "event"
    },
    {
      "constant": false,
      "inputs": [
        {
          "name": "_saleController",
          "type": "address"
        }
      ],
      "name": "setSaleController",
      "outputs": [],
      "payable": false,
      "stateMutability": "nonpayable",
      "type": "function"
    },
    {
      "constant": true,
      "inputs": [],
      "name": "name",
      "outputs": [
        {
          "name": "",
          "type": "string"
        }
      ],
      "payable": false,
      "stateMutability": "view",
      "type": "function"
    },
    {
      "constant": true,
      "inputs": [],
      "name": "symbol",
      "outputs": [
        {
          "name": "",
          "type": "string"
        }
      ],
      "payable": false,
      "stateMutability": "view",
      "type": "function"
    },
    {
      "constant": true,
      "inputs": [],
      "name": "implementsERC721",
      "outputs": [
        {
          "name": "",
          "type": "bool"
        }
      ],
      "payable": false,
      "stateMutability": "pure",
      "type": "function"
    },
    {
      "constant": true,
      "inputs": [
        {
          "name": "_tokenId",
          "type": "uint256"
        }
      ],
      "name": "tokenURI",
      "outputs": [
        {
          "name": "infoUrl",
          "type": "string"
        }
      ],
      "payable": false,
      "stateMutability": "view",
      "type": "function"
    },
    {
      "constant": true,
      "inputs": [
        {
          "name": "interfaceID",
          "type": "bytes4"
        }
      ],
      "name": "supportsInterface",
      "outputs": [
        {
          "name": "",
          "type": "bool"
        }
      ],
      "payable": false,
      "stateMutability": "view",
      "type": "function"
    },
    {
      "constant": false,
      "inputs": [
        {
          "name": "_newBaseURI",
          "type": "string"
        }
      ],
      "name": "setTokenMetadataBaseURI",
      "outputs": [],
      "payable": false,
      "stateMutability": "nonpayable",
      "type": "function"
    },
    {
      "constant": true,
      "inputs": [],
      "name": "totalSupply",
      "outputs": [
        {
          "name": "",
          "type": "uint256"
        }
      ],
      "payable": false,
      "stateMutability": "view",
      "type": "function"
    },
    {
      "constant": true,
      "inputs": [
        {
          "name": "_index",
          "type": "uint256"
        }
      ],
      "name": "tokenByIndex",
      "outputs": [
        {
          "name": "",
          "type": "uint256"
        }
      ],
      "payable": false,
      "stateMutability": "view",
      "type": "function"
    },
    {
      "constant": true,
      "inputs": [
        {
          "name": "_owner",
          "type": "address"
        }
      ],
      "name": "balanceOf",
      "outputs": [
        {
          "name": "",
          "type": "uint256"
        }
      ],
      "payable": false,
      "stateMutability": "view",
      "type": "function"
    },
    {
      "constant": true,
      "inputs": [
        {
          "name": "_owner",
          "type": "address"
        }
      ],
      "name": "tokensOf",
      "outputs": [
        {
          "name": "",
          "type": "uint256[]"
        }
      ],
      "payable": false,
      "stateMutability": "view",
      "type": "function"
    },
    {
      "constant": true,
      "inputs": [
        {
          "name": "_owner",
          "type": "address"
        },
        {
          "name": "_index",
          "type": "uint256"
        }
      ],
      "name": "tokenOfOwnerByIndex",
      "outputs": [
        {
          "name": "_tokenId",
          "type": "uint256"
        }
      ],
      "payable": false,
      "stateMutability": "view",
      "type": "function"
    },
    {
      "constant": true,
      "inputs": [
        {
          "name": "_tokenId",
          "type": "uint256"
        }
      ],
      "name": "ownerOf",
      "outputs": [
        {
          "name": "",
          "type": "address"
        }
      ],
      "payable": false,
      "stateMutability": "view",
      "type": "function"
    },
    {
      "constant": true,
      "inputs": [
        {
          "name": "_tokenId",
          "type": "uint256"
        }
      ],
      "name": "getApproved",
      "outputs": [
        {
          "name": "",
          "type": "address"
        }
      ],
      "payable": false,
      "stateMutability": "view",
      "type": "function"
    },
    {
      "constant": true,
      "inputs": [
        {
          "name": "_owner",
          "type": "address"
        },
        {
          "name": "_operator",
          "type": "address"
        }
      ],
      "name": "isApprovedForAll",
      "outputs": [
        {
          "name": "",
          "type": "bool"
        }
      ],
      "payable": false,
      "stateMutability": "view",
      "type": "function"
    },
    {
      "constant": false,
      "inputs": [
        {
          "name": "_to",
          "type": "address"
        },
        {
          "name": "_tokenId",
          "type": "uint256"
        }
      ],
      "name": "transfer",
      "outputs": [],
      "payable": false,
      "stateMutability": "nonpayable",
      "type": "function"
    },
    {
      "constant": false,
      "inputs": [
        {
          "name": "_to",
          "type": "address"
        },
        {
          "name": "_tokenId",
          "type": "uint256"
        }
      ],
      "name": "approve",
      "outputs": [],
      "payable": false,
      "stateMutability": "nonpayable",
      "type": "function"
    },
    {
      "constant": false,
      "inputs": [
        {
          "name": "_to",
          "type": "address"
        },
        {
          "name": "_approved",
          "type": "bool"
        }
      ],
      "name": "setApprovalForAll",
      "outputs": [],
      "payable": false,
      "stateMutability": "nonpayable",
      "type": "function"
    },
    {
      "constant": false,
      "inputs": [
        {
          "name": "_to",
          "type": "address"
        }
      ],
      "name": "approveAll",
      "outputs": [],
      "payable": false,
      "stateMutability": "nonpayable",
      "type": "function"
    },
    {
      "constant": false,
      "inputs": [
        {
          "name": "_to",
          "type": "address"
        }
      ],
      "name": "disapproveAll",
      "outputs": [],
      "payable": false,
      "stateMutability": "nonpayable",
      "type": "function"
    },
    {
      "constant": false,
      "inputs": [
        {
          "name": "_tokenId",
          "type": "uint256"
        }
      ],
      "name": "takeOwnership",
      "outputs": [],
      "payable": false,
      "stateMutability": "nonpayable",
      "type": "function"
    },
    {
      "constant": false,
      "inputs": [
        {
          "name": "_from",
          "type": "address"
        },
        {
          "name": "_to",
          "type": "address"
        },
        {
          "name": "_tokenId",
          "type": "uint256"
        }
      ],
      "name": "transferFrom",
      "outputs": [],
      "payable": false,
      "stateMutability": "nonpayable",
      "type": "function"
    },
    {
      "constant": false,
      "inputs": [
        {
          "name": "_from",
          "type": "address"
        },
        {
          "name": "_to",
          "type": "address"
        },
        {
          "name": "_tokenId",
          "type": "uint256"
        },
        {
          "name": "_data",
          "type": "bytes"
        }
      ],
      "name": "safeTransferFrom",
      "outputs": [],
      "payable": false,
      "stateMutability": "nonpayable",
      "type": "function"
    },
    {
      "constant": false,
      "inputs": [
        {
          "name": "_from",
          "type": "address"
        },
        {
          "name": "_to",
          "type": "address"
        },
        {
          "name": "_tokenId",
          "type": "uint256"
        }
      ],
      "name": "safeTransferFrom",
      "outputs": [],
      "payable": false,
      "stateMutability": "nonpayable",
      "type": "function"
    },
    {
      "constant": false,
      "inputs": [
        {
          "name": "_to",
          "type": "address"
        },
        {
          "name": "_tokenId",
          "type": "uint256"
        }
      ],
      "name": "mint",
      "outputs": [],
      "payable": false,
      "stateMutability": "nonpayable",
      "type": "function"
    }
  ],
  "bytecode": "0x608060405260008060146101000a81548160ff0219169083151502179055506040805190810160405280601081526020017f687474703a2f2f6c6f63616c686f737400000000000000000000000000000000815250600890805190602001906200006b9291906200012e565b50336000806101000a81548173ffffffffffffffffffffffffffffffffffffffff021916908373ffffffffffffffffffffffffffffffffffffffff1602179055506000809054906101000a900473ffffffffffffffffffffffffffffffffffffffff1673ffffffffffffffffffffffffffffffffffffffff16600073ffffffffffffffffffffffffffffffffffffffff167f8be0079c531659141344cd1fd0a4f28419497f9722a3daafe3b4186f6b6457e060405160405180910390a3620001dd565b828054600181600116156101000203166002900490600052602060002090601f016020900481019282601f106200017157805160ff1916838001178555620001a2565b82800160010185558215620001a2579182015b82811115620001a157825182559160200191906001019062000184565b5b509050620001b19190620001b5565b5090565b620001da91905b80821115620001d6576000816000905550600101620001bc565b5090565b90565b614bfc80620001ed6000396000f3fe6080604052600436106101c2576000357c0100000000000000000000000000000000000000000000000000000000900463ffffffff16806301ffc9a7146101c75780630621472c1461023957806306fdde031461028a578063081812fc1461031a578063095ea7b3146103955780631051db34146103f057806318160ddd1461041f5780631e1ddacc1461044a5780631e20363a146104a157806323b872dd146105275780632f745c59146105a25780633f4ba83a1461061157806340c10f191461062857806342842e0e146106835780634f6ccce7146106fe57806351dabd451461074d5780635a3f26721461079e5780635c975abb146108445780636352211e1461087357806370a08231146108ee578063715018a6146109535780638456cb591461096a5780638da5cb5b146109815780638f32d59b146109d857806395d89b4114610a07578063a22cb46514610a97578063a3f4df7e14610af4578063a9059cbb14610b84578063b2e6ceeb14610bdf578063b5cab1ce14610c1a578063b88d4fde14610caa578063c87b56dd14610dbc578063e985e9c514610e70578063eda003ce14610ef9578063f2fde38b14610f4a578063f76f8d7814610f9b575b600080fd5b3480156101d357600080fd5b5061021f600480360360208110156101ea57600080fd5b8101908080357bffffffffffffffffffffffffffffffffffffffffffffffffffffffff1916906020019092919050505061102b565b604051808215151515815260200191505060405180910390f35b34801561024557600080fd5b506102886004803603602081101561025c57600080fd5b81019080803573ffffffffffffffffffffffffffffffffffffffff16906020019092919050505061117c565b005b34801561029657600080fd5b5061029f6114be565b6040518080602001828103825283818151815260200191508051906020019080838360005b838110156102df5780820151818401526020810190506102c4565b50505050905090810190601f16801561030c5780820380516001836020036101000a031916815260200191505b509250505060405180910390f35b34801561032657600080fd5b506103536004803603602081101561033d57600080fd5b81019080803590602001909291905050506114fb565b604051808273ffffffffffffffffffffffffffffffffffffffff1673ffffffffffffffffffffffffffffffffffffffff16815260200191505060405180910390f35b3480156103a157600080fd5b506103ee600480360360408110156103b857600080fd5b81019080803573ffffffffffffffffffffffffffffffffffffffff16906020019092919080359060200190929190505050611538565b005b3480156103fc57600080fd5b50610405611902565b604051808215151515815260200191505060405180910390f35b34801561042b57600080fd5b5061043461190b565b6040518082815260200191505060405180910390f35b34801561045657600080fd5b5061045f611915565b604051808273ffffffffffffffffffffffffffffffffffffffff1673ffffffffffffffffffffffffffffffffffffffff16815260200191505060405180910390f35b3480156104ad57600080fd5b50610525600480360360208110156104c457600080fd5b81019080803590602001906401000000008111156104e157600080fd5b8201836020820111156104f357600080fd5b8035906020019184600183028401116401000000008311171561051557600080fd5b909192939192939050505061193b565b005b34801561053357600080fd5b506105a06004803603606081101561054a57600080fd5b81019080803573ffffffffffffffffffffffffffffffffffffffff169060200190929190803573ffffffffffffffffffffffffffffffffffffffff169060200190929190803590602001909291905050506119cd565b005b3480156105ae57600080fd5b506105fb600480360360408110156105c557600080fd5b81019080803573ffffffffffffffffffffffffffffffffffffffff16906020019092919080359060200190929190505050611c50565b6040518082815260200191505060405180910390f35b34801561061d57600080fd5b50610626611d56565b005b34801561063457600080fd5b506106816004803603604081101561064b57600080fd5b81019080803573ffffffffffffffffffffffffffffffffffffffff16906020019092919080359060200190929190505050611ec4565b005b34801561068f57600080fd5b506106fc600480360360608110156106a657600080fd5b81019080803573ffffffffffffffffffffffffffffffffffffffff169060200190929190803573ffffffffffffffffffffffffffffffffffffffff169060200190929190803590602001909291905050506120be565b005b34801561070a57600080fd5b506107376004803603602081101561072157600080fd5b810190808035906020019092919050505061218a565b6040518082815260200191505060405180910390f35b34801561075957600080fd5b5061079c6004803603602081101561077057600080fd5b81019080803573ffffffffffffffffffffffffffffffffffffffff169060200190929190505050612238565b005b3480156107aa57600080fd5b506107ed600480360360208110156107c157600080fd5b81019080803573ffffffffffffffffffffffffffffffffffffffff1690602001909291905050506124a6565b6040518080602001828103825283818151815260200191508051906020019060200280838360005b83811015610830578082015181840152602081019050610815565b505050509050019250505060405180910390f35b34801561085057600080fd5b5061085961253d565b604051808215151515815260200191505060405180910390f35b34801561087f57600080fd5b506108ac6004803603602081101561089657600080fd5b8101908080359060200190929190505050612550565b604051808273ffffffffffffffffffffffffffffffffffffffff1673ffffffffffffffffffffffffffffffffffffffff16815260200191505060405180910390f35b3480156108fa57600080fd5b5061093d6004803603602081101561091157600080fd5b81019080803573ffffffffffffffffffffffffffffffffffffffff16906020019092919050505061265d565b6040518082815260200191505060405180910390f35b34801561095f57600080fd5b50610968612773565b005b34801561097657600080fd5b5061097f6128ae565b005b34801561098d57600080fd5b50610996612a1e565b604051808273ffffffffffffffffffffffffffffffffffffffff1673ffffffffffffffffffffffffffffffffffffffff16815260200191505060405180910390f35b3480156109e457600080fd5b506109ed612a47565b604051808215151515815260200191505060405180910390f35b348015610a1357600080fd5b50610a1c612a9e565b6040518080602001828103825283818151815260200191508051906020019080838360005b83811015610a5c578082015181840152602081019050610a41565b50505050905090810190601f168015610a895780820380516001836020036101000a031916815260200191505b509250505060405180910390f35b348015610aa357600080fd5b50610af260048036036040811015610aba57600080fd5b81019080803573ffffffffffffffffffffffffffffffffffffffff169060200190929190803515159060200190929190505050612adb565b005b348015610b0057600080fd5b50610b09612ba8565b6040518080602001828103825283818151815260200191508051906020019080838360005b83811015610b49578082015181840152602081019050610b2e565b50505050905090810190601f168015610b765780820380516001836020036101000a031916815260200191505b509250505060405180910390f35b348015610b9057600080fd5b50610bdd60048036036040811015610ba757600080fd5b81019080803573ffffffffffffffffffffffffffffffffffffffff16906020019092919080359060200190929190505050612be1565b005b348015610beb57600080fd5b50610c1860048036036020811015610c0257600080fd5b8101908080359060200190929190505050612d94565b005b348015610c2657600080fd5b50610c2f612f1e565b6040518080602001828103825283818151815260200191508051906020019080838360005b83811015610c6f578082015181840152602081019050610c54565b50505050905090810190601f168015610c9c5780820380516001836020036101000a031916815260200191505b509250505060405180910390f35b348015610cb657600080fd5b50610dba60048036036080811015610ccd57600080fd5b81019080803573ffffffffffffffffffffffffffffffffffffffff169060200190929190803573ffffffffffffffffffffffffffffffffffffffff1690602001909291908035906020019092919080359060200190640100000000811115610d3457600080fd5b820183602082011115610d4657600080fd5b80359060200191846001830284011164010000000083111715610d6857600080fd5b91908080601f016020809104026020016040519081016040528093929190818152602001838380828437600081840152601f19601f820116905080830192505050505050509192919290505050612fbc565b005b348015610dc857600080fd5b50610df560048036036020811015610ddf57600080fd5b810190808035906020019092919050505061345c565b6040518080602001828103825283818151815260200191508051906020019080838360005b83811015610e35578082015181840152602081019050610e1a565b50505050905090810190601f168015610e625780820380516001836020036101000a031916815260200191505b509250505060405180910390f35b348015610e7c57600080fd5b50610edf60048036036040811015610e9357600080fd5b81019080803573ffffffffffffffffffffffffffffffffffffffff169060200190929190803573ffffffffffffffffffffffffffffffffffffffff169060200190929190505050613511565b604051808215151515815260200191505060405180910390f35b348015610f0557600080fd5b50610f4860048036036020811015610f1c57600080fd5b81019080803573ffffffffffffffffffffffffffffffffffffffff1690602001909291905050506135a5565b005b348015610f5657600080fd5b50610f9960048036036020811015610f6d57600080fd5b81019080803573ffffffffffffffffffffffffffffffffffffffff169060200190929190505050613665565b005b348015610fa757600080fd5b50610fb06136ed565b6040518080602001828103825283818151815260200191508051906020019080838360005b83811015610ff0578082015181840152602081019050610fd5565b50505050905090810190601f16801561101d5780820380516001836020036101000a031916815260200191505b509250505060405180910390f35b60006301ffc9a77c0100000000000000000000000000000000000000000000000000000000027bffffffffffffffffffffffffffffffffffffffffffffffffffffffff1916827bffffffffffffffffffffffffffffffffffffffffffffffffffffffff191614806110dd5750635b5e139f7c010000000000000000000000000000000000000000000000000000000002827bffffffffffffffffffffffffffffffffffffffffffffffffffffffff1916145b806111295750636466353c7c010000000000000000000000000000000000000000000000000000000002827bffffffffffffffffffffffffffffffffffffffffffffffffffffffff1916145b80611175575063780e9d637c010000000000000000000000000000000000000000000000000000000002827bffffffffffffffffffffffffffffffffffffffffffffffffffffffff1916145b9050919050565b600060149054906101000a900460ff16151515611227576040517f08c379a00000000000000000000000000000000000000000000000000000000081526004018080602001828103825260278152602001807f43616e277420646f20746861742069662074686520636f6e747261637420697381526020017f207061757365640000000000000000000000000000000000000000000000000081525060400191505060405180910390fd5b3373ffffffffffffffffffffffffffffffffffffffff168173ffffffffffffffffffffffffffffffffffffffff16141515156112f1576040517f08c379a000000000000000000000000000000000000000000000000000000000815260040180806020018281038252603a8152602001807f4c6963656e73654f776e6572736869702e617070726f7665416c6c28293a206e81526020017f6577206f776e65722063616e277420626520796f757273656c6600000000000081525060400191505060405180910390fd5b600073ffffffffffffffffffffffffffffffffffffffff168173ffffffffffffffffffffffffffffffffffffffff16141515156113bc576040517f08c379a00000000000000000000000000000000000000000000000000000000081526004018080602001828103825260398152602001807f4c6963656e73654f776e6572736869702e617070726f7665416c6c28293a206e81526020017f6577206f776e6572206d757374206265206e6f6e2d7a65726f0000000000000081525060400191505060405180910390fd5b6001600560003373ffffffffffffffffffffffffffffffffffffffff1673ffffffffffffffffffffffffffffffffffffffff16815260200190815260200160002060008373ffffffffffffffffffffffffffffffffffffffff1673ffffffffffffffffffffffffffffffffffffffff16815260200190815260200160002060006101000a81548160ff0219169083151502179055508073ffffffffffffffffffffffffffffffffffffffff163373ffffffffffffffffffffffffffffffffffffffff167f17307eab39ab6107e8899845ad3d59bd9653f200f220920489ca2b5937696c316001604051808215151515815260200191505060405180910390a350565b60606040805190810160405280600381526020017f556a6f0000000000000000000000000000000000000000000000000000000000815250905090565b60006004600083815260200190815260200160002060009054906101000a900473ffffffffffffffffffffffffffffffffffffffff169050919050565b600060149054906101000a900460ff161515156115e3576040517f08c379a00000000000000000000000000000000000000000000000000000000081526004018080602001828103825260278152602001807f43616e277420646f20746861742069662074686520636f6e747261637420697381526020017f207061757365640000000000000000000000000000000000000000000000000081525060400191505060405180910390fd5b803373ffffffffffffffffffffffffffffffffffffffff1661160482612550565b73ffffffffffffffffffffffffffffffffffffffff161415156116db576040517f08c379a00000000000000000000000000000000000000000000000000000000081526004018080602001828103825260488152602001807f4c6963656e73654f776e6572736869702e6f6e6c794f776e65724f6628293a2081526020017f6f6e6c7920746865206f776e6572206f66207468617420746f6b656e2063616e81526020017f20646f207468617400000000000000000000000000000000000000000000000081525060600191505060405180910390fd5b60006116e683612550565b90508073ffffffffffffffffffffffffffffffffffffffff168473ffffffffffffffffffffffffffffffffffffffff16141515156117d8576040517f08c379a00000000000000000000000000000000000000000000000000000000081526004018080602001828103825260468152602001807f4c6963656e73654f776e6572736869702e617070726f766528293a206e65772081526020017f6f776e6572206d75737420626520646966666572656e742066726f6d206f6c6481526020017f206f776e6572000000000000000000000000000000000000000000000000000081525060600191505060405180910390fd5b600073ffffffffffffffffffffffffffffffffffffffff166117f9846114fb565b73ffffffffffffffffffffffffffffffffffffffff161415806118495750600073ffffffffffffffffffffffffffffffffffffffff168473ffffffffffffffffffffffffffffffffffffffff1614155b156118fc57836004600085815260200190815260200160002060006101000a81548173ffffffffffffffffffffffffffffffffffffffff021916908373ffffffffffffffffffffffffffffffffffffffff160217905550828473ffffffffffffffffffffffffffffffffffffffff168273ffffffffffffffffffffffffffffffffffffffff167f8c5be1e5ebec7d5bd14f71427d1e84f3dd0314c0f7b2291e5b200ac8c7c3b92560405160405180910390a45b50505050565b60006001905090565b6000600254905090565b600160009054906101000a900473ffffffffffffffffffffffffffffffffffffffff1681565b611943612a47565b15156119b7576040517f08c379a00000000000000000000000000000000000000000000000000000000081526004018080602001828103825260208152602001807f4f776e61626c653a2063616c6c6572206973206e6f7420746865206f776e657281525060200191505060405180910390fd5b8181600891906119c8929190614aff565b505050565b600060149054906101000a900460ff16151515611a78576040517f08c379a00000000000000000000000000000000000000000000000000000000081526004018080602001828103825260278152602001807f43616e277420646f20746861742069662074686520636f6e747261637420697381526020017f207061757365640000000000000000000000000000000000000000000000000081525060400191505060405180910390fd5b611a8181613726565b1515611b41576040517f08c379a000000000000000000000000000000000000000000000000000000000815260040180806020018281038252604c8152602001807f4c6963656e73654f776e6572736869702e7472616e7366657246726f6d28293a81526020017f20796f7520617265206e6f7420617070726f76656420746f207472616e73666581526020017f72207468617420746f6b656e000000000000000000000000000000000000000081525060600191505060405180910390fd5b8273ffffffffffffffffffffffffffffffffffffffff16611b6182612550565b73ffffffffffffffffffffffffffffffffffffffff16141515611c38576040517f08c379a000000000000000000000000000000000000000000000000000000000815260040180806020018281038252604e8152602001807f4c6963656e73654f776e6572736869702e7472616e7366657246726f6d28293a81526020017f202766726f6d27206d757374206265207468652063757272656e74206f776e6581526020017f72206f662074686520746f6b656e00000000000000000000000000000000000081525060600191505060405180910390fd5b611c4b611c4482612550565b8383613790565b505050565b6000611c5b8361265d565b82101515611cf7576040517f08c379a00000000000000000000000000000000000000000000000000000000081526004018080602001828103825260408152602001807f4c6963656e73654f776e6572736869702e746f6b656e4f664f776e657242794981526020017f6e64657828293a20746f6b656e20696e646578206f7574206f662072616e676581525060400191505060405180910390fd5b600660008473ffffffffffffffffffffffffffffffffffffffff1673ffffffffffffffffffffffffffffffffffffffff16815260200190815260200160002082815481101515611d4357fe5b9060005260206000200154905092915050565b611d5e612a47565b1515611dd2576040517f08c379a00000000000000000000000000000000000000000000000000000000081526004018080602001828103825260208152602001807f4f776e61626c653a2063616c6c6572206973206e6f7420746865206f776e657281525060200191505060405180910390fd5b600060149054906101000a900460ff161515611e7c576040517f08c379a000000000000000000000000000000000000000000000000000000000815260040180806020018281038252602b8152602001807f43616e277420646f20746861742069662074686520636f6e747261637420697381526020017f206e6f742070617573656400000000000000000000000000000000000000000081525060400191505060405180910390fd5b60008060146101000a81548160ff0219169083151502179055507f7805862f689e2f13df9f062ff482ad3ad112aca9e0847911ed832e158c525b3360405160405180910390a1565b600160009054906101000a900473ffffffffffffffffffffffffffffffffffffffff1673ffffffffffffffffffffffffffffffffffffffff163373ffffffffffffffffffffffffffffffffffffffff16141515611f89576040517f08c379a000000000000000000000000000000000000000000000000000000000815260040180806020018281038252601f8152602001807f6f6e6c792073616c65436f6e74726f6c6c65722063616e20646f20746861740081525060200191505060405180910390fd5b600073ffffffffffffffffffffffffffffffffffffffff168273ffffffffffffffffffffffffffffffffffffffff1614151515612054576040517f08c379a00000000000000000000000000000000000000000000000000000000081526004018080602001828103825260378152602001807f4c6963656e73654f776e6572736869702e5f6d696e7428293a2027746f27206181526020017f646472657373206d757374206265206e6f6e2d7a65726f00000000000000000081525060400191505060405180910390fd5b61205e8282613aee565b808273ffffffffffffffffffffffffffffffffffffffff16600073ffffffffffffffffffffffffffffffffffffffff167fddf252ad1be2c89b69c2b068fc378daa952ba7f163c4a11628f55a4df523b3ef60405160405180910390a45050565b600060149054906101000a900460ff16151515612169576040517f08c379a00000000000000000000000000000000000000000000000000000000081526004018080602001828103825260278152602001807f43616e277420646f20746861742069662074686520636f6e747261637420697381526020017f207061757365640000000000000000000000000000000000000000000000000081525060400191505060405180910390fd5b6121858383836020604051908101604052806000815250612fbc565b505050565b600061219461190b565b82101515612230576040517f08c379a00000000000000000000000000000000000000000000000000000000081526004018080602001828103825260398152602001807f4c6963656e73654f776e6572736869702e746f6b656e4279496e64657828293a81526020017f20746f6b656e20696e646578206f7574206f662072616e67650000000000000081525060400191505060405180910390fd5b819050919050565b600060149054906101000a900460ff161515156122e3576040517f08c379a00000000000000000000000000000000000000000000000000000000081526004018080602001828103825260278152602001807f43616e277420646f20746861742069662074686520636f6e747261637420697381526020017f207061757365640000000000000000000000000000000000000000000000000081525060400191505060405180910390fd5b3373ffffffffffffffffffffffffffffffffffffffff168173ffffffffffffffffffffffffffffffffffffffff16141515156123ad576040517f08c379a000000000000000000000000000000000000000000000000000000000815260040180806020018281038252603d8152602001807f4c6963656e73654f776e6572736869702e646973617070726f7665416c6c282981526020017f3a206e6577206f776e65722063616e277420626520796f757273656c6600000081525060400191505060405180910390fd5b600560003373ffffffffffffffffffffffffffffffffffffffff1673ffffffffffffffffffffffffffffffffffffffff16815260200190815260200160002060008273ffffffffffffffffffffffffffffffffffffffff1673ffffffffffffffffffffffffffffffffffffffff16815260200190815260200160002060006101000a81549060ff02191690558073ffffffffffffffffffffffffffffffffffffffff163373ffffffffffffffffffffffffffffffffffffffff167f17307eab39ab6107e8899845ad3d59bd9653f200f220920489ca2b5937696c316000604051808215151515815260200191505060405180910390a350565b6060600660008373ffffffffffffffffffffffffffffffffffffffff1673ffffffffffffffffffffffffffffffffffffffff16815260200190815260200160002080548060200260200160405190810160405280929190818152602001828054801561253157602002820191906000526020600020905b81548152602001906001019080831161251d575b50505050509050919050565b600060149054906101000a900460ff1681565b6000806003600084815260200190815260200160002060009054906101000a900473ffffffffffffffffffffffffffffffffffffffff169050600073ffffffffffffffffffffffffffffffffffffffff168173ffffffffffffffffffffffffffffffffffffffff1614151515612654576040517f08c379a00000000000000000000000000000000000000000000000000000000081526004018080602001828103825260328152602001807f4c6963656e73654f776e6572736869702e6f776e65724f6628293a206f776e6581526020017f72206d757374206265206e6f6e2d7a65726f000000000000000000000000000081525060400191505060405180910390fd5b80915050919050565b60008073ffffffffffffffffffffffffffffffffffffffff168273ffffffffffffffffffffffffffffffffffffffff1614151515612729576040517f08c379a00000000000000000000000000000000000000000000000000000000081526004018080602001828103825260348152602001807f4c6963656e73654f776e6572736869702e62616c616e63654f6628293a206f7781526020017f6e6572206d757374206265206e6f6e2d7a65726f00000000000000000000000081525060400191505060405180910390fd5b600660008373ffffffffffffffffffffffffffffffffffffffff1673ffffffffffffffffffffffffffffffffffffffff168152602001908152602001600020805490509050919050565b61277b612a47565b15156127ef576040517f08c379a00000000000000000000000000000000000000000000000000000000081526004018080602001828103825260208152602001807f4f776e61626c653a2063616c6c6572206973206e6f7420746865206f776e657281525060200191505060405180910390fd5b600073ffffffffffffffffffffffffffffffffffffffff166000809054906101000a900473ffffffffffffffffffffffffffffffffffffffff1673ffffffffffffffffffffffffffffffffffffffff167f8be0079c531659141344cd1fd0a4f28419497f9722a3daafe3b4186f6b6457e060405160405180910390a360008060006101000a81548173ffffffffffffffffffffffffffffffffffffffff021916908373ffffffffffffffffffffffffffffffffffffffff160217905550565b6128b6612a47565b151561292a576040517f08c379a00000000000000000000000000000000000000000000000000000000081526004018080602001828103825260208152602001807f4f776e61626c653a2063616c6c6572206973206e6f7420746865206f776e657281525060200191505060405180910390fd5b600060149054906101000a900460ff161515156129d5576040517f08c379a00000000000000000000000000000000000000000000000000000000081526004018080602001828103825260278152602001807f43616e277420646f20746861742069662074686520636f6e747261637420697381526020017f207061757365640000000000000000000000000000000000000000000000000081525060400191505060405180910390fd5b6001600060146101000a81548160ff0219169083151502179055507f6985a02210a168e66602d3235cb6db0e70f92b3ba4d376a33c0f3d9434bff62560405160405180910390a1565b60008060009054906101000a900473ffffffffffffffffffffffffffffffffffffffff16905090565b60008060009054906101000a900473ffffffffffffffffffffffffffffffffffffffff1673ffffffffffffffffffffffffffffffffffffffff163373ffffffffffffffffffffffffffffffffffffffff1614905090565b60606040805190810160405280600381526020017f554a4f0000000000000000000000000000000000000000000000000000000000815250905090565b600060149054906101000a900460ff16151515612b86576040517f08c379a00000000000000000000000000000000000000000000000000000000081526004018080602001828103825260278152602001807f43616e277420646f20746861742069662074686520636f6e747261637420697381526020017f207061757365640000000000000000000000000000000000000000000000000081525060400191505060405180910390fd5b8015612b9a57612b958261117c565b612ba4565b612ba382612238565b5b5050565b6040805190810160405280600381526020017f556a6f000000000000000000000000000000000000000000000000000000000081525081565b600060149054906101000a900460ff16151515612c8c576040517f08c379a00000000000000000000000000000000000000000000000000000000081526004018080602001828103825260278152602001807f43616e277420646f20746861742069662074686520636f6e747261637420697381526020017f207061757365640000000000000000000000000000000000000000000000000081525060400191505060405180910390fd5b803373ffffffffffffffffffffffffffffffffffffffff16612cad82612550565b73ffffffffffffffffffffffffffffffffffffffff16141515612d84576040517f08c379a00000000000000000000000000000000000000000000000000000000081526004018080602001828103825260488152602001807f4c6963656e73654f776e6572736869702e6f6e6c794f776e65724f6628293a2081526020017f6f6e6c7920746865206f776e6572206f66207468617420746f6b656e2063616e81526020017f20646f207468617400000000000000000000000000000000000000000000000081525060600191505060405180910390fd5b612d8f338484613790565b505050565b600060149054906101000a900460ff16151515612e3f576040517f08c379a00000000000000000000000000000000000000000000000000000000081526004018080602001828103825260278152602001807f43616e277420646f20746861742069662074686520636f6e747261637420697381526020017f207061757365640000000000000000000000000000000000000000000000000081525060400191505060405180910390fd5b612e4881613726565b1515612f08576040517f08c379a00000000000000000000000000000000000000000000000000000000081526004018080602001828103825260488152602001807f4c6963656e73654f776e6572736869702e74616b654f776e657273686970282981526020017f3a20796f7520617265206e6f7420617070726f76656420746f2074616b65206f81526020017f776e65727368697000000000000000000000000000000000000000000000000081525060600191505060405180910390fd5b612f1b612f1482612550565b3383613790565b50565b60088054600181600116156101000203166002900480601f016020809104026020016040519081016040528092919081815260200182805460018160011615610100020316600290048015612fb45780601f10612f8957610100808354040283529160200191612fb4565b820191906000526020600020905b815481529060010190602001808311612f9757829003601f168201915b505050505081565b600060149054906101000a900460ff16151515613067576040517f08c379a00000000000000000000000000000000000000000000000000000000081526004018080602001828103825260278152602001807f43616e277420646f20746861742069662074686520636f6e747261637420697381526020017f207061757365640000000000000000000000000000000000000000000000000081525060400191505060405180910390fd5b600073ffffffffffffffffffffffffffffffffffffffff168373ffffffffffffffffffffffffffffffffffffffff1614151515613158576040517f08c379a00000000000000000000000000000000000000000000000000000000081526004018080602001828103825260428152602001807f4c6963656e73654f776e6572736869702e736166655472616e7366657246726f81526020017f6d28293a2027746f272061646472657373206d757374206265206e6f6e2d7a6581526020017f726f00000000000000000000000000000000000000000000000000000000000081525060600191505060405180910390fd5b6131638484846119cd565b61316c83613cec565b156134565760008373ffffffffffffffffffffffffffffffffffffffff1663150b7a0261c350338887876040518663ffffffff167c0100000000000000000000000000000000000000000000000000000000028152600401808573ffffffffffffffffffffffffffffffffffffffff1673ffffffffffffffffffffffffffffffffffffffff1681526020018473ffffffffffffffffffffffffffffffffffffffff1673ffffffffffffffffffffffffffffffffffffffff16815260200183815260200180602001828103825283818151815260200191508051906020019080838360005b8381101561326b578082015181840152602081019050613250565b50505050905090810190601f1680156132985780820380516001836020036101000a031916815260200191505b5095505050505050602060405180830381600088803b1580156132ba57600080fd5b5087f11580156132ce573d6000803e3d6000fd5b50505050506040513d60208110156132e557600080fd5b8101908080519060200190929190505050905060405180807f6f6e455243373231526563656976656428616464726573732c6164647265737381526020017f2c75696e743235362c6279746573290000000000000000000000000000000000815250602f01905060405180910390207bffffffffffffffffffffffffffffffffffffffffffffffffffffffff1916817bffffffffffffffffffffffffffffffffffffffffffffffffffffffff1916141515613454576040517f08c379a000000000000000000000000000000000000000000000000000000000815260040180806020018281038252604c8152602001807f4c6963656e73654f776e6572736869702e736166655472616e7366657246726f81526020017f6d28293a2062616420726573706f6e73652066726f6d2045524337323120746f81526020017f6b656e207265636569766572000000000000000000000000000000000000000081525060600191505060405180910390fd5b505b50505050565b606061350a60088054600181600116156101000203166002900480601f0160208091040260200160405190810160405280929190818152602001828054600181600116156101000203166002900480156134f75780601f106134cc576101008083540402835291602001916134f7565b820191906000526020600020905b8154815290600101906020018083116134da57829003601f168201915b505050505061350584613cff565b613e58565b9050919050565b6000600560008473ffffffffffffffffffffffffffffffffffffffff1673ffffffffffffffffffffffffffffffffffffffff16815260200190815260200160002060008373ffffffffffffffffffffffffffffffffffffffff1673ffffffffffffffffffffffffffffffffffffffff16815260200190815260200160002060009054906101000a900460ff16905092915050565b6135ad612a47565b1515613621576040517f08c379a00000000000000000000000000000000000000000000000000000000081526004018080602001828103825260208152602001807f4f776e61626c653a2063616c6c6572206973206e6f7420746865206f776e657281525060200191505060405180910390fd5b80600160006101000a81548173ffffffffffffffffffffffffffffffffffffffff021916908373ffffffffffffffffffffffffffffffffffffffff16021790555050565b61366d612a47565b15156136e1576040517f08c379a00000000000000000000000000000000000000000000000000000000081526004018080602001828103825260208152602001807f4f776e61626c653a2063616c6c6572206973206e6f7420746865206f776e657281525060200191505060405180910390fd5b6136ea81613e9f565b50565b6040805190810160405280600381526020017f554a4f000000000000000000000000000000000000000000000000000000000081525081565b60003373ffffffffffffffffffffffffffffffffffffffff1661374883612550565b73ffffffffffffffffffffffffffffffffffffffff161480613770575061376f3383614028565b5b80613789575061378861378283612550565b33613511565b5b9050919050565b600073ffffffffffffffffffffffffffffffffffffffff168273ffffffffffffffffffffffffffffffffffffffff1614151515613881576040517f08c379a000000000000000000000000000000000000000000000000000000000815260040180806020018281038252604b8152602001807f4c6963656e73654f776e6572736869702e5f636c656172417070726f76616c4181526020017f6e645472616e7366657228293a2027746f272061646472657373206d7573742081526020017f6265206e6f6e2d7a65726f00000000000000000000000000000000000000000081525060600191505060405180910390fd5b61388a81612550565b73ffffffffffffffffffffffffffffffffffffffff168273ffffffffffffffffffffffffffffffffffffffff1614151515613979576040517f08c379a00000000000000000000000000000000000000000000000000000000081526004018080602001828103825260608152602001807f4c6963656e73654f776e6572736869702e5f636c656172417070726f76616c4181526020017f6e645472616e7366657228293a2027746f272061646472657373206d7573742081526020017f6e6f742062652074686520746f6b656e27732063757272656e74206f776e657281525060600191505060405180910390fd5b8273ffffffffffffffffffffffffffffffffffffffff1661399982612550565b73ffffffffffffffffffffffffffffffffffffffff16141515613a70576040517f08c379a000000000000000000000000000000000000000000000000000000000815260040180806020018281038252605e8152602001807f4c6963656e73654f776e6572736869702e5f636c656172417070726f76616c4181526020017f6e645472616e7366657228293a202766726f6d272061646472657373206d757381526020017f742062652074686520746f6b656e27732063757272656e74206f776e6572000081525060600191505060405180910390fd5b613a7a8382614069565b613a848382614213565b613a8e8282613aee565b808273ffffffffffffffffffffffffffffffffffffffff168473ffffffffffffffffffffffffffffffffffffffff167fddf252ad1be2c89b69c2b068fc378daa952ba7f163c4a11628f55a4df523b3ef60405160405180910390a4505050565b600073ffffffffffffffffffffffffffffffffffffffff166003600083815260200190815260200160002060009054906101000a900473ffffffffffffffffffffffffffffffffffffffff1673ffffffffffffffffffffffffffffffffffffffff16141515613beb576040517f08c379a00000000000000000000000000000000000000000000000000000000081526004018080602001828103825260358152602001807f4c6963656e73654f776e6572736869702e5f616464546f6b656e28293a20746f81526020017f6b656e20494420616c726561647920657869737473000000000000000000000081525060400191505060405180910390fd5b816003600083815260200190815260200160002060006101000a81548173ffffffffffffffffffffffffffffffffffffffff021916908373ffffffffffffffffffffffffffffffffffffffff1602179055506000613c488361265d565b9050600660008473ffffffffffffffffffffffffffffffffffffffff1673ffffffffffffffffffffffffffffffffffffffff168152602001908152602001600020829080600181540180825580915050906001820390600052602060002001600090919290919091505550806007600084815260200190815260200160002081905550613ce1600160025461454e90919063ffffffff16565b600281905550505050565b600080823b905060008111915050919050565b60606000821415613d47576040805190810160405280600181526020017f30000000000000000000000000000000000000000000000000000000000000008152509050613e53565b600082905060005b600082141515613d75578080600101915050600a82811515613d6d57fe5b049150613d4f565b6060816040519080825280601f01601f191660200182016040528015613daa5781602001600182028038833980820191505090505b50905060006001830390505b600086141515613e4b57600a86811515613dcc57fe5b066030017f010000000000000000000000000000000000000000000000000000000000000002828280600190039350815181101515613e0757fe5b9060200101907effffffffffffffffffffffffffffffffffffffffffffffffffffffffffffff1916908160001a905350600a86811515613e4357fe5b049550613db6565b819450505050505b919050565b6060613e9783836020604051908101604052806000815250602060405190810160405280600081525060206040519081016040528060008152506145d8565b905092915050565b600073ffffffffffffffffffffffffffffffffffffffff168173ffffffffffffffffffffffffffffffffffffffff1614151515613f6a576040517f08c379a00000000000000000000000000000000000000000000000000000000081526004018080602001828103825260268152602001807f4f776e61626c653a206e6577206f776e657220697320746865207a65726f206181526020017f646472657373000000000000000000000000000000000000000000000000000081525060400191505060405180910390fd5b8073ffffffffffffffffffffffffffffffffffffffff166000809054906101000a900473ffffffffffffffffffffffffffffffffffffffff1673ffffffffffffffffffffffffffffffffffffffff167f8be0079c531659141344cd1fd0a4f28419497f9722a3daafe3b4186f6b6457e060405160405180910390a3806000806101000a81548173ffffffffffffffffffffffffffffffffffffffff021916908373ffffffffffffffffffffffffffffffffffffffff16021790555050565b60008273ffffffffffffffffffffffffffffffffffffffff1661404a836114fb565b73ffffffffffffffffffffffffffffffffffffffff1614905092915050565b8173ffffffffffffffffffffffffffffffffffffffff1661408982612550565b73ffffffffffffffffffffffffffffffffffffffff16141515614160576040517f08c379a00000000000000000000000000000000000000000000000000000000081526004018080602001828103825260548152602001807f4c6963656e73654f776e6572736869702e5f636c656172417070726f76616c2881526020017f293a20276f776e6572272061646472657373206d75737420626520746865207481526020017f6f6b656e27732063757272656e74206f776e657200000000000000000000000081525060600191505060405180910390fd5b60006004600083815260200190815260200160002060006101000a81548173ffffffffffffffffffffffffffffffffffffffff021916908373ffffffffffffffffffffffffffffffffffffffff16021790555080600073ffffffffffffffffffffffffffffffffffffffff168373ffffffffffffffffffffffffffffffffffffffff167f8c5be1e5ebec7d5bd14f71427d1e84f3dd0314c0f7b2291e5b200ac8c7c3b92560405160405180910390a45050565b8173ffffffffffffffffffffffffffffffffffffffff1661423382612550565b73ffffffffffffffffffffffffffffffffffffffff1614151561430a576040517f08c379a00000000000000000000000000000000000000000000000000000000081526004018080602001828103825260518152602001807f4c6963656e73654f776e6572736869702e5f72656d6f7665546f6b656e28293a81526020017f202766726f6d272061646472657373206d7573742062652074686520746f6b6581526020017f6e27732063757272656e74206f776e657200000000000000000000000000000081525060600191505060405180910390fd5b600060076000838152602001908152602001600020549050600061434060016143328661265d565b6149f390919063ffffffff16565b90506000600660008673ffffffffffffffffffffffffffffffffffffffff1673ffffffffffffffffffffffffffffffffffffffff1681526020019081526020016000208281548110151561439057fe5b9060005260206000200154905060006003600086815260200190815260200160002060006101000a81548173ffffffffffffffffffffffffffffffffffffffff021916908373ffffffffffffffffffffffffffffffffffffffff16021790555080600660008773ffffffffffffffffffffffffffffffffffffffff1673ffffffffffffffffffffffffffffffffffffffff1681526020019081526020016000208481548110151561443d57fe5b90600052602060002001819055506000600660008773ffffffffffffffffffffffffffffffffffffffff1673ffffffffffffffffffffffffffffffffffffffff1681526020019081526020016000208381548110151561449957fe5b9060005260206000200181905550600660008673ffffffffffffffffffffffffffffffffffffffff1673ffffffffffffffffffffffffffffffffffffffff1681526020019081526020016000208054809190600190036144f99190614b7f565b506000600760008681526020019081526020016000208190555082600760008381526020019081526020016000208190555061454160016002546149f390919063ffffffff16565b6002819055505050505050565b60008082840190508381101515156145ce576040517f08c379a000000000000000000000000000000000000000000000000000000000815260040180806020018281038252601b8152602001807f536166654d6174683a206164646974696f6e206f766572666c6f77000000000081525060200191505060405180910390fd5b8091505092915050565b6060808690506060869050606086905060608690506060869050606081518351855187518951010101016040519080825280601f01601f1916602001820160405280156146345781602001600182028038833980820191505090505b509050606081905060008090506000809050600090505b88518110156146fe57888181518110151561466257fe5b9060200101517f010000000000000000000000000000000000000000000000000000000000000090047f01000000000000000000000000000000000000000000000000000000000000000283838060010194508151811015156146c157fe5b9060200101907effffffffffffffffffffffffffffffffffffffffffffffffffffffffffffff1916908160001a905350808060010191505061464b565b600090505b87518110156147b657878181518110151561471a57fe5b9060200101517f010000000000000000000000000000000000000000000000000000000000000090047f010000000000000000000000000000000000000000000000000000000000000002838380600101945081518110151561477957fe5b9060200101907effffffffffffffffffffffffffffffffffffffffffffffffffffffffffffff1916908160001a9053508080600101915050614703565b600090505b865181101561486e5786818151811015156147d257fe5b9060200101517f010000000000000000000000000000000000000000000000000000000000000090047f010000000000000000000000000000000000000000000000000000000000000002838380600101945081518110151561483157fe5b9060200101907effffffffffffffffffffffffffffffffffffffffffffffffffffffffffffff1916908160001a90535080806001019150506147bb565b600090505b855181101561492657858181518110151561488a57fe5b9060200101517f010000000000000000000000000000000000000000000000000000000000000090047f01000000000000000000000000000000000000000000000000000000000000000283838060010194508151811015156148e957fe5b9060200101907effffffffffffffffffffffffffffffffffffffffffffffffffffffffffffff1916908160001a9053508080600101915050614873565b600090505b84518110156149de57848181518110151561494257fe5b9060200101517f010000000000000000000000000000000000000000000000000000000000000090047f01000000000000000000000000000000000000000000000000000000000000000283838060010194508151811015156149a157fe5b9060200101907effffffffffffffffffffffffffffffffffffffffffffffffffffffffffffff1916908160001a905350808060010191505061492b565b82995050505050505050505095945050505050565b6000614a3583836040805190810160405280601e81526020017f536166654d6174683a207375627472616374696f6e206f766572666c6f770000815250614a3d565b905092915050565b60008383111582901515614aec576040517f08c379a00000000000000000000000000000000000000000000000000000000081526004018080602001828103825283818151815260200191508051906020019080838360005b83811015614ab1578082015181840152602081019050614a96565b50505050905090810190601f168015614ade5780820380516001836020036101000a031916815260200191505b509250505060405180910390fd5b5060008385039050809150509392505050565b828054600181600116156101000203166002900490600052602060002090601f016020900481019282601f10614b4057803560ff1916838001178555614b6e565b82800160010185558215614b6e579182015b82811115614b6d578235825591602001919060010190614b52565b5b509050614b7b9190614bab565b5090565b815481835581811115614ba657818360005260206000209182019101614ba59190614bab565b5b505050565b614bcd91905b80821115614bc9576000816000905550600101614bb1565b5090565b9056fea165627a7a72305820942cbe74415fee8fea200fb10d5830fe4766597644ff4cd4202cdf5f83c34f850029",
  "source": "pragma solidity 0.5.0;\n\nimport \"./LicenseInventory.sol\";\nimport \"./DAITransactor.sol\";\nimport \"./lifecycle/Pausable.sol\";\nimport \"./interfaces/ERC721.sol\";\nimport \"./interfaces/ERC721Metadata.sol\";\nimport \"./interfaces/ERC721Enumerable.sol\";\nimport \"./interfaces/ERC165.sol\";\nimport \"./interfaces/ERC721Receiver.sol\";\nimport \"./strings/Strings.sol\";\nimport \"./ownership/Ownable.sol\";\n\n\ncontract LicenseOwnership is Ownable, Pausable, ERC165, ERC721, ERC721Metadata, ERC721Enumerable {\n  using SafeMath for uint256;\n\n  address public saleController;\n  function setSaleController(address _saleController) onlyOwner public {\n    saleController = _saleController;\n  }\n\n  // Total amount of tokens\n  uint256 private totalTokens;\n\n  // Mapping from token ID to owner\n  mapping (uint256 => address) private tokenOwner;\n\n  // Mapping from token ID to approved address\n  mapping (uint256 => address) private tokenApprovals;\n\n  // Mapping from owner address to operator address to approval\n  mapping (address => mapping (address => bool)) private operatorApprovals;\n\n  // Mapping from owner to list of owned token IDs\n  mapping (address => uint256[]) private ownedTokens;\n\n  // Mapping from token ID to index of the owner tokens list\n  mapping(uint256 => uint256) private ownedTokensIndex;\n\n  /*** Constants ***/\n  // Configure these for your own deployment\n  string public constant NAME = \"Ujo\";\n  string public constant SYMBOL = \"UJO\";\n  string public tokenMetadataBaseURI = \"http://localhost\";\n\n  /**\n   * @notice token's name\n   */\n  function name() external view returns (string memory) {\n    return NAME;\n  }\n\n  /**\n   * @notice symbols's name\n   */\n  function symbol() external view returns (string memory) {\n    return SYMBOL;\n  }\n\n  function implementsERC721() external pure returns (bool) {\n    return true;\n  }\n\n  function tokenURI(uint256 _tokenId)\n    external\n    view\n    returns (string memory infoUrl)\n  {\n    return Strings.strConcat(\n      tokenMetadataBaseURI,\n      Strings.uint2str(_tokenId));\n  }\n\n  function supportsInterface(\n    bytes4 interfaceID) // solium-disable-line ujo/underscore-function-arguments\n    external view returns (bool)\n  {\n    return\n      interfaceID == this.supportsInterface.selector || // ERC165\n      interfaceID == 0x5b5e139f || // ERC721Metadata\n      interfaceID == 0x6466353c || // ERC-721 on 3/7/2018\n      interfaceID == 0x780e9d63; // ERC721Enumerable\n  }\n\n  function setTokenMetadataBaseURI(string calldata _newBaseURI) external onlyOwner {\n    tokenMetadataBaseURI = _newBaseURI;\n  }\n\n  /**\n  * @notice Guarantees msg.sender is owner of the given token\n  * @param _tokenId uint256 ID of the token to validate its ownership belongs to msg.sender\n  */\n  modifier onlyOwnerOf(uint256 _tokenId) {\n    require(ownerOf(_tokenId) == msg.sender, \"LicenseOwnership.onlyOwnerOf(): only the owner of that token can do that\");\n    _;\n  }\n\n  /**\n  * @notice Gets the total amount of tokens stored by the contract\n  * @return uint256 representing the total amount of tokens\n  */\n  function totalSupply() public view returns (uint256) {\n    return totalTokens;\n  }\n\n  /**\n  * @notice Enumerate valid NFTs\n  * @dev Our Licenses are kept in an array and each new License-token is just\n  * the next element in the array. This method is required for ERC721Enumerable\n  * which may support more complicated storage schemes. However, in our case the\n  * _index is the tokenId\n  * @param _index A counter less than `totalSupply()`\n  * @return The token identifier for the `_index`th NFT\n  */\n  function tokenByIndex(uint256 _index) external view returns (uint256) {\n    require(_index < totalSupply(), \"LicenseOwnership.tokenByIndex(): token index out of range\");\n    return _index;\n  }\n\n  /**\n  * @notice Gets the balance of the specified address\n  * @param _owner address to query the balance of\n  * @return uint256 representing the amount owned by the passed address\n  */\n  function balanceOf(address _owner) public view returns (uint256) {\n    require(_owner != address(0), \"LicenseOwnership.balanceOf(): owner must be non-zero\");\n    return ownedTokens[_owner].length;\n  }\n\n  /**\n  * @notice Gets the list of tokens owned by a given address\n  * @param _owner address to query the tokens of\n  * @return uint256[] representing the list of tokens owned by the passed address\n  */\n  function tokensOf(address _owner) public view returns (uint256[] memory) {\n    return ownedTokens[_owner];\n  }\n\n  /**\n  * @notice Enumerate NFTs assigned to an owner\n  * @dev Throws if `_index` >= `balanceOf(_owner)` or if\n  *  `_owner` is the zero address, representing invalid NFTs.\n  * @param _owner An address where we are interested in NFTs owned by them\n  * @param _index A counter less than `balanceOf(_owner)`\n  * @return The token identifier for the `_index`th NFT assigned to `_owner`,\n  */\n  function tokenOfOwnerByIndex(address _owner, uint256 _index)\n    external\n    view\n    returns (uint256 _tokenId)\n  {\n    require(_index < balanceOf(_owner), \"LicenseOwnership.tokenOfOwnerByIndex(): token index out of range\");\n    return ownedTokens[_owner][_index];\n  }\n\n  /**\n  * @notice Gets the owner of the specified token ID\n  * @param _tokenId uint256 ID of the token to query the owner of\n  * @return owner address currently marked as the owner of the given token ID\n  */\n  function ownerOf(uint256 _tokenId) public view returns (address) {\n    address owner = tokenOwner[_tokenId];\n    require(owner != address(0), \"LicenseOwnership.ownerOf(): owner must be non-zero\");\n    return owner;\n  }\n\n  /**\n   * @notice Gets the approved address to take ownership of a given token ID\n   * @param _tokenId uint256 ID of the token to query the approval of\n   * @return address currently approved to take ownership of the given token ID\n   */\n  function getApproved(uint256 _tokenId) public view returns (address) {\n    return tokenApprovals[_tokenId];\n  }\n\n  /**\n   * @notice Tells whether the msg.sender is approved to transfer the given token ID or not\n   * Checks both for specific approval and operator approval\n   * @param _tokenId uint256 ID of the token to query the approval of\n   * @return bool whether transfer by msg.sender is approved for the given token ID or not\n   */\n  function isSenderApprovedFor(uint256 _tokenId) internal view returns (bool) {\n    return\n      ownerOf(_tokenId) == msg.sender ||\n      isSpecificallyApprovedFor(msg.sender, _tokenId) ||\n      isApprovedForAll(ownerOf(_tokenId), msg.sender);\n  }\n\n  /**\n   * @notice Tells whether the msg.sender is approved for the given token ID or not\n   * @param _asker address of asking for approval\n   * @param _tokenId uint256 ID of the token to query the approval of\n   * @return bool whether the msg.sender is approved for the given token ID or not\n   */\n  function isSpecificallyApprovedFor(address _asker, uint256 _tokenId) internal view returns (bool) {\n    return getApproved(_tokenId) == _asker;\n  }\n\n  /**\n   * @notice Tells whether an operator is approved by a given owner\n   * @param _owner owner address which you want to query the approval of\n   * @param _operator operator address which you want to query the approval of\n   * @return bool whether the given operator is approved by the given owner\n   */\n  function isApprovedForAll(address _owner, address _operator) public view returns (bool)\n  {\n    return operatorApprovals[_owner][_operator];\n  }\n\n  /**\n  * @notice Transfers the ownership of a given token ID to another address\n  * @param _to address to receive the ownership of the given token ID\n  * @param _tokenId uint256 ID of the token to be transferred\n  */\n  function transfer(address _to, uint256 _tokenId)\n    external\n    whenNotPaused\n    onlyOwnerOf(_tokenId)\n  {\n    _clearApprovalAndTransfer(msg.sender, _to, _tokenId);\n  }\n\n  /**\n  * @notice Approves another address to claim for the ownership of the given token ID\n  * @param _to address to be approved for the given token ID\n  * @param _tokenId uint256 ID of the token to be approved\n  */\n  function approve(address _to, uint256 _tokenId)\n    external\n    whenNotPaused\n    onlyOwnerOf(_tokenId)\n  {\n    address owner = ownerOf(_tokenId);\n    require(_to != owner, \"LicenseOwnership.approve(): new owner must be different from old owner\");\n    if (getApproved(_tokenId) != address(0x0) || _to != address(0x0)) {\n      tokenApprovals[_tokenId] = _to;\n      emit Approval(owner, _to, _tokenId);\n    }\n  }\n\n  /**\n  * @notice Enable or disable approval for a third party (\"operator\") to manage all your assets\n  * @dev Emits the ApprovalForAll event\n  * @param _to Address to add to the set of authorized operators.\n  * @param _approved True if the operators is approved, false to revoke approval\n  */\n  function setApprovalForAll(address _to, bool _approved)\n    external\n    whenNotPaused\n  {\n    if(_approved) {\n      approveAll(_to);\n    } else {\n      disapproveAll(_to);\n    }\n  }\n\n  /**\n  * @notice Approves another address to claim for the ownership of any tokens owned by this account\n  * @param _to address to be approved for the given token ID\n  */\n  function approveAll(address _to)\n    public\n    whenNotPaused\n  {\n    require(_to != msg.sender, \"LicenseOwnership.approveAll(): new owner can't be yourself\");\n    require(_to != address(0), \"LicenseOwnership.approveAll(): new owner must be non-zero\");\n    operatorApprovals[msg.sender][_to] = true;\n    emit ApprovalForAll(msg.sender, _to, true);\n  }\n\n  /**\n  * @notice Removes approval for another address to claim for the ownership of any\n  *  tokens owned by this account.\n  * @dev Note that this only removes the operator approval and\n  *  does not clear any independent, specific approvals of token transfers to this address\n  * @param _to address to be disapproved for the given token ID\n  */\n  function disapproveAll(address _to)\n    public\n    whenNotPaused\n  {\n    require(_to != msg.sender, \"LicenseOwnership.disapproveAll(): new owner can't be yourself\");\n    delete operatorApprovals[msg.sender][_to];\n    emit ApprovalForAll(msg.sender, _to, false);\n  }\n\n  /**\n  * @notice Claims the ownership of a given token ID\n  * @param _tokenId uint256 ID of the token being claimed by the msg.sender\n  */\n  function takeOwnership(uint256 _tokenId)\n   external\n   whenNotPaused\n  {\n    require(isSenderApprovedFor(_tokenId), \"LicenseOwnership.takeOwnership(): you are not approved to take ownership\");\n    _clearApprovalAndTransfer(ownerOf(_tokenId), msg.sender, _tokenId);\n  }\n\n  /**\n  * @notice Transfer a token owned by another address, for which the calling address has\n  *  previously been granted transfer approval by the owner.\n  * @param _from The address that owns the token\n  * @param _to The address that will take ownership of the token. Can be any address, including the caller\n  * @param _tokenId The ID of the token to be transferred\n  */\n  function transferFrom(\n    address _from,\n    address _to,\n    uint256 _tokenId\n  )\n    public\n    whenNotPaused\n  {\n    require(isSenderApprovedFor(_tokenId), \"LicenseOwnership.transferFrom(): you are not approved to transfer that token\");\n    require(ownerOf(_tokenId) == _from, \"LicenseOwnership.transferFrom(): 'from' must be the current owner of the token\");\n    _clearApprovalAndTransfer(ownerOf(_tokenId), _to, _tokenId);\n  }\n\n  /**\n  * @notice Transfers the ownership of an NFT from one address to another address\n  * @dev Throws unless `msg.sender` is the current owner, an authorized\n  * operator, or the approved address for this NFT. Throws if `_from` is\n  * not the current owner. Throws if `_to` is the zero address. Throws if\n  * `_tokenId` is not a valid NFT. When transfer is complete, this function\n  * checks if `_to` is a smart contract (code size > 0). If so, it calls\n  * `onERC721Received` on `_to` and throws if the return value is not\n  * `bytes4(keccak256(\"onERC721Received(address,uint256,bytes)\"))`.\n  * @param _from The current owner of the NFT\n  * @param _to The new owner\n  * @param _tokenId The NFT to transfer\n  * @param _data Additional data with no specified format, sent in call to `_to`\n  */\n  function safeTransferFrom(\n    address _from,\n    address _to,\n    uint256 _tokenId,\n    bytes memory _data\n  )\n    public\n    whenNotPaused\n  {\n    require(_to != address(0), \"LicenseOwnership.safeTransferFrom(): 'to' address must be non-zero\");\n    transferFrom(_from, _to, _tokenId);\n    if (_isContract(_to)) {\n      bytes4 tokenReceiverResponse = ERC721Receiver(_to).onERC721Received.gas(50000)(\n        msg.sender, _from, _tokenId, _data\n      );\n      require(tokenReceiverResponse == bytes4(keccak256(\"onERC721Received(address,address,uint256,bytes)\")), \"LicenseOwnership.safeTransferFrom(): bad response from ERC721 token receiver\");\n    }\n  }\n\n  /*\n   * @notice Transfers the ownership of an NFT from one address to another address\n   * @dev This works identically to the other function with an extra data parameter,\n   *  except this function just sets data to \"\"\n   * @param _from The current owner of the NFT\n   * @param _to The new owner\n   * @param _tokenId The NFT to transfer\n  */\n  function safeTransferFrom(\n    address _from,\n    address _to,\n    uint256 _tokenId\n  )\n    external\n    whenNotPaused\n  {\n    safeTransferFrom(_from, _to, _tokenId, \"\");\n  }\n\n  /**\n  * @notice Mint token function\n  * @param _to The address that will own the minted token\n  * @param _tokenId uint256 ID of the token to be minted by the msg.sender\n  */\n  function mint(address _to, uint256 _tokenId) public {\n    require(msg.sender == saleController, \"only saleController can do that\");\n    require(_to != address(0), \"LicenseOwnership._mint(): 'to' address must be non-zero\");\n\n    _addToken(_to, _tokenId);\n    emit Transfer(address(0x0), _to, _tokenId);\n  }\n\n  /**\n  * @notice Internal function to clear current approval and transfer the ownership of a given token ID\n  * @param _from address which you want to send tokens from\n  * @param _to address which you want to transfer the token to\n  * @param _tokenId uint256 ID of the token to be transferred\n  */\n  function _clearApprovalAndTransfer(address _from, address _to, uint256 _tokenId) internal {\n    require(_to != address(0), \"LicenseOwnership._clearApprovalAndTransfer(): 'to' address must be non-zero\");\n    require(_to != ownerOf(_tokenId), \"LicenseOwnership._clearApprovalAndTransfer(): 'to' address must not be the token's current owner\");\n    require(ownerOf(_tokenId) == _from, \"LicenseOwnership._clearApprovalAndTransfer(): 'from' address must be the token's current owner\");\n\n    _clearApproval(_from, _tokenId);\n    _removeToken(_from, _tokenId);\n    _addToken(_to, _tokenId);\n    emit Transfer(_from, _to, _tokenId);\n  }\n\n  /**\n  * @notice Internal function to clear current approval of a given token ID\n  * @param _tokenId uint256 ID of the token to be transferred\n  */\n  function _clearApproval(address _owner, uint256 _tokenId) private {\n    require(ownerOf(_tokenId) == _owner, \"LicenseOwnership._clearApproval(): 'owner' address must be the token's current owner\");\n    tokenApprovals[_tokenId] = address(0x0);\n    emit Approval(_owner, address(0x0), _tokenId);\n  }\n\n  /**\n  * @notice Internal function to add a token ID to the list of a given address\n  * @param _to address representing the new owner of the given token ID\n  * @param _tokenId uint256 ID of the token to be added to the tokens list of the given address\n  */\n  function _addToken(address _to, uint256 _tokenId) private {\n    require(tokenOwner[_tokenId] == address(0), \"LicenseOwnership._addToken(): token ID already exists\");\n    tokenOwner[_tokenId] = _to;\n    uint256 length = balanceOf(_to);\n    ownedTokens[_to].push(_tokenId);\n    ownedTokensIndex[_tokenId] = length;\n    totalTokens = totalTokens.add(1);\n  }\n\n  /**\n  * @notice Internal function to remove a token ID from the list of a given address\n  * @param _from address representing the previous owner of the given token ID\n  * @param _tokenId uint256 ID of the token to be removed from the tokens list of the given address\n  */\n  function _removeToken(address _from, uint256 _tokenId) private {\n    require(ownerOf(_tokenId) == _from, \"LicenseOwnership._removeToken(): 'from' address must be the token's current owner\");\n\n    uint256 tokenIndex = ownedTokensIndex[_tokenId];\n    uint256 lastTokenIndex = balanceOf(_from).sub(1);\n    uint256 lastToken = ownedTokens[_from][lastTokenIndex];\n\n    tokenOwner[_tokenId] = address(0x0);\n    ownedTokens[_from][tokenIndex] = lastToken;\n    ownedTokens[_from][lastTokenIndex] = 0;\n    // Note that this will handle single-element arrays. In that case, both tokenIndex and lastTokenIndex are going to\n    // be zero. Then we can make sure that we will remove _tokenId from the ownedTokens list since we are first swapping\n    // the lastToken to the first position, and then dropping the element placed in the last position of the list\n\n    ownedTokens[_from].length--;\n    ownedTokensIndex[_tokenId] = 0;\n    ownedTokensIndex[lastToken] = tokenIndex;\n    totalTokens = totalTokens.sub(1);\n  }\n\n  function _isContract(address addr) internal view returns (bool) {\n    uint size;\n    assembly { size := extcodesize(addr) }\n    return size > 0;\n  }\n}\n",
  "sourcePath": "/Users/alexander/Development/dotta-license/dot-license-contracts/contracts/LicenseOwnership.sol",
  "compiler": {
    "name": "solc",
    "version": "0.5.0+commit.1d4f565a.Emscripten.clang"
  },
  "schemaVersion": "3.0.1",
  "updatedAt": "2019-08-16T20:18:31.665Z",
  "devdoc": {
    "methods": {
      "approve(address,uint256)": {
        "params": {
          "_to": "address to be approved for the given token ID",
          "_tokenId": "uint256 ID of the token to be approved"
        }
      },
      "approveAll(address)": {
        "params": {
          "_to": "address to be approved for the given token ID"
        }
      },
      "balanceOf(address)": {
        "params": {
          "_owner": "address to query the balance of"
        },
        "return": "uint256 representing the amount owned by the passed address"
      },
      "disapproveAll(address)": {
        "details": "Note that this only removes the operator approval and does not clear any independent, specific approvals of token transfers to this address",
        "params": {
          "_to": "address to be disapproved for the given token ID"
        }
      },
      "getApproved(uint256)": {
        "params": {
          "_tokenId": "uint256 ID of the token to query the approval of"
        },
        "return": "address currently approved to take ownership of the given token ID"
      },
      "isApprovedForAll(address,address)": {
        "params": {
          "_operator": "operator address which you want to query the approval of",
          "_owner": "owner address which you want to query the approval of"
        },
        "return": "bool whether the given operator is approved by the given owner"
      },
      "isOwner()": {
        "details": "Returns true if the caller is the current owner."
      },
      "mint(address,uint256)": {
        "params": {
          "_to": "The address that will own the minted token",
          "_tokenId": "uint256 ID of the token to be minted by the msg.sender"
        }
      },
      "owner()": {
        "details": "Returns the address of the current owner."
      },
      "ownerOf(uint256)": {
        "params": {
          "_tokenId": "uint256 ID of the token to query the owner of"
        },
        "return": "owner address currently marked as the owner of the given token ID"
      },
      "pause()": {
        "details": "called by the owner to pause, triggers stopped state"
      },
      "renounceOwnership()": {
        "details": "Leaves the contract without owner. It will not be possible to call `onlyOwner` functions anymore. Can only be called by the current owner.     * NOTE: Renouncing ownership will leave the contract without an owner, thereby removing any functionality that is only available to the owner."
      },
      "safeTransferFrom(address,address,uint256,bytes)": {
        "details": "Throws unless `msg.sender` is the current owner, an authorized operator, or the approved address for this NFT. Throws if `_from` is not the current owner. Throws if `_to` is the zero address. Throws if `_tokenId` is not a valid NFT. When transfer is complete, this function checks if `_to` is a smart contract (code size > 0). If so, it calls `onERC721Received` on `_to` and throws if the return value is not `bytes4(keccak256(\"onERC721Received(address,uint256,bytes)\"))`.",
        "params": {
          "_data": "Additional data with no specified format, sent in call to `_to`",
          "_from": "The current owner of the NFT",
          "_to": "The new owner",
          "_tokenId": "The NFT to transfer"
        }
      },
      "setApprovalForAll(address,bool)": {
        "details": "Emits the ApprovalForAll event",
        "params": {
          "_approved": "True if the operators is approved, false to revoke approval",
          "_to": "Address to add to the set of authorized operators."
        }
      },
      "takeOwnership(uint256)": {
        "params": {
          "_tokenId": "uint256 ID of the token being claimed by the msg.sender"
        }
      },
      "tokenByIndex(uint256)": {
        "details": "Our Licenses are kept in an array and each new License-token is just the next element in the array. This method is required for ERC721Enumerable which may support more complicated storage schemes. However, in our case the _index is the tokenId",
        "params": {
          "_index": "A counter less than `totalSupply()`"
        },
        "return": "The token identifier for the `_index`th NFT"
      },
      "tokenOfOwnerByIndex(address,uint256)": {
        "details": "Throws if `_index` >= `balanceOf(_owner)` or if `_owner` is the zero address, representing invalid NFTs.",
        "params": {
          "_index": "A counter less than `balanceOf(_owner)`",
          "_owner": "An address where we are interested in NFTs owned by them"
        },
        "return": "The token identifier for the `_index`th NFT assigned to `_owner`,"
      },
      "tokensOf(address)": {
        "params": {
          "_owner": "address to query the tokens of"
        },
        "return": "uint256[] representing the list of tokens owned by the passed address"
      },
      "totalSupply()": {
        "return": "uint256 representing the total amount of tokens"
      },
      "transfer(address,uint256)": {
        "params": {
          "_to": "address to receive the ownership of the given token ID",
          "_tokenId": "uint256 ID of the token to be transferred"
        }
      },
      "transferFrom(address,address,uint256)": {
        "params": {
          "_from": "The address that owns the token",
          "_to": "The address that will take ownership of the token. Can be any address, including the caller",
          "_tokenId": "The ID of the token to be transferred"
        }
      },
      "transferOwnership(address)": {
        "details": "Transfers ownership of the contract to a new account (`newOwner`). Can only be called by the current owner."
      },
      "unpause()": {
        "details": "called by the owner to unpause, returns to normal state"
      }
    }
  },
  "userdoc": {
    "methods": {
      "approve(address,uint256)": {
        "notice": "Approves another address to claim for the ownership of the given token ID"
      },
      "approveAll(address)": {
        "notice": "Approves another address to claim for the ownership of any tokens owned by this account"
      },
      "balanceOf(address)": {
        "notice": "Gets the balance of the specified address"
      },
      "disapproveAll(address)": {
        "notice": "Removes approval for another address to claim for the ownership of any tokens owned by this account."
      },
      "getApproved(uint256)": {
        "notice": "Gets the approved address to take ownership of a given token ID"
      },
      "isApprovedForAll(address,address)": {
        "notice": "Tells whether an operator is approved by a given owner"
      },
      "mint(address,uint256)": {
        "notice": "Mint token function"
      },
      "name()": {
        "notice": "token's name"
      },
      "ownerOf(uint256)": {
        "notice": "Gets the owner of the specified token ID"
      },
      "safeTransferFrom(address,address,uint256,bytes)": {
        "notice": "Transfers the ownership of an NFT from one address to another address"
      },
      "setApprovalForAll(address,bool)": {
        "notice": "Enable or disable approval for a third party (\"operator\") to manage all your assets"
      },
      "symbol()": {
        "notice": "symbols's name"
      },
      "takeOwnership(uint256)": {
        "notice": "Claims the ownership of a given token ID"
      },
      "tokenByIndex(uint256)": {
        "notice": "Enumerate valid NFTs"
      },
      "tokenOfOwnerByIndex(address,uint256)": {
        "notice": "Enumerate NFTs assigned to an owner"
      },
      "tokensOf(address)": {
        "notice": "Gets the list of tokens owned by a given address"
      },
      "totalSupply()": {
        "notice": "Gets the total amount of tokens stored by the contract"
      },
      "transfer(address,uint256)": {
        "notice": "Transfers the ownership of a given token ID to another address"
      },
      "transferFrom(address,address,uint256)": {
        "notice": "Transfer a token owned by another address, for which the calling address has previously been granted transfer approval by the owner."
      }
    }
  }
}