{
  "contractName": "LicenseSale",
  "abi": [
    {
      "constant": true,
      "inputs": [],
      "name": "licenseOwnership",
      "outputs": [
        {
          "name": "",
          "type": "address"
        }
      ],
      "payable": false,
      "stateMutability": "view",
      "type": "function"
    },
    {
      "constant": true,
      "inputs": [],
      "name": "daiContract",
      "outputs": [
        {
          "name": "",
          "type": "address"
        }
      ],
      "payable": false,
      "stateMutability": "view",
      "type": "function"
    },
    {
      "constant": true,
      "inputs": [],
      "name": "productInventory",
      "outputs": [
        {
          "name": "",
          "type": "address"
        }
      ],
      "payable": false,
      "stateMutability": "view",
      "type": "function"
    },
    {
      "constant": false,
      "inputs": [],
      "name": "renounceOwnership",
      "outputs": [],
      "payable": false,
      "stateMutability": "nonpayable",
      "type": "function"
    },
    {
      "constant": false,
      "inputs": [
        {
          "name": "_daiContract",
          "type": "address"
        }
      ],
      "name": "setDAIContract",
      "outputs": [],
      "payable": false,
      "stateMutability": "nonpayable",
      "type": "function"
    },
    {
      "constant": true,
      "inputs": [],
      "name": "owner",
      "outputs": [
        {
          "name": "",
          "type": "address"
        }
      ],
      "payable": false,
      "stateMutability": "view",
      "type": "function"
    },
    {
      "constant": true,
      "inputs": [],
      "name": "isOwner",
      "outputs": [
        {
          "name": "",
          "type": "bool"
        }
      ],
      "payable": false,
      "stateMutability": "view",
      "type": "function"
    },
    {
      "constant": true,
      "inputs": [],
      "name": "affiliateProgram",
      "outputs": [
        {
          "name": "",
          "type": "address"
        }
      ],
      "payable": false,
      "stateMutability": "view",
      "type": "function"
    },
    {
      "constant": true,
      "inputs": [],
      "name": "renewalsCreditAffiliatesFor",
      "outputs": [
        {
          "name": "",
          "type": "uint256"
        }
      ],
      "payable": false,
      "stateMutability": "view",
      "type": "function"
    },
    {
      "constant": true,
      "inputs": [],
      "name": "withdrawalAddress",
      "outputs": [
        {
          "name": "",
          "type": "address"
        }
      ],
      "payable": false,
      "stateMutability": "view",
      "type": "function"
    },
    {
      "constant": false,
      "inputs": [
        {
          "name": "newOwner",
          "type": "address"
        }
      ],
      "name": "transferOwnership",
      "outputs": [],
      "payable": false,
      "stateMutability": "nonpayable",
      "type": "function"
    },
    {
      "inputs": [],
      "payable": false,
      "stateMutability": "nonpayable",
      "type": "constructor"
    },
    {
      "anonymous": false,
      "inputs": [
        {
          "indexed": true,
          "name": "owner",
          "type": "address"
        },
        {
          "indexed": true,
          "name": "purchaser",
          "type": "address"
        },
        {
          "indexed": false,
          "name": "licenseId",
          "type": "uint256"
        },
        {
          "indexed": false,
          "name": "productId",
          "type": "uint256"
        },
        {
          "indexed": false,
          "name": "attributes",
          "type": "uint256"
        },
        {
          "indexed": false,
          "name": "issuedTime",
          "type": "uint256"
        },
        {
          "indexed": false,
          "name": "expirationTime",
          "type": "uint256"
        },
        {
          "indexed": false,
          "name": "affiliate",
          "type": "address"
        }
      ],
      "name": "LicenseIssued",
      "type": "event"
    },
    {
      "anonymous": false,
      "inputs": [
        {
          "indexed": true,
          "name": "owner",
          "type": "address"
        },
        {
          "indexed": true,
          "name": "purchaser",
          "type": "address"
        },
        {
          "indexed": false,
          "name": "licenseId",
          "type": "uint256"
        },
        {
          "indexed": false,
          "name": "productId",
          "type": "uint256"
        },
        {
          "indexed": false,
          "name": "expirationTime",
          "type": "uint256"
        }
      ],
      "name": "LicenseRenewal",
      "type": "event"
    },
    {
      "anonymous": false,
      "inputs": [
        {
          "indexed": true,
          "name": "previousOwner",
          "type": "address"
        },
        {
          "indexed": true,
          "name": "newOwner",
          "type": "address"
        }
      ],
      "name": "OwnershipTransferred",
      "type": "event"
    },
    {
      "constant": false,
      "inputs": [
        {
          "name": "_productInventory",
          "type": "address"
        }
      ],
      "name": "setInventoryContract",
      "outputs": [],
      "payable": false,
      "stateMutability": "nonpayable",
      "type": "function"
    },
    {
      "constant": false,
      "inputs": [
        {
          "name": "_licenseOwnership",
          "type": "address"
        }
      ],
      "name": "setOwnershipContract",
      "outputs": [],
      "payable": false,
      "stateMutability": "nonpayable",
      "type": "function"
    },
    {
      "constant": true,
      "inputs": [
        {
          "name": "_licenseId",
          "type": "uint256"
        }
      ],
      "name": "licenseProductId",
      "outputs": [
        {
          "name": "",
          "type": "uint256"
        }
      ],
      "payable": false,
      "stateMutability": "view",
      "type": "function"
    },
    {
      "constant": true,
      "inputs": [
        {
          "name": "_licenseId",
          "type": "uint256"
        }
      ],
      "name": "licenseAttributes",
      "outputs": [
        {
          "name": "",
          "type": "uint256"
        }
      ],
      "payable": false,
      "stateMutability": "view",
      "type": "function"
    },
    {
      "constant": true,
      "inputs": [
        {
          "name": "_licenseId",
          "type": "uint256"
        }
      ],
      "name": "licenseIssuedTime",
      "outputs": [
        {
          "name": "",
          "type": "uint256"
        }
      ],
      "payable": false,
      "stateMutability": "view",
      "type": "function"
    },
    {
      "constant": true,
      "inputs": [
        {
          "name": "_licenseId",
          "type": "uint256"
        }
      ],
      "name": "licenseExpirationTime",
      "outputs": [
        {
          "name": "",
          "type": "uint256"
        }
      ],
      "payable": false,
      "stateMutability": "view",
      "type": "function"
    },
    {
      "constant": true,
      "inputs": [
        {
          "name": "_licenseId",
          "type": "uint256"
        }
      ],
      "name": "licenseAffiliate",
      "outputs": [
        {
          "name": "",
          "type": "address"
        }
      ],
      "payable": false,
      "stateMutability": "view",
      "type": "function"
    },
    {
      "constant": true,
      "inputs": [
        {
          "name": "_licenseId",
          "type": "uint256"
        }
      ],
      "name": "licenseInfo",
      "outputs": [
        {
          "name": "",
          "type": "uint256"
        },
        {
          "name": "",
          "type": "uint256"
        },
        {
          "name": "",
          "type": "uint256"
        },
        {
          "name": "",
          "type": "uint256"
        },
        {
          "name": "",
          "type": "address"
        }
      ],
      "payable": false,
      "stateMutability": "view",
      "type": "function"
    },
    {
      "constant": false,
      "inputs": [
        {
          "name": "_address",
          "type": "address"
        }
      ],
      "name": "setAffiliateProgramAddress",
      "outputs": [],
      "payable": false,
      "stateMutability": "nonpayable",
      "type": "function"
    },
    {
      "constant": false,
      "inputs": [
        {
          "name": "_newTime",
          "type": "uint256"
        }
      ],
      "name": "setRenewalsCreditAffiliatesFor",
      "outputs": [],
      "payable": false,
      "stateMutability": "nonpayable",
      "type": "function"
    },
    {
      "constant": false,
      "inputs": [
        {
          "name": "_productId",
          "type": "uint256"
        },
        {
          "name": "_numCycles",
          "type": "uint256"
        },
        {
          "name": "_assignee",
          "type": "address"
        },
        {
          "name": "_attributes",
          "type": "uint256"
        }
      ],
      "name": "createPromotionalPurchase",
      "outputs": [
        {
          "name": "",
          "type": "uint256"
        }
      ],
      "payable": false,
      "stateMutability": "nonpayable",
      "type": "function"
    },
    {
      "constant": false,
      "inputs": [
        {
          "name": "_tokenId",
          "type": "uint256"
        },
        {
          "name": "_numCycles",
          "type": "uint256"
        }
      ],
      "name": "createPromotionalRenewal",
      "outputs": [],
      "payable": false,
      "stateMutability": "nonpayable",
      "type": "function"
    },
    {
      "constant": false,
      "inputs": [
        {
          "name": "_productId",
          "type": "uint256"
        },
        {
          "name": "_numCycles",
          "type": "uint256"
        },
        {
          "name": "_assignee",
          "type": "address"
        },
        {
          "name": "_affiliate",
          "type": "address"
        }
      ],
      "name": "purchase",
      "outputs": [
        {
          "name": "",
          "type": "uint256"
        }
      ],
      "payable": false,
      "stateMutability": "nonpayable",
      "type": "function"
    },
    {
      "constant": false,
      "inputs": [
        {
          "name": "_tokenId",
          "type": "uint256"
        },
        {
          "name": "_numCycles",
          "type": "uint256"
        }
      ],
      "name": "renew",
      "outputs": [],
      "payable": false,
      "stateMutability": "nonpayable",
      "type": "function"
    },
    {
      "constant": false,
      "inputs": [
        {
          "name": "_newWithdrawalAddress",
          "type": "address"
        }
      ],
      "name": "setWithdrawalAddress",
      "outputs": [],
      "payable": false,
      "stateMutability": "nonpayable",
      "type": "function"
    },
    {
      "constant": false,
      "inputs": [],
      "name": "withdrawBalance",
      "outputs": [],
      "payable": false,
      "stateMutability": "nonpayable",
      "type": "function"
    }
  ],
  "bytecode": "0x60806040526301e1338060065534801561001857600080fd5b50336000806101000a81548173ffffffffffffffffffffffffffffffffffffffff021916908373ffffffffffffffffffffffffffffffffffffffff1602179055506000809054906101000a900473ffffffffffffffffffffffffffffffffffffffff1673ffffffffffffffffffffffffffffffffffffffff16600073ffffffffffffffffffffffffffffffffffffffff167f8be0079c531659141344cd1fd0a4f28419497f9722a3daafe3b4186f6b6457e060405160405180910390a333600760006101000a81548173ffffffffffffffffffffffffffffffffffffffff021916908373ffffffffffffffffffffffffffffffffffffffff160217905550614158806101256000396000f3fe60806040526004361061015f576000357c0100000000000000000000000000000000000000000000000000000000900463ffffffff1680630e9fd199146101645780631411d713146101df5780631db8d6d51461022e5780631e0845581461028557806321b8092e1461031c5780632ce8b9131461036d5780633ac6dd9d146103c457806347c91f2114610447578063560796371461049e5780635fd8c710146104ef5780636d66954014610506578063715018a6146105575780637d0385c21461056e5780637d1b0acd146105b35780638da5cb5b146106045780638f32d59b1461065b5780639425753c1461068a578063a7bf1b6c146106d9578063b3b4fd0f14610772578063c2b7ba32146107c9578063c475abff1461081a578063cc293aea1461085f578063dfbebd071461089a578063e9748e58146108e9578063f2bcd02214610914578063f2fde38b1461096b578063f4b272db146109bc575b600080fd5b34801561017057600080fd5b5061019d6004803603602081101561018757600080fd5b8101908080359060200190929190505050610a0b565b604051808273ffffffffffffffffffffffffffffffffffffffff1673ffffffffffffffffffffffffffffffffffffffff16815260200191505060405180910390f35b3480156101eb57600080fd5b506102186004803603602081101561020257600080fd5b8101908080359060200190929190505050610a55565b6040518082815260200191505060405180910390f35b34801561023a57600080fd5b50610243610a7f565b604051808273ffffffffffffffffffffffffffffffffffffffff1673ffffffffffffffffffffffffffffffffffffffff16815260200191505060405180910390f35b34801561029157600080fd5b506102be600480360360208110156102a857600080fd5b8101908080359060200190929190505050610aa5565b604051808681526020018581526020018481526020018381526020018273ffffffffffffffffffffffffffffffffffffffff1673ffffffffffffffffffffffffffffffffffffffff1681526020019550505050505060405180910390f35b34801561032857600080fd5b5061036b6004803603602081101561033f57600080fd5b81019080803573ffffffffffffffffffffffffffffffffffffffff169060200190929190505050610aed565b005b34801561037957600080fd5b50610382610c9e565b604051808273ffffffffffffffffffffffffffffffffffffffff1673ffffffffffffffffffffffffffffffffffffffff16815260200191505060405180910390f35b3480156103d057600080fd5b50610431600480360360808110156103e757600080fd5b810190808035906020019092919080359060200190929190803573ffffffffffffffffffffffffffffffffffffffff16906020019092919080359060200190929190505050610cc4565b6040518082815260200191505060405180910390f35b34801561045357600080fd5b5061045c610e94565b604051808273ffffffffffffffffffffffffffffffffffffffff1673ffffffffffffffffffffffffffffffffffffffff16815260200191505060405180910390f35b3480156104aa57600080fd5b506104ed600480360360208110156104c157600080fd5b81019080803573ffffffffffffffffffffffffffffffffffffffff169060200190929190505050610eba565b005b3480156104fb57600080fd5b50610504610f7a565b005b34801561051257600080fd5b506105556004803603602081101561052957600080fd5b81019080803573ffffffffffffffffffffffffffffffffffffffff1690602001909291905050506113c2565b005b34801561056357600080fd5b5061056c611482565b005b34801561057a57600080fd5b506105b16004803603604081101561059157600080fd5b8101908080359060200190929190803590602001909291905050506115bd565b005b3480156105bf57600080fd5b50610602600480360360208110156105d657600080fd5b81019080803573ffffffffffffffffffffffffffffffffffffffff16906020019092919050505061184e565b005b34801561061057600080fd5b506106196118d3565b604051808273ffffffffffffffffffffffffffffffffffffffff1673ffffffffffffffffffffffffffffffffffffffff16815260200191505060405180910390f35b34801561066757600080fd5b506106706118fc565b604051808215151515815260200191505060405180910390f35b34801561069657600080fd5b506106c3600480360360208110156106ad57600080fd5b8101908080359060200190929190505050611953565b6040518082815260200191505060405180910390f35b3480156106e557600080fd5b5061075c600480360360808110156106fc57600080fd5b810190808035906020019092919080359060200190929190803573ffffffffffffffffffffffffffffffffffffffff169060200190929190803573ffffffffffffffffffffffffffffffffffffffff16906020019092919050505061197d565b6040518082815260200191505060405180910390f35b34801561077e57600080fd5b50610787612492565b604051808273ffffffffffffffffffffffffffffffffffffffff1673ffffffffffffffffffffffffffffffffffffffff16815260200191505060405180910390f35b3480156107d557600080fd5b50610818600480360360208110156107ec57600080fd5b81019080803573ffffffffffffffffffffffffffffffffffffffff1690602001909291905050506124b8565b005b34801561082657600080fd5b5061085d6004803603604081101561083d57600080fd5b810190808035906020019092919080359060200190929190505050612626565b005b34801561086b57600080fd5b506108986004803603602081101561088257600080fd5b8101908080359060200190929190505050612ee0565b005b3480156108a657600080fd5b506108d3600480360360208110156108bd57600080fd5b8101908080359060200190929190505050612f66565b6040518082815260200191505060405180910390f35b3480156108f557600080fd5b506108fe612f90565b6040518082815260200191505060405180910390f35b34801561092057600080fd5b50610929612f96565b604051808273ffffffffffffffffffffffffffffffffffffffff1673ffffffffffffffffffffffffffffffffffffffff16815260200191505060405180910390f35b34801561097757600080fd5b506109ba6004803603602081101561098e57600080fd5b81019080803573ffffffffffffffffffffffffffffffffffffffff169060200190929190505050612fbc565b005b3480156109c857600080fd5b506109f5600480360360208110156109df57600080fd5b8101908080359060200190929190505050613044565b6040518082815260200191505060405180910390f35b6000600582815481101515610a1c57fe5b906000526020600020906005020160040160009054906101000a900473ffffffffffffffffffffffffffffffffffffffff169050919050565b6000600582815481101515610a6657fe5b9060005260206000209060050201600201549050919050565b600460009054906101000a900473ffffffffffffffffffffffffffffffffffffffff1681565b6000806000806000610ab686611953565b610abf87613044565b610ac888610a55565b610ad189612f66565b610ada8a610a0b565b9450945094509450945091939590929450565b610af56118fc565b1515610b69576040517f08c379a00000000000000000000000000000000000000000000000000000000081526004018080602001828103825260208152602001807f4f776e61626c653a2063616c6c6572206973206e6f7420746865206f776e657281525060200191505060405180910390fd5b600073ffffffffffffffffffffffffffffffffffffffff168173ffffffffffffffffffffffffffffffffffffffff1614151515610c5a576040517f08c379a000000000000000000000000000000000000000000000000000000000815260040180806020018281038252604a8152602001807f4c6963656e736553616c652e7365745769746864726177616c4164647265737381526020017f28293a206e6577207769746864726177616c41646472657373206d757374206281526020017f65206e6f6e2d7a65726f0000000000000000000000000000000000000000000081525060600191505060405180910390fd5b80600760006101000a81548173ffffffffffffffffffffffffffffffffffffffff021916908373ffffffffffffffffffffffffffffffffffffffff16021790555050565b600160009054906101000a900473ffffffffffffffffffffffffffffffffffffffff1681565b6000610cce6118fc565b1515610d42576040517f08c379a00000000000000000000000000000000000000000000000000000000081526004018080602001828103825260208152602001807f4f776e61626c653a2063616c6c6572206973206e6f7420746865206f776e657281525060200191505060405180910390fd5b60001515600460009054906101000a900473ffffffffffffffffffffffffffffffffffffffff1673ffffffffffffffffffffffffffffffffffffffff16635c975abb6040518163ffffffff167c010000000000000000000000000000000000000000000000000000000002815260040160206040518083038186803b158015610dca57600080fd5b505afa158015610dde573d6000803e3d6000fd5b505050506040513d6020811015610df457600080fd5b81019080805190602001909291905050501515141515610e7c576040517f08c379a000000000000000000000000000000000000000000000000000000000815260040180806020018281038252600f8152602001807f746f6b656e20697320706175736564000000000000000000000000000000000081525060200191505060405180910390fd5b610e8a85858585600061306e565b9050949350505050565b600360009054906101000a900473ffffffffffffffffffffffffffffffffffffffff1681565b610ec26118fc565b1515610f36576040517f08c379a00000000000000000000000000000000000000000000000000000000081526004018080602001828103825260208152602001807f4f776e61626c653a2063616c6c6572206973206e6f7420746865206f776e657281525060200191505060405180910390fd5b80600360006101000a81548173ffffffffffffffffffffffffffffffffffffffff021916908373ffffffffffffffffffffffffffffffffffffffff16021790555050565b610f826118fc565b1515610ff6576040517f08c379a00000000000000000000000000000000000000000000000000000000081526004018080602001828103825260208152602001807f4f776e61626c653a2063616c6c6572206973206e6f7420746865206f776e657281525060200191505060405180910390fd5b600073ffffffffffffffffffffffffffffffffffffffff16600760009054906101000a900473ffffffffffffffffffffffffffffffffffffffff1673ffffffffffffffffffffffffffffffffffffffff1614151515611109576040517f08c379a00000000000000000000000000000000000000000000000000000000081526004018080602001828103825260418152602001807f4c6963656e736553616c652e776974686472617742616c616e636528293a207781526020017f69746864726177616c41646472657373206d757374206265206e6f6e2d7a657281526020017f6f0000000000000000000000000000000000000000000000000000000000000081525060600191505060405180910390fd5b6000600160009054906101000a900473ffffffffffffffffffffffffffffffffffffffff1673ffffffffffffffffffffffffffffffffffffffff1663a9059cbb600760009054906101000a900473ffffffffffffffffffffffffffffffffffffffff16600160009054906101000a900473ffffffffffffffffffffffffffffffffffffffff1673ffffffffffffffffffffffffffffffffffffffff166370a08231306040518263ffffffff167c0100000000000000000000000000000000000000000000000000000000028152600401808273ffffffffffffffffffffffffffffffffffffffff1673ffffffffffffffffffffffffffffffffffffffff16815260200191505060206040518083038186803b15801561122757600080fd5b505afa15801561123b573d6000803e3d6000fd5b505050506040513d602081101561125157600080fd5b81019080805190602001909291905050506040518363ffffffff167c0100000000000000000000000000000000000000000000000000000000028152600401808373ffffffffffffffffffffffffffffffffffffffff1673ffffffffffffffffffffffffffffffffffffffff16815260200182815260200192505050602060405180830381600087803b1580156112e757600080fd5b505af11580156112fb573d6000803e3d6000fd5b505050506040513d602081101561131157600080fd5b810190808051906020019092919050505090508015156113bf576040517f08c379a00000000000000000000000000000000000000000000000000000000081526004018080602001828103825260328152602001807f4c6963656e736553616c652e776974686472617742616c616e636528293a204481526020017f4149207472616e73666572206661696c6564000000000000000000000000000081525060400191505060405180910390fd5b50565b6113ca6118fc565b151561143e576040517f08c379a00000000000000000000000000000000000000000000000000000000081526004018080602001828103825260208152602001807f4f776e61626c653a2063616c6c6572206973206e6f7420746865206f776e657281525060200191505060405180910390fd5b80600460006101000a81548173ffffffffffffffffffffffffffffffffffffffff021916908373ffffffffffffffffffffffffffffffffffffffff16021790555050565b61148a6118fc565b15156114fe576040517f08c379a00000000000000000000000000000000000000000000000000000000081526004018080602001828103825260208152602001807f4f776e61626c653a2063616c6c6572206973206e6f7420746865206f776e657281525060200191505060405180910390fd5b600073ffffffffffffffffffffffffffffffffffffffff166000809054906101000a900473ffffffffffffffffffffffffffffffffffffffff1673ffffffffffffffffffffffffffffffffffffffff167f8be0079c531659141344cd1fd0a4f28419497f9722a3daafe3b4186f6b6457e060405160405180910390a360008060006101000a81548173ffffffffffffffffffffffffffffffffffffffff021916908373ffffffffffffffffffffffffffffffffffffffff160217905550565b6115c56118fc565b1515611639576040517f08c379a00000000000000000000000000000000000000000000000000000000081526004018080602001828103825260208152602001807f4f776e61626c653a2063616c6c6572206973206e6f7420746865206f776e657281525060200191505060405180910390fd5b60001515600460009054906101000a900473ffffffffffffffffffffffffffffffffffffffff1673ffffffffffffffffffffffffffffffffffffffff16635c975abb6040518163ffffffff167c010000000000000000000000000000000000000000000000000000000002815260040160206040518083038186803b1580156116c157600080fd5b505afa1580156116d5573d6000803e3d6000fd5b505050506040513d60208110156116eb57600080fd5b81019080805190602001909291905050501515141515611773576040517f08c379a000000000000000000000000000000000000000000000000000000000815260040180806020018281038252600f8152602001807f746f6b656e20697320706175736564000000000000000000000000000000000081525060200191505060405180910390fd5b600060058381548110151561178457fe5b9060005260206000209060050201600001549050600360009054906101000a900473ffffffffffffffffffffffffffffffffffffffff1673ffffffffffffffffffffffffffffffffffffffff1663e5863993826040518263ffffffff167c01000000000000000000000000000000000000000000000000000000000281526004018082815260200191505060006040518083038186803b15801561182757600080fd5b505afa15801561183b573d6000803e3d6000fd5b505050506118498383613131565b505050565b6118566118d3565b73ffffffffffffffffffffffffffffffffffffffff163373ffffffffffffffffffffffffffffffffffffffff1614151561188f57600080fd5b80600160006101000a81548173ffffffffffffffffffffffffffffffffffffffff021916908373ffffffffffffffffffffffffffffffffffffffff16021790555050565b60008060009054906101000a900473ffffffffffffffffffffffffffffffffffffffff16905090565b60008060009054906101000a900473ffffffffffffffffffffffffffffffffffffffff1673ffffffffffffffffffffffffffffffffffffffff163373ffffffffffffffffffffffffffffffffffffffff1614905090565b600060058281548110151561196457fe5b9060005260206000209060050201600001549050919050565b6000801515600460009054906101000a900473ffffffffffffffffffffffffffffffffffffffff1673ffffffffffffffffffffffffffffffffffffffff16635c975abb6040518163ffffffff167c010000000000000000000000000000000000000000000000000000000002815260040160206040518083038186803b158015611a0657600080fd5b505afa158015611a1a573d6000803e3d6000fd5b505050506040513d6020811015611a3057600080fd5b81019080805190602001909291905050501515141515611ab8576040517f08c379a000000000000000000000000000000000000000000000000000000000815260040180806020018281038252600f8152602001807f746f6b656e20697320706175736564000000000000000000000000000000000081525060200191505060405180910390fd5b600073ffffffffffffffffffffffffffffffffffffffff16600160009054906101000a900473ffffffffffffffffffffffffffffffffffffffff1673ffffffffffffffffffffffffffffffffffffffff1614151515611ba5576040517f08c379a00000000000000000000000000000000000000000000000000000000081526004018080602001828103825260358152602001807f4c6963656e736553616c652e707572636861736528293a2044414920636f6e7481526020017f72616374206164647265737320697320756e736574000000000000000000000081525060400191505060405180910390fd5b60008514151515611c44576040517f08c379a00000000000000000000000000000000000000000000000000000000081526004018080602001828103825260328152602001807f4c6963656e736553616c652e707572636861736528293a2070726f647563744981526020017f44206d757374206265206e6f6e2d7a65726f000000000000000000000000000081525060400191505060405180910390fd5b60008414151515611ce3576040517f08c379a00000000000000000000000000000000000000000000000000000000081526004018080602001828103825260328152602001807f4c6963656e736553616c652e707572636861736528293a206e756d4379636c6581526020017f73206d757374206265206e6f6e2d7a65726f000000000000000000000000000081525060400191505060405180910390fd5b600073ffffffffffffffffffffffffffffffffffffffff168373ffffffffffffffffffffffffffffffffffffffff1614151515611dae576040517f08c379a00000000000000000000000000000000000000000000000000000000081526004018080602001828103825260318152602001807f4c6963656e736553616c652e707572636861736528293a2061737369676e656581526020017f206d757374206265206e6f6e2d7a65726f00000000000000000000000000000081525060400191505060405180910390fd5b6000600360009054906101000a900473ffffffffffffffffffffffffffffffffffffffff1673ffffffffffffffffffffffffffffffffffffffff166327597f0a87876040518363ffffffff167c0100000000000000000000000000000000000000000000000000000000028152600401808381526020018281526020019250505060206040518083038186803b158015611e4757600080fd5b505afa158015611e5b573d6000803e3d6000fd5b505050506040513d6020811015611e7157600080fd5b8101908080519060200190929190505050905080600160009054906101000a900473ffffffffffffffffffffffffffffffffffffffff1673ffffffffffffffffffffffffffffffffffffffff1663dd62ed3e33306040518363ffffffff167c0100000000000000000000000000000000000000000000000000000000028152600401808373ffffffffffffffffffffffffffffffffffffffff1673ffffffffffffffffffffffffffffffffffffffff1681526020018273ffffffffffffffffffffffffffffffffffffffff1673ffffffffffffffffffffffffffffffffffffffff1681526020019250505060206040518083038186803b158015611f7457600080fd5b505afa158015611f88573d6000803e3d6000fd5b505050506040513d6020811015611f9e57600080fd5b810190808051906020019092919050505014151561204a576040517f08c379a00000000000000000000000000000000000000000000000000000000081526004018080602001828103825260268152602001807f4c6963656e736553616c652e707572636861736528293a206e6f7420656e6f7581526020017f676820444149000000000000000000000000000000000000000000000000000081525060400191505060405180910390fd5b6000600160009054906101000a900473ffffffffffffffffffffffffffffffffffffffff1673ffffffffffffffffffffffffffffffffffffffff166323b872dd3330856040518463ffffffff167c0100000000000000000000000000000000000000000000000000000000028152600401808473ffffffffffffffffffffffffffffffffffffffff1673ffffffffffffffffffffffffffffffffffffffff1681526020018373ffffffffffffffffffffffffffffffffffffffff1673ffffffffffffffffffffffffffffffffffffffff1681526020018281526020019350505050602060405180830381600087803b15801561214557600080fd5b505af1158015612159573d6000803e3d6000fd5b505050506040513d602081101561216f57600080fd5b8101908080519060200190929190505050905080151561221d576040517f08c379a000000000000000000000000000000000000000000000000000000000815260040180806020018281038252602b8152602001807f4c6963656e736553616c652e707572636861736528293a20444149207472616e81526020017f73666572206661696c656400000000000000000000000000000000000000000081525060400191505060405180910390fd5b600360009054906101000a900473ffffffffffffffffffffffffffffffffffffffff1673ffffffffffffffffffffffffffffffffffffffff16630528bb57886040518263ffffffff167c01000000000000000000000000000000000000000000000000000000000281526004018082815260200191505060206040518083038186803b1580156122ac57600080fd5b505afa1580156122c0573d6000803e3d6000fd5b505050506040513d60208110156122d657600080fd5b810190808051906020019092919050505015156122fd576001861415156122fc57600080fd5b5b60008573ffffffffffffffffffffffffffffffffffffffff16886001430340604051602001808281526020019150506040516020818303038152906040528051906020012060019004181890506000612359898989858a61306e565b90506000600360009054906101000a900473ffffffffffffffffffffffffffffffffffffffff1673ffffffffffffffffffffffffffffffffffffffff1663b9186d7d8b6040518263ffffffff167c01000000000000000000000000000000000000000000000000000000000281526004018082815260200191505060206040518083038186803b1580156123ec57600080fd5b505afa158015612400573d6000803e3d6000fd5b505050506040513d602081101561241657600080fd5b81019080805190602001909291905050501180156124615750600073ffffffffffffffffffffffffffffffffffffffff168673ffffffffffffffffffffffffffffffffffffffff1614155b801561247157506124706133e0565b5b1561248357612482868a83876135f6565b5b80945050505050949350505050565b600260009054906101000a900473ffffffffffffffffffffffffffffffffffffffff1681565b6124c06118fc565b1515612534576040517f08c379a00000000000000000000000000000000000000000000000000000000081526004018080602001828103825260208152602001807f4f776e61626c653a2063616c6c6572206973206e6f7420746865206f776e657281525060200191505060405180910390fd5b60008190508073ffffffffffffffffffffffffffffffffffffffff1663cd43ee996040518163ffffffff167c010000000000000000000000000000000000000000000000000000000002815260040160206040518083038186803b15801561259b57600080fd5b505afa1580156125af573d6000803e3d6000fd5b505050506040513d60208110156125c557600080fd5b810190808051906020019092919050505015156125e157600080fd5b80600260006101000a81548173ffffffffffffffffffffffffffffffffffffffff021916908373ffffffffffffffffffffffffffffffffffffffff1602179055505050565b60001515600460009054906101000a900473ffffffffffffffffffffffffffffffffffffffff1673ffffffffffffffffffffffffffffffffffffffff16635c975abb6040518163ffffffff167c010000000000000000000000000000000000000000000000000000000002815260040160206040518083038186803b1580156126ae57600080fd5b505afa1580156126c2573d6000803e3d6000fd5b505050506040513d60208110156126d857600080fd5b81019080805190602001909291905050501515141515612760576040517f08c379a000000000000000000000000000000000000000000000000000000000815260040180806020018281038252600f8152602001807f746f6b656e20697320706175736564000000000000000000000000000000000081525060200191505060405180910390fd5b6000811415151561277057600080fd5b600073ffffffffffffffffffffffffffffffffffffffff16600460009054906101000a900473ffffffffffffffffffffffffffffffffffffffff1673ffffffffffffffffffffffffffffffffffffffff16636352211e846040518263ffffffff167c01000000000000000000000000000000000000000000000000000000000281526004018082815260200191505060206040518083038186803b15801561281757600080fd5b505afa15801561282b573d6000803e3d6000fd5b505050506040513d602081101561284157600080fd5b810190808051906020019092919050505073ffffffffffffffffffffffffffffffffffffffff161415151561287557600080fd5b600060058381548110151561288657fe5b9060005260206000209060050201600001549050600360009054906101000a900473ffffffffffffffffffffffffffffffffffffffff1673ffffffffffffffffffffffffffffffffffffffff1663e5863993826040518263ffffffff167c01000000000000000000000000000000000000000000000000000000000281526004018082815260200191505060006040518083038186803b15801561292957600080fd5b505afa15801561293d573d6000803e3d6000fd5b505050506000600360009054906101000a900473ffffffffffffffffffffffffffffffffffffffff1673ffffffffffffffffffffffffffffffffffffffff166327597f0a83856040518363ffffffff167c0100000000000000000000000000000000000000000000000000000000028152600401808381526020018281526020019250505060206040518083038186803b1580156129da57600080fd5b505afa1580156129ee573d6000803e3d6000fd5b505050506040513d6020811015612a0457600080fd5b8101908080519060200190929190505050905080600160009054906101000a900473ffffffffffffffffffffffffffffffffffffffff1673ffffffffffffffffffffffffffffffffffffffff1663dd62ed3e33306040518363ffffffff167c0100000000000000000000000000000000000000000000000000000000028152600401808373ffffffffffffffffffffffffffffffffffffffff1673ffffffffffffffffffffffffffffffffffffffff1681526020018273ffffffffffffffffffffffffffffffffffffffff1673ffffffffffffffffffffffffffffffffffffffff1681526020019250505060206040518083038186803b158015612b0757600080fd5b505afa158015612b1b573d6000803e3d6000fd5b505050506040513d6020811015612b3157600080fd5b810190808051906020019092919050505010151515612bde576040517f08c379a00000000000000000000000000000000000000000000000000000000081526004018080602001828103825260238152602001807f4c6963656e736553616c652e72656e657728293a206e6f7420656e6f7567682081526020017f444149000000000000000000000000000000000000000000000000000000000081525060400191505060405180910390fd5b6000600160009054906101000a900473ffffffffffffffffffffffffffffffffffffffff1673ffffffffffffffffffffffffffffffffffffffff166323b872dd3330856040518463ffffffff167c0100000000000000000000000000000000000000000000000000000000028152600401808473ffffffffffffffffffffffffffffffffffffffff1673ffffffffffffffffffffffffffffffffffffffff1681526020018373ffffffffffffffffffffffffffffffffffffffff1673ffffffffffffffffffffffffffffffffffffffff1681526020018281526020019350505050602060405180830381600087803b158015612cd957600080fd5b505af1158015612ced573d6000803e3d6000fd5b505050506040513d6020811015612d0357600080fd5b81019080805190602001909291905050509050801515612db1576040517f08c379a00000000000000000000000000000000000000000000000000000000081526004018080602001828103825260288152602001807f4c6963656e736553616c652e72656e657728293a20444149207472616e73666581526020017f72206661696c656400000000000000000000000000000000000000000000000081525060400191505060405180910390fd5b612dbb8585613131565b600082118015612e385750600073ffffffffffffffffffffffffffffffffffffffff16600586815481101515612ded57fe5b906000526020600020906005020160040160009054906101000a900473ffffffffffffffffffffffffffffffffffffffff1673ffffffffffffffffffffffffffffffffffffffff1614155b8015612e485750612e476133e0565b5b8015612e87575042612e85600654600588815481101515612e6557fe5b90600052602060002090600502016002015461389b90919063ffffffff16565b115b15612ed957612ed8600586815481101515612e9e57fe5b906000526020600020906005020160040160009054906101000a900473ffffffffffffffffffffffffffffffffffffffff168487856135f6565b5b5050505050565b612ee86118fc565b1515612f5c576040517f08c379a00000000000000000000000000000000000000000000000000000000081526004018080602001828103825260208152602001807f4f776e61626c653a2063616c6c6572206973206e6f7420746865206f776e657281525060200191505060405180910390fd5b8060068190555050565b6000600582815481101515612f7757fe5b9060005260206000209060050201600301549050919050565b60065481565b600760009054906101000a900473ffffffffffffffffffffffffffffffffffffffff1681565b612fc46118fc565b1515613038576040517f08c379a00000000000000000000000000000000000000000000000000000000081526004018080602001828103825260208152602001807f4f776e61626c653a2063616c6c6572206973206e6f7420746865206f776e657281525060200191505060405180910390fd5b61304181613925565b50565b600060058281548110151561305557fe5b9060005260206000209060050201600101549050919050565b6000600360009054906101000a900473ffffffffffffffffffffffffffffffffffffffff1673ffffffffffffffffffffffffffffffffffffffff16639e53c554876040518263ffffffff167c010000000000000000000000000000000000000000000000000000000002815260040180828152602001915050600060405180830381600087803b15801561310157600080fd5b505af1158015613115573d6000803e3d6000fd5b505050506131268686868686613aae565b905095945050505050565b600060058381548110151561314257fe5b906000526020600020906005020160000154905060006131824260058681548110151561316b57fe5b906000526020600020906005020160030154613fff565b9050600061327461326585600360009054906101000a900473ffffffffffffffffffffffffffffffffffffffff1673ffffffffffffffffffffffffffffffffffffffff1663b369af71876040518263ffffffff167c01000000000000000000000000000000000000000000000000000000000281526004018082815260200191505060206040518083038186803b15801561321c57600080fd5b505afa158015613230573d6000803e3d6000fd5b505050506040513d602081101561324657600080fd5b810190808051906020019092919050505061401990919063ffffffff16565b8361389b90919063ffffffff16565b90508060058681548110151561328657fe5b9060005260206000209060050201600301819055503373ffffffffffffffffffffffffffffffffffffffff16600460009054906101000a900473ffffffffffffffffffffffffffffffffffffffff1673ffffffffffffffffffffffffffffffffffffffff16636352211e876040518263ffffffff167c01000000000000000000000000000000000000000000000000000000000281526004018082815260200191505060206040518083038186803b15801561334157600080fd5b505afa158015613355573d6000803e3d6000fd5b505050506040513d602081101561336b57600080fd5b810190808051906020019092919050505073ffffffffffffffffffffffffffffffffffffffff167feaf24094683b38939d81835f96309c60277bbc3366d51527540fe4a67b42da5a87868560405180848152602001838152602001828152602001935050505060405180910390a35050505050565b60008073ffffffffffffffffffffffffffffffffffffffff16600260009054906101000a900473ffffffffffffffffffffffffffffffffffffffff1673ffffffffffffffffffffffffffffffffffffffff161415801561352957503073ffffffffffffffffffffffffffffffffffffffff16600260009054906101000a900473ffffffffffffffffffffffffffffffffffffffff1673ffffffffffffffffffffffffffffffffffffffff1663f2c4da936040518163ffffffff167c010000000000000000000000000000000000000000000000000000000002815260040160206040518083038186803b1580156134d657600080fd5b505afa1580156134ea573d6000803e3d6000fd5b505050506040513d602081101561350057600080fd5b810190808051906020019092919050505073ffffffffffffffffffffffffffffffffffffffff16145b80156135f15750600260009054906101000a900473ffffffffffffffffffffffffffffffffffffffff1673ffffffffffffffffffffffffffffffffffffffff16635c975abb6040518163ffffffff167c010000000000000000000000000000000000000000000000000000000002815260040160206040518083038186803b1580156135b457600080fd5b505afa1580156135c8573d6000803e3d6000fd5b505050506040513d60208110156135de57600080fd5b8101908080519060200190929190505050155b905090565b6000600260009054906101000a900473ffffffffffffffffffffffffffffffffffffffff1673ffffffffffffffffffffffffffffffffffffffff1663e230e246868686866040518563ffffffff167c0100000000000000000000000000000000000000000000000000000000028152600401808573ffffffffffffffffffffffffffffffffffffffff1673ffffffffffffffffffffffffffffffffffffffff16815260200184815260200183815260200182815260200194505050505060206040518083038186803b1580156136cb57600080fd5b505afa1580156136df573d6000803e3d6000fd5b505050506040513d60208110156136f557600080fd5b8101908080519060200190929190505050905060008111156138945781811015156137ae576040517f08c379a000000000000000000000000000000000000000000000000000000000815260040180806020018281038252603e8152602001807f4c6963656e736553616c652e5f68616e646c65416666696c6961746528293a2081526020017f616666696c69617465437574203c205f7075726368617365416d6f756e74000081525060400191505060405180910390fd5b600260009054906101000a900473ffffffffffffffffffffffffffffffffffffffff1673ffffffffffffffffffffffffffffffffffffffff1663ddb1bdc88685846040518463ffffffff167c0100000000000000000000000000000000000000000000000000000000028152600401808473ffffffffffffffffffffffffffffffffffffffff1673ffffffffffffffffffffffffffffffffffffffff1681526020018381526020018281526020019350505050600060405180830381600087803b15801561387b57600080fd5b505af115801561388f573d6000803e3d6000fd5b505050505b5050505050565b600080828401905083811015151561391b576040517f08c379a000000000000000000000000000000000000000000000000000000000815260040180806020018281038252601b8152602001807f536166654d6174683a206164646974696f6e206f766572666c6f77000000000081525060200191505060405180910390fd5b8091505092915050565b600073ffffffffffffffffffffffffffffffffffffffff168173ffffffffffffffffffffffffffffffffffffffff16141515156139f0576040517f08c379a00000000000000000000000000000000000000000000000000000000081526004018080602001828103825260268152602001807f4f776e61626c653a206e6577206f776e657220697320746865207a65726f206181526020017f646472657373000000000000000000000000000000000000000000000000000081525060400191505060405180910390fd5b8073ffffffffffffffffffffffffffffffffffffffff166000809054906101000a900473ffffffffffffffffffffffffffffffffffffffff1673ffffffffffffffffffffffffffffffffffffffff167f8be0079c531659141344cd1fd0a4f28419497f9722a3daafe3b4186f6b6457e060405160405180910390a3806000806101000a81548173ffffffffffffffffffffffffffffffffffffffff021916908373ffffffffffffffffffffffffffffffffffffffff16021790555050565b6000600360009054906101000a900473ffffffffffffffffffffffffffffffffffffffff1673ffffffffffffffffffffffffffffffffffffffff16630528bb57876040518263ffffffff167c01000000000000000000000000000000000000000000000000000000000281526004018082815260200191505060206040518083038186803b158015613b3f57600080fd5b505afa158015613b53573d6000803e3d6000fd5b505050506040513d6020811015613b6957600080fd5b810190808051906020019092919050505015613b905760008514151515613b8f57600080fd5b5b6000600360009054906101000a900473ffffffffffffffffffffffffffffffffffffffff1673ffffffffffffffffffffffffffffffffffffffff16630528bb57886040518263ffffffff167c01000000000000000000000000000000000000000000000000000000000281526004018082815260200191505060206040518083038186803b158015613c2157600080fd5b505afa158015613c35573d6000803e3d6000fd5b505050506040513d6020811015613c4b57600080fd5b8101908080519060200190929190505050613c67576000613d56565b613d55613d4687600360009054906101000a900473ffffffffffffffffffffffffffffffffffffffff1673ffffffffffffffffffffffffffffffffffffffff1663b369af718b6040518263ffffffff167c01000000000000000000000000000000000000000000000000000000000281526004018082815260200191505060206040518083038186803b158015613cfd57600080fd5b505afa158015613d11573d6000803e3d6000fd5b505050506040513d6020811015613d2757600080fd5b810190808051906020019092919050505061401990919063ffffffff16565b4261389b90919063ffffffff16565b5b9050613d606140e6565b60a0604051908101604052808981526020018681526020014281526020018381526020018573ffffffffffffffffffffffffffffffffffffffff16815250905060006001600583908060018154018082558091505090600182039060005260206000209060050201600090919290919091506000820151816000015560208201518160010155604082015181600201556060820151816003015560808201518160040160006101000a81548173ffffffffffffffffffffffffffffffffffffffff021916908373ffffffffffffffffffffffffffffffffffffffff16021790555050500390503373ffffffffffffffffffffffffffffffffffffffff168773ffffffffffffffffffffffffffffffffffffffff167f295203a2e224d53a9e7107bf20ca4642308c1afa628268bbfe5f796412f832428385600001518660200151876040015188606001518960800151604051808781526020018681526020018581526020018481526020018381526020018273ffffffffffffffffffffffffffffffffffffffff1673ffffffffffffffffffffffffffffffffffffffff168152602001965050505050505060405180910390a3600460009054906101000a900473ffffffffffffffffffffffffffffffffffffffff1673ffffffffffffffffffffffffffffffffffffffff166340c10f1988836040518363ffffffff167c0100000000000000000000000000000000000000000000000000000000028152600401808373ffffffffffffffffffffffffffffffffffffffff1673ffffffffffffffffffffffffffffffffffffffff16815260200182815260200192505050600060405180830381600087803b158015613fd857600080fd5b505af1158015613fec573d6000803e3d6000fd5b5050505080935050505095945050505050565b60008183101561400f5781614011565b825b905092915050565b60008083141561402c57600090506140e0565b6000828402905082848281151561403f57fe5b041415156140db576040517f08c379a00000000000000000000000000000000000000000000000000000000081526004018080602001828103825260218152602001807f536166654d6174683a206d756c7469706c69636174696f6e206f766572666c6f81526020017f770000000000000000000000000000000000000000000000000000000000000081525060400191505060405180910390fd5b809150505b92915050565b60a06040519081016040528060008152602001600081526020016000815260200160008152602001600073ffffffffffffffffffffffffffffffffffffffff168152509056fea165627a7a723058204d440b1b792eb0f434156af03180813b4ed7e3afff73322b89ce220c90bf155e0029",
  "source": "pragma solidity 0.5.0;\n\nimport \"./ownership/Ownable.sol\";\nimport \"./lifecycle/Pausable.sol\";\nimport \"./interfaces/IERC20.sol\";\nimport \"./math/SafeMath.sol\";\n\nimport \"./LicenseOwnership.sol\";\nimport \"./LicenseInventory.sol\";\nimport \"./Affiliate/AffiliateProgram.sol\";\nimport \"./DAITransactor.sol\";\n\ncontract LicenseSale is Ownable, DAITransactor {\n  using SafeMath for uint256;\n\n  AffiliateProgram public affiliateProgram;\n  LicenseInventory public productInventory;\n  LicenseOwnership public licenseOwnership;\n\n  function setInventoryContract(address _productInventory) public onlyOwner {\n    productInventory = LicenseInventory(_productInventory);\n  }\n\n  function setOwnershipContract(address _licenseOwnership) public onlyOwner {\n    licenseOwnership = LicenseOwnership(_licenseOwnership);\n  }\n\n  modifier whenTokenNotPaused {\n    require(licenseOwnership.paused() == false, \"token is paused\");\n    _;\n  }\n\n  constructor() public {\n    withdrawalAddress = msg.sender;\n  }\n\n\n\n  /**************************************\n   *      LICENSE REGISTRY FUNCTIONS\n   **************************************/\n\n\n  /**\n   * @notice Issued is emitted when a new license is issued\n   */\n  event LicenseIssued(\n    address indexed owner,\n    address indexed purchaser,\n    uint256 licenseId,\n    uint256 productId,\n    uint256 attributes,\n    uint256 issuedTime,\n    uint256 expirationTime,\n    address affiliate\n  );\n\n  event LicenseRenewal(\n    address indexed owner,\n    address indexed purchaser,\n    uint256 licenseId,\n    uint256 productId,\n    uint256 expirationTime\n  );\n\n  struct License {\n    uint256 productId;\n    uint256 attributes;\n    uint256 issuedTime;\n    uint256 expirationTime;\n    address affiliate;\n  }\n\n  /**\n   * @notice All licenses in existence.\n   * @dev The ID of each license is an index in this array.\n   */\n  License[] licenses;\n\n  /** internal **/\n  function _isValidLicense(uint256 _licenseId) internal view returns (bool) {\n    return licenseProductId(_licenseId) != 0;\n  }\n\n  /** anyone **/\n\n  /**\n   * @notice Get a license's productId\n   * @param _licenseId the license id\n   */\n  function licenseProductId(uint256 _licenseId) public view returns (uint256) {\n    return licenses[_licenseId].productId;\n  }\n\n  /**\n   * @notice Get a license's attributes\n   * @param _licenseId the license id\n   */\n  function licenseAttributes(uint256 _licenseId) public view returns (uint256) {\n    return licenses[_licenseId].attributes;\n  }\n\n  /**\n   * @notice Get a license's issueTime\n   * @param _licenseId the license id\n   */\n  function licenseIssuedTime(uint256 _licenseId) public view returns (uint256) {\n    return licenses[_licenseId].issuedTime;\n  }\n\n  /**\n   * @notice Get a license's issueTime\n   * @param _licenseId the license id\n   */\n  function licenseExpirationTime(uint256 _licenseId) public view returns (uint256) {\n    return licenses[_licenseId].expirationTime;\n  }\n\n  /**\n   * @notice Get a the affiliate credited for the sale of this license\n   * @param _licenseId the license id\n   */\n  function licenseAffiliate(uint256 _licenseId) public view returns (address) {\n    return licenses[_licenseId].affiliate;\n  }\n\n  /**\n   * @notice Get a license's info\n   * @param _licenseId the license id\n   */\n  function licenseInfo(uint256 _licenseId)\n    public view returns (uint256, uint256, uint256, uint256, address)\n  {\n    return (\n      licenseProductId(_licenseId),\n      licenseAttributes(_licenseId),\n      licenseIssuedTime(_licenseId),\n      licenseExpirationTime(_licenseId),\n      licenseAffiliate(_licenseId)\n    );\n  }\n\n\n\n\n\n\n\n  /**************************************\n   *   LICENSE SALE/RENEWAL FUNCTIONS\n   **************************************/\n\n  /**\n   * @notice We credit affiliates for renewals that occur within this time of\n   * original purchase. E.g. If this is set to 1 year, and someone subscribes to\n   * a monthly plan, the affiliate will receive credits for that whole year, as\n   * the user renews their plan\n   */\n  uint256 public renewalsCreditAffiliatesFor = 365 days;\n\n  /** internal **/\n  function _performPurchase(\n    uint256 _productId,\n    uint256 _numCycles,\n    address _assignee,\n    uint256 _attributes,\n    address _affiliate)\n    internal returns (uint)\n  {\n    productInventory.purchaseOneUnitInStock(_productId);\n    return _createLicense(\n      _productId,\n      _numCycles,\n      _assignee,\n      _attributes,\n      _affiliate\n      );\n  }\n\n  function _createLicense(\n    uint256 _productId,\n    uint256 _numCycles,\n    address _assignee,\n    uint256 _attributes,\n    address _affiliate)\n    internal\n    returns (uint)\n  {\n    // You cannot create a subscription license with zero cycles\n    if (productInventory.isSubscriptionProduct(_productId)) {\n      require(_numCycles != 0);\n    }\n\n    // Non-subscription products have an expiration time of 0, meaning \"no-expiration\"\n    uint256 expirationTime = productInventory.isSubscriptionProduct(_productId) ?\n      now.add(productInventory.intervalOf(_productId).mul(_numCycles)) : // solium-disable-line security/no-block-members\n      0;\n\n    License memory _license = License({\n      productId: _productId,\n      attributes: _attributes,\n      issuedTime: now, // solium-disable-line security/no-block-members\n      expirationTime: expirationTime,\n      affiliate: _affiliate\n    });\n\n    uint256 newLicenseId = licenses.push(_license) - 1; // solium-disable-line zeppelin/no-arithmetic-operations\n\n    emit LicenseIssued(\n      _assignee,\n      msg.sender,\n      newLicenseId,\n      _license.productId,\n      _license.attributes,\n      _license.issuedTime,\n      _license.expirationTime,\n      _license.affiliate);\n\n    licenseOwnership.mint(_assignee, newLicenseId);\n    return newLicenseId;\n  }\n\n  function _handleAffiliate(\n    address _affiliate,\n    uint256 _productId,\n    uint256 _licenseId,\n    uint256 _purchaseAmount)\n    internal\n  {\n    uint256 affiliateCut = affiliateProgram.cutFor(\n      _affiliate,\n      _productId,\n      _licenseId,\n      _purchaseAmount);\n    if(affiliateCut > 0) {\n      require(affiliateCut < _purchaseAmount, \"LicenseSale._handleAffiliate(): affiliateCut < _purchaseAmount\");\n      affiliateProgram.credit(_affiliate, _licenseId, affiliateCut);\n    }\n  }\n\n  function _performRenewal(uint256 _tokenId, uint256 _numCycles) internal {\n    // You cannot renew a non-expiring license\n    // ... but in what scenario can this happen?\n    // require(licenses[_tokenId].expirationTime != 0);\n    uint256 productId = licenses[_tokenId].productId;\n\n    // If our expiration is in the future, renewing adds time to that future expiration\n    // If our expiration has passed already, then we use `now` as the base.\n    uint256 renewalBaseTime = Math.max(now, licenses[_tokenId].expirationTime);\n\n    // We assume that the payment has been validated outside of this function\n    uint256 newExpirationTime = renewalBaseTime.add(productInventory.intervalOf(productId).mul(_numCycles));\n\n    licenses[_tokenId].expirationTime = newExpirationTime;\n\n    emit LicenseRenewal(\n      licenseOwnership.ownerOf(_tokenId),\n      msg.sender,\n      _tokenId,\n      productId,\n      newExpirationTime\n    );\n  }\n\n  function _affiliateProgramIsActive() internal view returns (bool) {\n    return\n      address(affiliateProgram) != address(0) &&\n      affiliateProgram.storeAddress() == address(this) &&\n      !affiliateProgram.paused();\n  }\n\n  /** owner **/\n  function setAffiliateProgramAddress(address _address) external onlyOwner {\n    AffiliateProgram candidateContract = AffiliateProgram(_address);\n    require(candidateContract.isAffiliateProgram());\n    affiliateProgram = candidateContract;\n  }\n\n  function setRenewalsCreditAffiliatesFor(uint256 _newTime) external onlyOwner {\n    renewalsCreditAffiliatesFor = _newTime;\n  }\n\n  function createPromotionalPurchase(\n    uint256 _productId,\n    uint256 _numCycles,\n    address _assignee,\n    uint256 _attributes\n    )\n    external\n    onlyOwner\n    whenTokenNotPaused\n    returns (uint256)\n  {\n    return _performPurchase(\n      _productId,\n      _numCycles,\n      _assignee,\n      _attributes,\n      address(0));\n  }\n\n  function createPromotionalRenewal(\n    uint256 _tokenId,\n    uint256 _numCycles\n    )\n    external\n    onlyOwner\n    whenTokenNotPaused\n  {\n    uint256 productId = licenses[_tokenId].productId;\n    productInventory.requireRenewableProduct(productId);\n\n    return _performRenewal(_tokenId, _numCycles);\n  }\n\n  /** anyone **/\n  /**\n  * @notice Makes a purchase of a product.\n  * @dev Requires that the value sent is exactly the price of the product\n  * @param _productId - the product to purchase\n  * @param _numCycles - the number of cycles being purchased. This number should be `1` for non-subscription products and the number of cycles for subscriptions.\n  * @param _assignee - the address to assign the purchase to (doesn't have to be msg.sender)\n  * @param _affiliate - the address to of the affiliate - use address(0) if none\n  */\n  function purchase(\n    uint256 _productId,\n    uint256 _numCycles,\n    address _assignee,\n    address _affiliate\n    )\n    external\n    whenTokenNotPaused\n    returns (uint256)\n  {\n    require(address(daiContract) != address(0), \"LicenseSale.purchase(): DAI contract address is unset\");\n    require(_productId != 0, \"LicenseSale.purchase(): productID must be non-zero\");\n    require(_numCycles != 0, \"LicenseSale.purchase(): numCycles must be non-zero\");\n    require(_assignee != address(0), \"LicenseSale.purchase(): assignee must be non-zero\");\n    // msg.value can be zero: free products are supported\n\n    // Don't bother dealing with excess payments. Ensure the price paid is\n    // accurate. No more, no less.\n    // require(msg.value == productInventory.costForProductCycles(_productId, _numCycles));\n    uint256 cost = productInventory.costForProductCycles(_productId, _numCycles);\n    require(daiContract.allowance(msg.sender, address(this)) == cost, \"LicenseSale.purchase(): not enough DAI\");\n    bool ok = daiContract.transferFrom(msg.sender, address(this), cost);\n    require(ok, \"LicenseSale.purchase(): DAI transfer failed\");\n\n    // Non-subscription products should send a _numCycle of 1 -- you can't buy a\n    // multiple quantity of a non-subscription product with this function\n    if(!productInventory.isSubscriptionProduct(_productId)) {\n      require(_numCycles == 1);\n    }\n\n    // this can, of course, be gamed by malicious miners. But it's adequate for our application\n    // Feel free to add your own strategies for product attributes\n    // solium-disable-next-line security/no-block-members, zeppelin/no-arithmetic-operations\n    uint256 attributes = uint256(keccak256(abi.encodePacked(blockhash(block.number-1))))^_productId^(uint256(_assignee));\n    uint256 licenseId = _performPurchase(\n      _productId,\n      _numCycles,\n      _assignee,\n      attributes,\n      _affiliate);\n\n    if(\n      productInventory.priceOf(_productId) > 0 &&\n      _affiliate != address(0) &&\n      _affiliateProgramIsActive()\n    ) {\n      _handleAffiliate(\n        _affiliate,\n        _productId,\n        licenseId,\n        cost);\n    }\n\n    return licenseId;\n  }\n\n  /**\n   * @notice Renews a subscription\n   */\n  function renew(\n    uint256 _tokenId,\n    uint256 _numCycles\n    )\n    external\n    whenTokenNotPaused\n  {\n    require(_numCycles != 0);\n    require(licenseOwnership.ownerOf(_tokenId) != address(0));\n\n    uint256 productId = licenses[_tokenId].productId;\n    productInventory.requireRenewableProduct(productId);\n\n    // Transfer the DAI\n    uint256 renewalCost = productInventory.costForProductCycles(productId, _numCycles);\n    require(daiContract.allowance(msg.sender, address(this)) >= renewalCost, \"LicenseSale.renew(): not enough DAI\");\n    bool ok = daiContract.transferFrom(msg.sender, address(this), renewalCost);\n    require(ok, \"LicenseSale.renew(): DAI transfer failed\");\n\n    _performRenewal(_tokenId, _numCycles);\n\n    if(\n      renewalCost > 0 &&\n      licenses[_tokenId].affiliate != address(0) &&\n      _affiliateProgramIsActive() &&\n      licenses[_tokenId].issuedTime.add(renewalsCreditAffiliatesFor) > now\n    ) {\n      _handleAffiliate(\n        licenses[_tokenId].affiliate,\n        productId,\n        _tokenId,\n        renewalCost);\n    }\n  }\n\n\n\n  /**\n   * @notice withdrawal address\n   */\n  address public withdrawalAddress;\n\n  /**\n   * @notice Sets a new withdrawalAddress\n   * @param _newWithdrawalAddress - the address where we'll send the funds\n   */\n  function setWithdrawalAddress(address _newWithdrawalAddress) external onlyOwner {\n    require(_newWithdrawalAddress != address(0), \"LicenseSale.setWithdrawalAddress(): new withdrawalAddress must be non-zero\");\n    withdrawalAddress = _newWithdrawalAddress;\n  }\n\n  /**\n   * @notice Withdraw the balance to the withdrawalAddress\n   * @dev We set a withdrawal address seperate from the CFO because this allows us to withdraw to a cold wallet.\n   */\n  function withdrawBalance() external onlyOwner {\n    require(withdrawalAddress != address(0), \"LicenseSale.withdrawBalance(): withdrawalAddress must be non-zero\");\n\n    bool ok = daiContract.transfer(withdrawalAddress, daiContract.balanceOf(address(this)));\n    require(ok, \"LicenseSale.withdrawBalance(): DAI transfer failed\");\n  }\n\n}\n",
  "sourcePath": "/home/bryn/projects/ujo/dotta-license/dot-license-contracts/contracts/LicenseSale.sol",
  "compiler": {
    "name": "solc",
    "version": "0.5.0+commit.1d4f565a.Emscripten.clang"
  },
  "schemaVersion": "3.0.12",
  "updatedAt": "2019-08-23T21:48:38.184Z",
  "devdoc": {
    "methods": {
      "isOwner()": {
        "details": "Returns true if the caller is the current owner."
      },
      "licenseAffiliate(uint256)": {
        "params": {
          "_licenseId": "the license id"
        }
      },
      "licenseAttributes(uint256)": {
        "params": {
          "_licenseId": "the license id"
        }
      },
      "licenseExpirationTime(uint256)": {
        "params": {
          "_licenseId": "the license id"
        }
      },
      "licenseInfo(uint256)": {
        "params": {
          "_licenseId": "the license id"
        }
      },
      "licenseIssuedTime(uint256)": {
        "params": {
          "_licenseId": "the license id"
        }
      },
      "licenseProductId(uint256)": {
        "params": {
          "_licenseId": "the license id"
        }
      },
      "owner()": {
        "details": "Returns the address of the current owner."
      },
      "purchase(uint256,uint256,address,address)": {
        "details": "Requires that the value sent is exactly the price of the product",
        "params": {
          "_affiliate": "- the address to of the affiliate - use address(0) if none",
          "_assignee": "- the address to assign the purchase to (doesn't have to be msg.sender)",
          "_numCycles": "- the number of cycles being purchased. This number should be `1` for non-subscription products and the number of cycles for subscriptions.",
          "_productId": "- the product to purchase"
        }
      },
      "renounceOwnership()": {
        "details": "Leaves the contract without owner. It will not be possible to call `onlyOwner` functions anymore. Can only be called by the current owner.     * NOTE: Renouncing ownership will leave the contract without an owner, thereby removing any functionality that is only available to the owner."
      },
      "setWithdrawalAddress(address)": {
        "params": {
          "_newWithdrawalAddress": "- the address where we'll send the funds"
        }
      },
      "transferOwnership(address)": {
        "details": "Transfers ownership of the contract to a new account (`newOwner`). Can only be called by the current owner."
      },
      "withdrawBalance()": {
        "details": "We set a withdrawal address seperate from the CFO because this allows us to withdraw to a cold wallet."
      }
    }
  },
  "userdoc": {
    "methods": {
      "licenseAffiliate(uint256)": {
        "notice": "Get a the affiliate credited for the sale of this license"
      },
      "licenseAttributes(uint256)": {
        "notice": "Get a license's attributes"
      },
      "licenseExpirationTime(uint256)": {
        "notice": "Get a license's issueTime"
      },
      "licenseInfo(uint256)": {
        "notice": "Get a license's info"
      },
      "licenseIssuedTime(uint256)": {
        "notice": "Get a license's issueTime"
      },
      "licenseProductId(uint256)": {
        "notice": "Get a license's productId"
      },
      "purchase(uint256,uint256,address,address)": {
        "notice": "Makes a purchase of a product."
      },
      "renew(uint256,uint256)": {
        "notice": "Renews a subscription"
      },
      "setAffiliateProgramAddress(address)": {
        "notice": "owner *"
      },
      "setWithdrawalAddress(address)": {
        "notice": "Sets a new withdrawalAddress"
      },
      "withdrawBalance()": {
        "notice": "Withdraw the balance to the withdrawalAddress"
      }
    }
  }
}