{
  "contractName": "LicenseCore",
  "abi": [
    {
      "constant": true,
      "inputs": [
        {
          "name": "interfaceID",
          "type": "bytes4"
        }
      ],
      "name": "supportsInterface",
      "outputs": [
        {
          "name": "",
          "type": "bool"
        }
      ],
      "payable": false,
      "stateMutability": "view",
      "type": "function"
    },
    {
      "constant": false,
      "inputs": [
        {
          "name": "_to",
          "type": "address"
        }
      ],
      "name": "approveAll",
      "outputs": [],
      "payable": false,
      "stateMutability": "nonpayable",
      "type": "function"
    },
    {
      "constant": true,
      "inputs": [],
      "name": "name",
      "outputs": [
        {
          "name": "",
          "type": "string"
        }
      ],
      "payable": false,
      "stateMutability": "view",
      "type": "function"
    },
    {
      "constant": true,
      "inputs": [
        {
          "name": "_tokenId",
          "type": "uint256"
        }
      ],
      "name": "getApproved",
      "outputs": [
        {
          "name": "",
          "type": "address"
        }
      ],
      "payable": false,
      "stateMutability": "view",
      "type": "function"
    },
    {
      "constant": false,
      "inputs": [
        {
          "name": "_to",
          "type": "address"
        },
        {
          "name": "_tokenId",
          "type": "uint256"
        }
      ],
      "name": "approve",
      "outputs": [],
      "payable": false,
      "stateMutability": "nonpayable",
      "type": "function"
    },
    {
      "constant": true,
      "inputs": [],
      "name": "implementsERC721",
      "outputs": [
        {
          "name": "",
          "type": "bool"
        }
      ],
      "payable": false,
      "stateMutability": "pure",
      "type": "function"
    },
    {
      "constant": true,
      "inputs": [],
      "name": "totalSupply",
      "outputs": [
        {
          "name": "",
          "type": "uint256"
        }
      ],
      "payable": false,
      "stateMutability": "view",
      "type": "function"
    },
    {
      "constant": true,
      "inputs": [],
      "name": "saleController",
      "outputs": [
        {
          "name": "",
          "type": "address"
        }
      ],
      "payable": false,
      "stateMutability": "view",
      "type": "function"
    },
    {
      "constant": false,
      "inputs": [
        {
          "name": "_newBaseURI",
          "type": "string"
        }
      ],
      "name": "setTokenMetadataBaseURI",
      "outputs": [],
      "payable": false,
      "stateMutability": "nonpayable",
      "type": "function"
    },
    {
      "constant": false,
      "inputs": [
        {
          "name": "_from",
          "type": "address"
        },
        {
          "name": "_to",
          "type": "address"
        },
        {
          "name": "_tokenId",
          "type": "uint256"
        }
      ],
      "name": "transferFrom",
      "outputs": [],
      "payable": false,
      "stateMutability": "nonpayable",
      "type": "function"
    },
    {
      "constant": true,
      "inputs": [
        {
          "name": "_owner",
          "type": "address"
        },
        {
          "name": "_index",
          "type": "uint256"
        }
      ],
      "name": "tokenOfOwnerByIndex",
      "outputs": [
        {
          "name": "_tokenId",
          "type": "uint256"
        }
      ],
      "payable": false,
      "stateMutability": "view",
      "type": "function"
    },
    {
      "constant": false,
      "inputs": [
        {
          "name": "_to",
          "type": "address"
        },
        {
          "name": "_tokenId",
          "type": "uint256"
        }
      ],
      "name": "mint",
      "outputs": [],
      "payable": false,
      "stateMutability": "nonpayable",
      "type": "function"
    },
    {
      "constant": false,
      "inputs": [
        {
          "name": "_from",
          "type": "address"
        },
        {
          "name": "_to",
          "type": "address"
        },
        {
          "name": "_tokenId",
          "type": "uint256"
        }
      ],
      "name": "safeTransferFrom",
      "outputs": [],
      "payable": false,
      "stateMutability": "nonpayable",
      "type": "function"
    },
    {
      "constant": true,
      "inputs": [
        {
          "name": "_index",
          "type": "uint256"
        }
      ],
      "name": "tokenByIndex",
      "outputs": [
        {
          "name": "",
          "type": "uint256"
        }
      ],
      "payable": false,
      "stateMutability": "view",
      "type": "function"
    },
    {
      "constant": false,
      "inputs": [
        {
          "name": "_to",
          "type": "address"
        }
      ],
      "name": "disapproveAll",
      "outputs": [],
      "payable": false,
      "stateMutability": "nonpayable",
      "type": "function"
    },
    {
      "constant": true,
      "inputs": [
        {
          "name": "_owner",
          "type": "address"
        }
      ],
      "name": "tokensOf",
      "outputs": [
        {
          "name": "",
          "type": "uint256[]"
        }
      ],
      "payable": false,
      "stateMutability": "view",
      "type": "function"
    },
    {
      "constant": true,
      "inputs": [],
      "name": "paused",
      "outputs": [
        {
          "name": "",
          "type": "bool"
        }
      ],
      "payable": false,
      "stateMutability": "view",
      "type": "function"
    },
    {
      "constant": true,
      "inputs": [
        {
          "name": "_tokenId",
          "type": "uint256"
        }
      ],
      "name": "ownerOf",
      "outputs": [
        {
          "name": "",
          "type": "address"
        }
      ],
      "payable": false,
      "stateMutability": "view",
      "type": "function"
    },
    {
      "constant": true,
      "inputs": [],
      "name": "newContractAddress",
      "outputs": [
        {
          "name": "",
          "type": "address"
        }
      ],
      "payable": false,
      "stateMutability": "view",
      "type": "function"
    },
    {
      "constant": true,
      "inputs": [
        {
          "name": "_owner",
          "type": "address"
        }
      ],
      "name": "balanceOf",
      "outputs": [
        {
          "name": "",
          "type": "uint256"
        }
      ],
      "payable": false,
      "stateMutability": "view",
      "type": "function"
    },
    {
      "constant": false,
      "inputs": [],
      "name": "renounceOwnership",
      "outputs": [],
      "payable": false,
      "stateMutability": "nonpayable",
      "type": "function"
    },
    {
      "constant": false,
      "inputs": [],
      "name": "pause",
      "outputs": [],
      "payable": false,
      "stateMutability": "nonpayable",
      "type": "function"
    },
    {
      "constant": true,
      "inputs": [],
      "name": "owner",
      "outputs": [
        {
          "name": "",
          "type": "address"
        }
      ],
      "payable": false,
      "stateMutability": "view",
      "type": "function"
    },
    {
      "constant": true,
      "inputs": [],
      "name": "isOwner",
      "outputs": [
        {
          "name": "",
          "type": "bool"
        }
      ],
      "payable": false,
      "stateMutability": "view",
      "type": "function"
    },
    {
      "constant": true,
      "inputs": [],
      "name": "symbol",
      "outputs": [
        {
          "name": "",
          "type": "string"
        }
      ],
      "payable": false,
      "stateMutability": "view",
      "type": "function"
    },
    {
      "constant": false,
      "inputs": [
        {
          "name": "_to",
          "type": "address"
        },
        {
          "name": "_approved",
          "type": "bool"
        }
      ],
      "name": "setApprovalForAll",
      "outputs": [],
      "payable": false,
      "stateMutability": "nonpayable",
      "type": "function"
    },
    {
      "constant": true,
      "inputs": [],
      "name": "NAME",
      "outputs": [
        {
          "name": "",
          "type": "string"
        }
      ],
      "payable": false,
      "stateMutability": "view",
      "type": "function"
    },
    {
      "constant": false,
      "inputs": [
        {
          "name": "_to",
          "type": "address"
        },
        {
          "name": "_tokenId",
          "type": "uint256"
        }
      ],
      "name": "transfer",
      "outputs": [],
      "payable": false,
      "stateMutability": "nonpayable",
      "type": "function"
    },
    {
      "constant": false,
      "inputs": [
        {
          "name": "_tokenId",
          "type": "uint256"
        }
      ],
      "name": "takeOwnership",
      "outputs": [],
      "payable": false,
      "stateMutability": "nonpayable",
      "type": "function"
    },
    {
      "constant": true,
      "inputs": [],
      "name": "tokenMetadataBaseURI",
      "outputs": [
        {
          "name": "",
          "type": "string"
        }
      ],
      "payable": false,
      "stateMutability": "view",
      "type": "function"
    },
    {
      "constant": false,
      "inputs": [
        {
          "name": "_from",
          "type": "address"
        },
        {
          "name": "_to",
          "type": "address"
        },
        {
          "name": "_tokenId",
          "type": "uint256"
        },
        {
          "name": "_data",
          "type": "bytes"
        }
      ],
      "name": "safeTransferFrom",
      "outputs": [],
      "payable": false,
      "stateMutability": "nonpayable",
      "type": "function"
    },
    {
      "constant": true,
      "inputs": [
        {
          "name": "_tokenId",
          "type": "uint256"
        }
      ],
      "name": "tokenURI",
      "outputs": [
        {
          "name": "infoUrl",
          "type": "string"
        }
      ],
      "payable": false,
      "stateMutability": "view",
      "type": "function"
    },
    {
      "constant": true,
      "inputs": [
        {
          "name": "_owner",
          "type": "address"
        },
        {
          "name": "_operator",
          "type": "address"
        }
      ],
      "name": "isApprovedForAll",
      "outputs": [
        {
          "name": "",
          "type": "bool"
        }
      ],
      "payable": false,
      "stateMutability": "view",
      "type": "function"
    },
    {
      "constant": false,
      "inputs": [
        {
          "name": "_saleController",
          "type": "address"
        }
      ],
      "name": "setSaleController",
      "outputs": [],
      "payable": false,
      "stateMutability": "nonpayable",
      "type": "function"
    },
    {
      "constant": false,
      "inputs": [
        {
          "name": "newOwner",
          "type": "address"
        }
      ],
      "name": "transferOwnership",
      "outputs": [],
      "payable": false,
      "stateMutability": "nonpayable",
      "type": "function"
    },
    {
      "constant": true,
      "inputs": [],
      "name": "SYMBOL",
      "outputs": [
        {
          "name": "",
          "type": "string"
        }
      ],
      "payable": false,
      "stateMutability": "view",
      "type": "function"
    },
    {
      "payable": false,
      "stateMutability": "nonpayable",
      "type": "fallback"
    },
    {
      "anonymous": false,
      "inputs": [
        {
          "indexed": false,
          "name": "newContract",
          "type": "address"
        }
      ],
      "name": "ContractUpgrade",
      "type": "event"
    },
    {
      "anonymous": false,
      "inputs": [
        {
          "indexed": true,
          "name": "from",
          "type": "address"
        },
        {
          "indexed": true,
          "name": "to",
          "type": "address"
        },
        {
          "indexed": true,
          "name": "tokenId",
          "type": "uint256"
        }
      ],
      "name": "Transfer",
      "type": "event"
    },
    {
      "anonymous": false,
      "inputs": [
        {
          "indexed": true,
          "name": "owner",
          "type": "address"
        },
        {
          "indexed": true,
          "name": "approved",
          "type": "address"
        },
        {
          "indexed": true,
          "name": "tokenId",
          "type": "uint256"
        }
      ],
      "name": "Approval",
      "type": "event"
    },
    {
      "anonymous": false,
      "inputs": [
        {
          "indexed": true,
          "name": "owner",
          "type": "address"
        },
        {
          "indexed": true,
          "name": "operator",
          "type": "address"
        },
        {
          "indexed": false,
          "name": "approved",
          "type": "bool"
        }
      ],
      "name": "ApprovalForAll",
      "type": "event"
    },
    {
      "anonymous": false,
      "inputs": [],
      "name": "Pause",
      "type": "event"
    },
    {
      "anonymous": false,
      "inputs": [],
      "name": "Unpause",
      "type": "event"
    },
    {
      "anonymous": false,
      "inputs": [
        {
          "indexed": true,
          "name": "previousOwner",
          "type": "address"
        },
        {
          "indexed": true,
          "name": "newOwner",
          "type": "address"
        }
      ],
      "name": "OwnershipTransferred",
      "type": "event"
    },
    {
      "constant": false,
      "inputs": [
        {
          "name": "_v2Address",
          "type": "address"
        }
      ],
      "name": "setNewAddress",
      "outputs": [],
      "payable": false,
      "stateMutability": "nonpayable",
      "type": "function"
    },
    {
      "constant": false,
      "inputs": [],
      "name": "unpause",
      "outputs": [],
      "payable": false,
      "stateMutability": "nonpayable",
      "type": "function"
    }
  ],
  "bytecode": "0x608060405260008060146101000a81548160ff0219169083151502179055506040805190810160405280601081526020017f687474703a2f2f6c6f63616c686f737400000000000000000000000000000000815250600890805190602001906200006b9291906200012e565b50336000806101000a81548173ffffffffffffffffffffffffffffffffffffffff021916908373ffffffffffffffffffffffffffffffffffffffff1602179055506000809054906101000a900473ffffffffffffffffffffffffffffffffffffffff1673ffffffffffffffffffffffffffffffffffffffff16600073ffffffffffffffffffffffffffffffffffffffff167f8be0079c531659141344cd1fd0a4f28419497f9722a3daafe3b4186f6b6457e060405160405180910390a3620001dd565b828054600181600116156101000203166002900490600052602060002090601f016020900481019282601f106200017157805160ff1916838001178555620001a2565b82800160010185558215620001a2579182015b82811115620001a157825182559160200191906001019062000184565b5b509050620001b19190620001b5565b5090565b620001da91905b80821115620001d6576000816000905550600101620001bc565b5090565b90565b61504e80620001ed6000396000f3fe6080604052600436106101d8576000357c0100000000000000000000000000000000000000000000000000000000900463ffffffff16806301ffc9a7146101f15780630621472c1461026357806306fdde03146102b4578063081812fc14610344578063095ea7b3146103bf5780631051db341461041a57806318160ddd146104495780631e1ddacc146104745780631e20363a146104cb57806323b872dd146105515780632f745c59146105cc5780633f4ba83a1461063b57806340c10f191461065257806342842e0e146106ad5780634f6ccce71461072857806351dabd45146107775780635a3f2672146107c85780635c975abb1461086e5780636352211e1461089d5780636af04a571461091857806370a082311461096f578063715018a6146109d457806371587988146109eb5780638456cb5914610a3c5780638da5cb5b14610a535780638f32d59b14610aaa57806395d89b4114610ad9578063a22cb46514610b69578063a3f4df7e14610bc6578063a9059cbb14610c56578063b2e6ceeb14610cb1578063b5cab1ce14610cec578063b88d4fde14610d7c578063c87b56dd14610e8e578063e985e9c514610f42578063eda003ce14610fcb578063f2fde38b1461101c578063f76f8d781461106d575b3480156101e457600080fd5b50600015156101ef57fe5b005b3480156101fd57600080fd5b506102496004803603602081101561021457600080fd5b8101908080357bffffffffffffffffffffffffffffffffffffffffffffffffffffffff191690602001909291905050506110fd565b604051808215151515815260200191505060405180910390f35b34801561026f57600080fd5b506102b26004803603602081101561028657600080fd5b81019080803573ffffffffffffffffffffffffffffffffffffffff16906020019092919050505061124e565b005b3480156102c057600080fd5b506102c9611590565b6040518080602001828103825283818151815260200191508051906020019080838360005b838110156103095780820151818401526020810190506102ee565b50505050905090810190601f1680156103365780820380516001836020036101000a031916815260200191505b509250505060405180910390f35b34801561035057600080fd5b5061037d6004803603602081101561036757600080fd5b81019080803590602001909291905050506115cd565b604051808273ffffffffffffffffffffffffffffffffffffffff1673ffffffffffffffffffffffffffffffffffffffff16815260200191505060405180910390f35b3480156103cb57600080fd5b50610418600480360360408110156103e257600080fd5b81019080803573ffffffffffffffffffffffffffffffffffffffff1690602001909291908035906020019092919050505061160a565b005b34801561042657600080fd5b5061042f6119d4565b604051808215151515815260200191505060405180910390f35b34801561045557600080fd5b5061045e6119dd565b6040518082815260200191505060405180910390f35b34801561048057600080fd5b506104896119e7565b604051808273ffffffffffffffffffffffffffffffffffffffff1673ffffffffffffffffffffffffffffffffffffffff16815260200191505060405180910390f35b3480156104d757600080fd5b5061054f600480360360208110156104ee57600080fd5b810190808035906020019064010000000081111561050b57600080fd5b82018360208201111561051d57600080fd5b8035906020019184600183028401116401000000008311171561053f57600080fd5b9091929391929390505050611a0d565b005b34801561055d57600080fd5b506105ca6004803603606081101561057457600080fd5b81019080803573ffffffffffffffffffffffffffffffffffffffff169060200190929190803573ffffffffffffffffffffffffffffffffffffffff16906020019092919080359060200190929190505050611a9f565b005b3480156105d857600080fd5b50610625600480360360408110156105ef57600080fd5b81019080803573ffffffffffffffffffffffffffffffffffffffff16906020019092919080359060200190929190505050611d22565b6040518082815260200191505060405180910390f35b34801561064757600080fd5b50610650611e28565b005b34801561065e57600080fd5b506106ab6004803603604081101561067557600080fd5b81019080803573ffffffffffffffffffffffffffffffffffffffff16906020019092919080359060200190929190505050611fb5565b005b3480156106b957600080fd5b50610726600480360360608110156106d057600080fd5b81019080803573ffffffffffffffffffffffffffffffffffffffff169060200190929190803573ffffffffffffffffffffffffffffffffffffffff169060200190929190803590602001909291905050506121af565b005b34801561073457600080fd5b506107616004803603602081101561074b57600080fd5b810190808035906020019092919050505061227b565b6040518082815260200191505060405180910390f35b34801561078357600080fd5b506107c66004803603602081101561079a57600080fd5b81019080803573ffffffffffffffffffffffffffffffffffffffff169060200190929190505050612329565b005b3480156107d457600080fd5b50610817600480360360208110156107eb57600080fd5b81019080803573ffffffffffffffffffffffffffffffffffffffff169060200190929190505050612597565b6040518080602001828103825283818151815260200191508051906020019060200280838360005b8381101561085a57808201518184015260208101905061083f565b505050509050019250505060405180910390f35b34801561087a57600080fd5b5061088361262e565b604051808215151515815260200191505060405180910390f35b3480156108a957600080fd5b506108d6600480360360208110156108c057600080fd5b8101908080359060200190929190505050612641565b604051808273ffffffffffffffffffffffffffffffffffffffff1673ffffffffffffffffffffffffffffffffffffffff16815260200191505060405180910390f35b34801561092457600080fd5b5061092d61274e565b604051808273ffffffffffffffffffffffffffffffffffffffff1673ffffffffffffffffffffffffffffffffffffffff16815260200191505060405180910390f35b34801561097b57600080fd5b506109be6004803603602081101561099257600080fd5b81019080803573ffffffffffffffffffffffffffffffffffffffff169060200190929190505050612774565b6040518082815260200191505060405180910390f35b3480156109e057600080fd5b506109e961288a565b005b3480156109f757600080fd5b50610a3a60048036036020811015610a0e57600080fd5b81019080803573ffffffffffffffffffffffffffffffffffffffff1690602001909291905050506129c5565b005b348015610a4857600080fd5b50610a51612b92565b005b348015610a5f57600080fd5b50610a68612d02565b604051808273ffffffffffffffffffffffffffffffffffffffff1673ffffffffffffffffffffffffffffffffffffffff16815260200191505060405180910390f35b348015610ab657600080fd5b50610abf612d2b565b604051808215151515815260200191505060405180910390f35b348015610ae557600080fd5b50610aee612d82565b6040518080602001828103825283818151815260200191508051906020019080838360005b83811015610b2e578082015181840152602081019050610b13565b50505050905090810190601f168015610b5b5780820380516001836020036101000a031916815260200191505b509250505060405180910390f35b348015610b7557600080fd5b50610bc460048036036040811015610b8c57600080fd5b81019080803573ffffffffffffffffffffffffffffffffffffffff169060200190929190803515159060200190929190505050612dbf565b005b348015610bd257600080fd5b50610bdb612e8c565b6040518080602001828103825283818151815260200191508051906020019080838360005b83811015610c1b578082015181840152602081019050610c00565b50505050905090810190601f168015610c485780820380516001836020036101000a031916815260200191505b509250505060405180910390f35b348015610c6257600080fd5b50610caf60048036036040811015610c7957600080fd5b81019080803573ffffffffffffffffffffffffffffffffffffffff16906020019092919080359060200190929190505050612ec5565b005b348015610cbd57600080fd5b50610cea60048036036020811015610cd457600080fd5b8101908080359060200190929190505050613078565b005b348015610cf857600080fd5b50610d01613202565b6040518080602001828103825283818151815260200191508051906020019080838360005b83811015610d41578082015181840152602081019050610d26565b50505050905090810190601f168015610d6e5780820380516001836020036101000a031916815260200191505b509250505060405180910390f35b348015610d8857600080fd5b50610e8c60048036036080811015610d9f57600080fd5b81019080803573ffffffffffffffffffffffffffffffffffffffff169060200190929190803573ffffffffffffffffffffffffffffffffffffffff1690602001909291908035906020019092919080359060200190640100000000811115610e0657600080fd5b820183602082011115610e1857600080fd5b80359060200191846001830284011164010000000083111715610e3a57600080fd5b91908080601f016020809104026020016040519081016040528093929190818152602001838380828437600081840152601f19601f8201169050808301925050505050505091929192905050506132a0565b005b348015610e9a57600080fd5b50610ec760048036036020811015610eb157600080fd5b8101908080359060200190929190505050613740565b6040518080602001828103825283818151815260200191508051906020019080838360005b83811015610f07578082015181840152602081019050610eec565b50505050905090810190601f168015610f345780820380516001836020036101000a031916815260200191505b509250505060405180910390f35b348015610f4e57600080fd5b50610fb160048036036040811015610f6557600080fd5b81019080803573ffffffffffffffffffffffffffffffffffffffff169060200190929190803573ffffffffffffffffffffffffffffffffffffffff1690602001909291905050506137f5565b604051808215151515815260200191505060405180910390f35b348015610fd757600080fd5b5061101a60048036036020811015610fee57600080fd5b81019080803573ffffffffffffffffffffffffffffffffffffffff169060200190929190505050613889565b005b34801561102857600080fd5b5061106b6004803603602081101561103f57600080fd5b81019080803573ffffffffffffffffffffffffffffffffffffffff169060200190929190505050613949565b005b34801561107957600080fd5b506110826139d1565b6040518080602001828103825283818151815260200191508051906020019080838360005b838110156110c25780820151818401526020810190506110a7565b50505050905090810190601f1680156110ef5780820380516001836020036101000a031916815260200191505b509250505060405180910390f35b60006301ffc9a77c0100000000000000000000000000000000000000000000000000000000027bffffffffffffffffffffffffffffffffffffffffffffffffffffffff1916827bffffffffffffffffffffffffffffffffffffffffffffffffffffffff191614806111af5750635b5e139f7c010000000000000000000000000000000000000000000000000000000002827bffffffffffffffffffffffffffffffffffffffffffffffffffffffff1916145b806111fb5750636466353c7c010000000000000000000000000000000000000000000000000000000002827bffffffffffffffffffffffffffffffffffffffffffffffffffffffff1916145b80611247575063780e9d637c010000000000000000000000000000000000000000000000000000000002827bffffffffffffffffffffffffffffffffffffffffffffffffffffffff1916145b9050919050565b600060149054906101000a900460ff161515156112f9576040517f08c379a00000000000000000000000000000000000000000000000000000000081526004018080602001828103825260278152602001807f43616e277420646f20746861742069662074686520636f6e747261637420697381526020017f207061757365640000000000000000000000000000000000000000000000000081525060400191505060405180910390fd5b3373ffffffffffffffffffffffffffffffffffffffff168173ffffffffffffffffffffffffffffffffffffffff16141515156113c3576040517f08c379a000000000000000000000000000000000000000000000000000000000815260040180806020018281038252603a8152602001807f4c6963656e73654f776e6572736869702e617070726f7665416c6c28293a206e81526020017f6577206f776e65722063616e277420626520796f757273656c6600000000000081525060400191505060405180910390fd5b600073ffffffffffffffffffffffffffffffffffffffff168173ffffffffffffffffffffffffffffffffffffffff161415151561148e576040517f08c379a00000000000000000000000000000000000000000000000000000000081526004018080602001828103825260398152602001807f4c6963656e73654f776e6572736869702e617070726f7665416c6c28293a206e81526020017f6577206f776e6572206d757374206265206e6f6e2d7a65726f0000000000000081525060400191505060405180910390fd5b6001600560003373ffffffffffffffffffffffffffffffffffffffff1673ffffffffffffffffffffffffffffffffffffffff16815260200190815260200160002060008373ffffffffffffffffffffffffffffffffffffffff1673ffffffffffffffffffffffffffffffffffffffff16815260200190815260200160002060006101000a81548160ff0219169083151502179055508073ffffffffffffffffffffffffffffffffffffffff163373ffffffffffffffffffffffffffffffffffffffff167f17307eab39ab6107e8899845ad3d59bd9653f200f220920489ca2b5937696c316001604051808215151515815260200191505060405180910390a350565b60606040805190810160405280600381526020017f556a6f0000000000000000000000000000000000000000000000000000000000815250905090565b60006004600083815260200190815260200160002060009054906101000a900473ffffffffffffffffffffffffffffffffffffffff169050919050565b600060149054906101000a900460ff161515156116b5576040517f08c379a00000000000000000000000000000000000000000000000000000000081526004018080602001828103825260278152602001807f43616e277420646f20746861742069662074686520636f6e747261637420697381526020017f207061757365640000000000000000000000000000000000000000000000000081525060400191505060405180910390fd5b803373ffffffffffffffffffffffffffffffffffffffff166116d682612641565b73ffffffffffffffffffffffffffffffffffffffff161415156117ad576040517f08c379a00000000000000000000000000000000000000000000000000000000081526004018080602001828103825260488152602001807f4c6963656e73654f776e6572736869702e6f6e6c794f776e65724f6628293a2081526020017f6f6e6c7920746865206f776e6572206f66207468617420746f6b656e2063616e81526020017f20646f207468617400000000000000000000000000000000000000000000000081525060600191505060405180910390fd5b60006117b883612641565b90508073ffffffffffffffffffffffffffffffffffffffff168473ffffffffffffffffffffffffffffffffffffffff16141515156118aa576040517f08c379a00000000000000000000000000000000000000000000000000000000081526004018080602001828103825260468152602001807f4c6963656e73654f776e6572736869702e617070726f766528293a206e65772081526020017f6f776e6572206d75737420626520646966666572656e742066726f6d206f6c6481526020017f206f776e6572000000000000000000000000000000000000000000000000000081525060600191505060405180910390fd5b600073ffffffffffffffffffffffffffffffffffffffff166118cb846115cd565b73ffffffffffffffffffffffffffffffffffffffff1614158061191b5750600073ffffffffffffffffffffffffffffffffffffffff168473ffffffffffffffffffffffffffffffffffffffff1614155b156119ce57836004600085815260200190815260200160002060006101000a81548173ffffffffffffffffffffffffffffffffffffffff021916908373ffffffffffffffffffffffffffffffffffffffff160217905550828473ffffffffffffffffffffffffffffffffffffffff168273ffffffffffffffffffffffffffffffffffffffff167f8c5be1e5ebec7d5bd14f71427d1e84f3dd0314c0f7b2291e5b200ac8c7c3b92560405160405180910390a45b50505050565b60006001905090565b6000600254905090565b600160009054906101000a900473ffffffffffffffffffffffffffffffffffffffff1681565b611a15612d2b565b1515611a89576040517f08c379a00000000000000000000000000000000000000000000000000000000081526004018080602001828103825260208152602001807f4f776e61626c653a2063616c6c6572206973206e6f7420746865206f776e657281525060200191505060405180910390fd5b818160089190611a9a929190614f51565b505050565b600060149054906101000a900460ff16151515611b4a576040517f08c379a00000000000000000000000000000000000000000000000000000000081526004018080602001828103825260278152602001807f43616e277420646f20746861742069662074686520636f6e747261637420697381526020017f207061757365640000000000000000000000000000000000000000000000000081525060400191505060405180910390fd5b611b5381613a0a565b1515611c13576040517f08c379a000000000000000000000000000000000000000000000000000000000815260040180806020018281038252604c8152602001807f4c6963656e73654f776e6572736869702e7472616e7366657246726f6d28293a81526020017f20796f7520617265206e6f7420617070726f76656420746f207472616e73666581526020017f72207468617420746f6b656e000000000000000000000000000000000000000081525060600191505060405180910390fd5b8273ffffffffffffffffffffffffffffffffffffffff16611c3382612641565b73ffffffffffffffffffffffffffffffffffffffff16141515611d0a576040517f08c379a000000000000000000000000000000000000000000000000000000000815260040180806020018281038252604e8152602001807f4c6963656e73654f776e6572736869702e7472616e7366657246726f6d28293a81526020017f202766726f6d27206d757374206265207468652063757272656e74206f776e6581526020017f72206f662074686520746f6b656e00000000000000000000000000000000000081525060600191505060405180910390fd5b611d1d611d1682612641565b8383613a74565b505050565b6000611d2d83612774565b82101515611dc9576040517f08c379a00000000000000000000000000000000000000000000000000000000081526004018080602001828103825260408152602001807f4c6963656e73654f776e6572736869702e746f6b656e4f664f776e657242794981526020017f6e64657828293a20746f6b656e20696e646578206f7574206f662072616e676581525060400191505060405180910390fd5b600660008473ffffffffffffffffffffffffffffffffffffffff1673ffffffffffffffffffffffffffffffffffffffff16815260200190815260200160002082815481101515611e1557fe5b9060005260206000200154905092915050565b611e30612d2b565b1515611ea4576040517f08c379a00000000000000000000000000000000000000000000000000000000081526004018080602001828103825260208152602001807f4f776e61626c653a2063616c6c6572206973206e6f7420746865206f776e657281525060200191505060405180910390fd5b600060149054906101000a900460ff161515611f4e576040517f08c379a000000000000000000000000000000000000000000000000000000000815260040180806020018281038252602b8152602001807f43616e277420646f20746861742069662074686520636f6e747261637420697381526020017f206e6f742070617573656400000000000000000000000000000000000000000081525060400191505060405180910390fd5b600073ffffffffffffffffffffffffffffffffffffffff16600960009054906101000a900473ffffffffffffffffffffffffffffffffffffffff1673ffffffffffffffffffffffffffffffffffffffff16141515611fab57600080fd5b611fb3613dd2565b565b600160009054906101000a900473ffffffffffffffffffffffffffffffffffffffff1673ffffffffffffffffffffffffffffffffffffffff163373ffffffffffffffffffffffffffffffffffffffff1614151561207a576040517f08c379a000000000000000000000000000000000000000000000000000000000815260040180806020018281038252601f8152602001807f6f6e6c792073616c65436f6e74726f6c6c65722063616e20646f20746861740081525060200191505060405180910390fd5b600073ffffffffffffffffffffffffffffffffffffffff168273ffffffffffffffffffffffffffffffffffffffff1614151515612145576040517f08c379a00000000000000000000000000000000000000000000000000000000081526004018080602001828103825260378152602001807f4c6963656e73654f776e6572736869702e5f6d696e7428293a2027746f27206181526020017f646472657373206d757374206265206e6f6e2d7a65726f00000000000000000081525060400191505060405180910390fd5b61214f8282613f40565b808273ffffffffffffffffffffffffffffffffffffffff16600073ffffffffffffffffffffffffffffffffffffffff167fddf252ad1be2c89b69c2b068fc378daa952ba7f163c4a11628f55a4df523b3ef60405160405180910390a45050565b600060149054906101000a900460ff1615151561225a576040517f08c379a00000000000000000000000000000000000000000000000000000000081526004018080602001828103825260278152602001807f43616e277420646f20746861742069662074686520636f6e747261637420697381526020017f207061757365640000000000000000000000000000000000000000000000000081525060400191505060405180910390fd5b61227683838360206040519081016040528060008152506132a0565b505050565b60006122856119dd565b82101515612321576040517f08c379a00000000000000000000000000000000000000000000000000000000081526004018080602001828103825260398152602001807f4c6963656e73654f776e6572736869702e746f6b656e4279496e64657828293a81526020017f20746f6b656e20696e646578206f7574206f662072616e67650000000000000081525060400191505060405180910390fd5b819050919050565b600060149054906101000a900460ff161515156123d4576040517f08c379a00000000000000000000000000000000000000000000000000000000081526004018080602001828103825260278152602001807f43616e277420646f20746861742069662074686520636f6e747261637420697381526020017f207061757365640000000000000000000000000000000000000000000000000081525060400191505060405180910390fd5b3373ffffffffffffffffffffffffffffffffffffffff168173ffffffffffffffffffffffffffffffffffffffff161415151561249e576040517f08c379a000000000000000000000000000000000000000000000000000000000815260040180806020018281038252603d8152602001807f4c6963656e73654f776e6572736869702e646973617070726f7665416c6c282981526020017f3a206e6577206f776e65722063616e277420626520796f757273656c6600000081525060400191505060405180910390fd5b600560003373ffffffffffffffffffffffffffffffffffffffff1673ffffffffffffffffffffffffffffffffffffffff16815260200190815260200160002060008273ffffffffffffffffffffffffffffffffffffffff1673ffffffffffffffffffffffffffffffffffffffff16815260200190815260200160002060006101000a81549060ff02191690558073ffffffffffffffffffffffffffffffffffffffff163373ffffffffffffffffffffffffffffffffffffffff167f17307eab39ab6107e8899845ad3d59bd9653f200f220920489ca2b5937696c316000604051808215151515815260200191505060405180910390a350565b6060600660008373ffffffffffffffffffffffffffffffffffffffff1673ffffffffffffffffffffffffffffffffffffffff16815260200190815260200160002080548060200260200160405190810160405280929190818152602001828054801561262257602002820191906000526020600020905b81548152602001906001019080831161260e575b50505050509050919050565b600060149054906101000a900460ff1681565b6000806003600084815260200190815260200160002060009054906101000a900473ffffffffffffffffffffffffffffffffffffffff169050600073ffffffffffffffffffffffffffffffffffffffff168173ffffffffffffffffffffffffffffffffffffffff1614151515612745576040517f08c379a00000000000000000000000000000000000000000000000000000000081526004018080602001828103825260328152602001807f4c6963656e73654f776e6572736869702e6f776e65724f6628293a206f776e6581526020017f72206d757374206265206e6f6e2d7a65726f000000000000000000000000000081525060400191505060405180910390fd5b80915050919050565b600960009054906101000a900473ffffffffffffffffffffffffffffffffffffffff1681565b60008073ffffffffffffffffffffffffffffffffffffffff168273ffffffffffffffffffffffffffffffffffffffff1614151515612840576040517f08c379a00000000000000000000000000000000000000000000000000000000081526004018080602001828103825260348152602001807f4c6963656e73654f776e6572736869702e62616c616e63654f6628293a206f7781526020017f6e6572206d757374206265206e6f6e2d7a65726f00000000000000000000000081525060400191505060405180910390fd5b600660008373ffffffffffffffffffffffffffffffffffffffff1673ffffffffffffffffffffffffffffffffffffffff168152602001908152602001600020805490509050919050565b612892612d2b565b1515612906576040517f08c379a00000000000000000000000000000000000000000000000000000000081526004018080602001828103825260208152602001807f4f776e61626c653a2063616c6c6572206973206e6f7420746865206f776e657281525060200191505060405180910390fd5b600073ffffffffffffffffffffffffffffffffffffffff166000809054906101000a900473ffffffffffffffffffffffffffffffffffffffff1673ffffffffffffffffffffffffffffffffffffffff167f8be0079c531659141344cd1fd0a4f28419497f9722a3daafe3b4186f6b6457e060405160405180910390a360008060006101000a81548173ffffffffffffffffffffffffffffffffffffffff021916908373ffffffffffffffffffffffffffffffffffffffff160217905550565b6129cd612d2b565b1515612a41576040517f08c379a00000000000000000000000000000000000000000000000000000000081526004018080602001828103825260208152602001807f4f776e61626c653a2063616c6c6572206973206e6f7420746865206f776e657281525060200191505060405180910390fd5b600060149054906101000a900460ff161515612aeb576040517f08c379a000000000000000000000000000000000000000000000000000000000815260040180806020018281038252602b8152602001807f43616e277420646f20746861742069662074686520636f6e747261637420697381526020017f206e6f742070617573656400000000000000000000000000000000000000000081525060400191505060405180910390fd5b80600960006101000a81548173ffffffffffffffffffffffffffffffffffffffff021916908373ffffffffffffffffffffffffffffffffffffffff1602179055507f450db8da6efbe9c22f2347f7c2021231df1fc58d3ae9a2fa75d39fa44619930581604051808273ffffffffffffffffffffffffffffffffffffffff1673ffffffffffffffffffffffffffffffffffffffff16815260200191505060405180910390a150565b612b9a612d2b565b1515612c0e576040517f08c379a00000000000000000000000000000000000000000000000000000000081526004018080602001828103825260208152602001807f4f776e61626c653a2063616c6c6572206973206e6f7420746865206f776e657281525060200191505060405180910390fd5b600060149054906101000a900460ff16151515612cb9576040517f08c379a00000000000000000000000000000000000000000000000000000000081526004018080602001828103825260278152602001807f43616e277420646f20746861742069662074686520636f6e747261637420697381526020017f207061757365640000000000000000000000000000000000000000000000000081525060400191505060405180910390fd5b6001600060146101000a81548160ff0219169083151502179055507f6985a02210a168e66602d3235cb6db0e70f92b3ba4d376a33c0f3d9434bff62560405160405180910390a1565b60008060009054906101000a900473ffffffffffffffffffffffffffffffffffffffff16905090565b60008060009054906101000a900473ffffffffffffffffffffffffffffffffffffffff1673ffffffffffffffffffffffffffffffffffffffff163373ffffffffffffffffffffffffffffffffffffffff1614905090565b60606040805190810160405280600381526020017f554a4f0000000000000000000000000000000000000000000000000000000000815250905090565b600060149054906101000a900460ff16151515612e6a576040517f08c379a00000000000000000000000000000000000000000000000000000000081526004018080602001828103825260278152602001807f43616e277420646f20746861742069662074686520636f6e747261637420697381526020017f207061757365640000000000000000000000000000000000000000000000000081525060400191505060405180910390fd5b8015612e7e57612e798261124e565b612e88565b612e8782612329565b5b5050565b6040805190810160405280600381526020017f556a6f000000000000000000000000000000000000000000000000000000000081525081565b600060149054906101000a900460ff16151515612f70576040517f08c379a00000000000000000000000000000000000000000000000000000000081526004018080602001828103825260278152602001807f43616e277420646f20746861742069662074686520636f6e747261637420697381526020017f207061757365640000000000000000000000000000000000000000000000000081525060400191505060405180910390fd5b803373ffffffffffffffffffffffffffffffffffffffff16612f9182612641565b73ffffffffffffffffffffffffffffffffffffffff16141515613068576040517f08c379a00000000000000000000000000000000000000000000000000000000081526004018080602001828103825260488152602001807f4c6963656e73654f776e6572736869702e6f6e6c794f776e65724f6628293a2081526020017f6f6e6c7920746865206f776e6572206f66207468617420746f6b656e2063616e81526020017f20646f207468617400000000000000000000000000000000000000000000000081525060600191505060405180910390fd5b613073338484613a74565b505050565b600060149054906101000a900460ff16151515613123576040517f08c379a00000000000000000000000000000000000000000000000000000000081526004018080602001828103825260278152602001807f43616e277420646f20746861742069662074686520636f6e747261637420697381526020017f207061757365640000000000000000000000000000000000000000000000000081525060400191505060405180910390fd5b61312c81613a0a565b15156131ec576040517f08c379a00000000000000000000000000000000000000000000000000000000081526004018080602001828103825260488152602001807f4c6963656e73654f776e6572736869702e74616b654f776e657273686970282981526020017f3a20796f7520617265206e6f7420617070726f76656420746f2074616b65206f81526020017f776e65727368697000000000000000000000000000000000000000000000000081525060600191505060405180910390fd5b6131ff6131f882612641565b3383613a74565b50565b60088054600181600116156101000203166002900480601f0160208091040260200160405190810160405280929190818152602001828054600181600116156101000203166002900480156132985780601f1061326d57610100808354040283529160200191613298565b820191906000526020600020905b81548152906001019060200180831161327b57829003601f168201915b505050505081565b600060149054906101000a900460ff1615151561334b576040517f08c379a00000000000000000000000000000000000000000000000000000000081526004018080602001828103825260278152602001807f43616e277420646f20746861742069662074686520636f6e747261637420697381526020017f207061757365640000000000000000000000000000000000000000000000000081525060400191505060405180910390fd5b600073ffffffffffffffffffffffffffffffffffffffff168373ffffffffffffffffffffffffffffffffffffffff161415151561343c576040517f08c379a00000000000000000000000000000000000000000000000000000000081526004018080602001828103825260428152602001807f4c6963656e73654f776e6572736869702e736166655472616e7366657246726f81526020017f6d28293a2027746f272061646472657373206d757374206265206e6f6e2d7a6581526020017f726f00000000000000000000000000000000000000000000000000000000000081525060600191505060405180910390fd5b613447848484611a9f565b6134508361413e565b1561373a5760008373ffffffffffffffffffffffffffffffffffffffff1663150b7a0261c350338887876040518663ffffffff167c0100000000000000000000000000000000000000000000000000000000028152600401808573ffffffffffffffffffffffffffffffffffffffff1673ffffffffffffffffffffffffffffffffffffffff1681526020018473ffffffffffffffffffffffffffffffffffffffff1673ffffffffffffffffffffffffffffffffffffffff16815260200183815260200180602001828103825283818151815260200191508051906020019080838360005b8381101561354f578082015181840152602081019050613534565b50505050905090810190601f16801561357c5780820380516001836020036101000a031916815260200191505b5095505050505050602060405180830381600088803b15801561359e57600080fd5b5087f11580156135b2573d6000803e3d6000fd5b50505050506040513d60208110156135c957600080fd5b8101908080519060200190929190505050905060405180807f6f6e455243373231526563656976656428616464726573732c6164647265737381526020017f2c75696e743235362c6279746573290000000000000000000000000000000000815250602f01905060405180910390207bffffffffffffffffffffffffffffffffffffffffffffffffffffffff1916817bffffffffffffffffffffffffffffffffffffffffffffffffffffffff1916141515613738576040517f08c379a000000000000000000000000000000000000000000000000000000000815260040180806020018281038252604c8152602001807f4c6963656e73654f776e6572736869702e736166655472616e7366657246726f81526020017f6d28293a2062616420726573706f6e73652066726f6d2045524337323120746f81526020017f6b656e207265636569766572000000000000000000000000000000000000000081525060600191505060405180910390fd5b505b50505050565b60606137ee60088054600181600116156101000203166002900480601f0160208091040260200160405190810160405280929190818152602001828054600181600116156101000203166002900480156137db5780601f106137b0576101008083540402835291602001916137db565b820191906000526020600020905b8154815290600101906020018083116137be57829003601f168201915b50505050506137e984614151565b6142aa565b9050919050565b6000600560008473ffffffffffffffffffffffffffffffffffffffff1673ffffffffffffffffffffffffffffffffffffffff16815260200190815260200160002060008373ffffffffffffffffffffffffffffffffffffffff1673ffffffffffffffffffffffffffffffffffffffff16815260200190815260200160002060009054906101000a900460ff16905092915050565b613891612d2b565b1515613905576040517f08c379a00000000000000000000000000000000000000000000000000000000081526004018080602001828103825260208152602001807f4f776e61626c653a2063616c6c6572206973206e6f7420746865206f776e657281525060200191505060405180910390fd5b80600160006101000a81548173ffffffffffffffffffffffffffffffffffffffff021916908373ffffffffffffffffffffffffffffffffffffffff16021790555050565b613951612d2b565b15156139c5576040517f08c379a00000000000000000000000000000000000000000000000000000000081526004018080602001828103825260208152602001807f4f776e61626c653a2063616c6c6572206973206e6f7420746865206f776e657281525060200191505060405180910390fd5b6139ce816142f1565b50565b6040805190810160405280600381526020017f554a4f000000000000000000000000000000000000000000000000000000000081525081565b60003373ffffffffffffffffffffffffffffffffffffffff16613a2c83612641565b73ffffffffffffffffffffffffffffffffffffffff161480613a545750613a53338361447a565b5b80613a6d5750613a6c613a6683612641565b336137f5565b5b9050919050565b600073ffffffffffffffffffffffffffffffffffffffff168273ffffffffffffffffffffffffffffffffffffffff1614151515613b65576040517f08c379a000000000000000000000000000000000000000000000000000000000815260040180806020018281038252604b8152602001807f4c6963656e73654f776e6572736869702e5f636c656172417070726f76616c4181526020017f6e645472616e7366657228293a2027746f272061646472657373206d7573742081526020017f6265206e6f6e2d7a65726f00000000000000000000000000000000000000000081525060600191505060405180910390fd5b613b6e81612641565b73ffffffffffffffffffffffffffffffffffffffff168273ffffffffffffffffffffffffffffffffffffffff1614151515613c5d576040517f08c379a00000000000000000000000000000000000000000000000000000000081526004018080602001828103825260608152602001807f4c6963656e73654f776e6572736869702e5f636c656172417070726f76616c4181526020017f6e645472616e7366657228293a2027746f272061646472657373206d7573742081526020017f6e6f742062652074686520746f6b656e27732063757272656e74206f776e657281525060600191505060405180910390fd5b8273ffffffffffffffffffffffffffffffffffffffff16613c7d82612641565b73ffffffffffffffffffffffffffffffffffffffff16141515613d54576040517f08c379a000000000000000000000000000000000000000000000000000000000815260040180806020018281038252605e8152602001807f4c6963656e73654f776e6572736869702e5f636c656172417070726f76616c4181526020017f6e645472616e7366657228293a202766726f6d272061646472657373206d757381526020017f742062652074686520746f6b656e27732063757272656e74206f776e6572000081525060600191505060405180910390fd5b613d5e83826144bb565b613d688382614665565b613d728282613f40565b808273ffffffffffffffffffffffffffffffffffffffff168473ffffffffffffffffffffffffffffffffffffffff167fddf252ad1be2c89b69c2b068fc378daa952ba7f163c4a11628f55a4df523b3ef60405160405180910390a4505050565b613dda612d2b565b1515613e4e576040517f08c379a00000000000000000000000000000000000000000000000000000000081526004018080602001828103825260208152602001807f4f776e61626c653a2063616c6c6572206973206e6f7420746865206f776e657281525060200191505060405180910390fd5b600060149054906101000a900460ff161515613ef8576040517f08c379a000000000000000000000000000000000000000000000000000000000815260040180806020018281038252602b8152602001807f43616e277420646f20746861742069662074686520636f6e747261637420697381526020017f206e6f742070617573656400000000000000000000000000000000000000000081525060400191505060405180910390fd5b60008060146101000a81548160ff0219169083151502179055507f7805862f689e2f13df9f062ff482ad3ad112aca9e0847911ed832e158c525b3360405160405180910390a1565b600073ffffffffffffffffffffffffffffffffffffffff166003600083815260200190815260200160002060009054906101000a900473ffffffffffffffffffffffffffffffffffffffff1673ffffffffffffffffffffffffffffffffffffffff1614151561403d576040517f08c379a00000000000000000000000000000000000000000000000000000000081526004018080602001828103825260358152602001807f4c6963656e73654f776e6572736869702e5f616464546f6b656e28293a20746f81526020017f6b656e20494420616c726561647920657869737473000000000000000000000081525060400191505060405180910390fd5b816003600083815260200190815260200160002060006101000a81548173ffffffffffffffffffffffffffffffffffffffff021916908373ffffffffffffffffffffffffffffffffffffffff160217905550600061409a83612774565b9050600660008473ffffffffffffffffffffffffffffffffffffffff1673ffffffffffffffffffffffffffffffffffffffff16815260200190815260200160002082908060018154018082558091505090600182039060005260206000200160009091929091909150555080600760008481526020019081526020016000208190555061413360016002546149a090919063ffffffff16565b600281905550505050565b600080823b905060008111915050919050565b60606000821415614199576040805190810160405280600181526020017f300000000000000000000000000000000000000000000000000000000000000081525090506142a5565b600082905060005b6000821415156141c7578080600101915050600a828115156141bf57fe5b0491506141a1565b6060816040519080825280601f01601f1916602001820160405280156141fc5781602001600182028038833980820191505090505b50905060006001830390505b60008614151561429d57600a8681151561421e57fe5b066030017f01000000000000000000000000000000000000000000000000000000000000000282828060019003935081518110151561425957fe5b9060200101907effffffffffffffffffffffffffffffffffffffffffffffffffffffffffffff1916908160001a905350600a8681151561429557fe5b049550614208565b819450505050505b919050565b60606142e98383602060405190810160405280600081525060206040519081016040528060008152506020604051908101604052806000815250614a2a565b905092915050565b600073ffffffffffffffffffffffffffffffffffffffff168173ffffffffffffffffffffffffffffffffffffffff16141515156143bc576040517f08c379a00000000000000000000000000000000000000000000000000000000081526004018080602001828103825260268152602001807f4f776e61626c653a206e6577206f776e657220697320746865207a65726f206181526020017f646472657373000000000000000000000000000000000000000000000000000081525060400191505060405180910390fd5b8073ffffffffffffffffffffffffffffffffffffffff166000809054906101000a900473ffffffffffffffffffffffffffffffffffffffff1673ffffffffffffffffffffffffffffffffffffffff167f8be0079c531659141344cd1fd0a4f28419497f9722a3daafe3b4186f6b6457e060405160405180910390a3806000806101000a81548173ffffffffffffffffffffffffffffffffffffffff021916908373ffffffffffffffffffffffffffffffffffffffff16021790555050565b60008273ffffffffffffffffffffffffffffffffffffffff1661449c836115cd565b73ffffffffffffffffffffffffffffffffffffffff1614905092915050565b8173ffffffffffffffffffffffffffffffffffffffff166144db82612641565b73ffffffffffffffffffffffffffffffffffffffff161415156145b2576040517f08c379a00000000000000000000000000000000000000000000000000000000081526004018080602001828103825260548152602001807f4c6963656e73654f776e6572736869702e5f636c656172417070726f76616c2881526020017f293a20276f776e6572272061646472657373206d75737420626520746865207481526020017f6f6b656e27732063757272656e74206f776e657200000000000000000000000081525060600191505060405180910390fd5b60006004600083815260200190815260200160002060006101000a81548173ffffffffffffffffffffffffffffffffffffffff021916908373ffffffffffffffffffffffffffffffffffffffff16021790555080600073ffffffffffffffffffffffffffffffffffffffff168373ffffffffffffffffffffffffffffffffffffffff167f8c5be1e5ebec7d5bd14f71427d1e84f3dd0314c0f7b2291e5b200ac8c7c3b92560405160405180910390a45050565b8173ffffffffffffffffffffffffffffffffffffffff1661468582612641565b73ffffffffffffffffffffffffffffffffffffffff1614151561475c576040517f08c379a00000000000000000000000000000000000000000000000000000000081526004018080602001828103825260518152602001807f4c6963656e73654f776e6572736869702e5f72656d6f7665546f6b656e28293a81526020017f202766726f6d272061646472657373206d7573742062652074686520746f6b6581526020017f6e27732063757272656e74206f776e657200000000000000000000000000000081525060600191505060405180910390fd5b6000600760008381526020019081526020016000205490506000614792600161478486612774565b614e4590919063ffffffff16565b90506000600660008673ffffffffffffffffffffffffffffffffffffffff1673ffffffffffffffffffffffffffffffffffffffff168152602001908152602001600020828154811015156147e257fe5b9060005260206000200154905060006003600086815260200190815260200160002060006101000a81548173ffffffffffffffffffffffffffffffffffffffff021916908373ffffffffffffffffffffffffffffffffffffffff16021790555080600660008773ffffffffffffffffffffffffffffffffffffffff1673ffffffffffffffffffffffffffffffffffffffff1681526020019081526020016000208481548110151561488f57fe5b90600052602060002001819055506000600660008773ffffffffffffffffffffffffffffffffffffffff1673ffffffffffffffffffffffffffffffffffffffff168152602001908152602001600020838154811015156148eb57fe5b9060005260206000200181905550600660008673ffffffffffffffffffffffffffffffffffffffff1673ffffffffffffffffffffffffffffffffffffffff16815260200190815260200160002080548091906001900361494b9190614fd1565b50600060076000868152602001908152602001600020819055508260076000838152602001908152602001600020819055506149936001600254614e4590919063ffffffff16565b6002819055505050505050565b6000808284019050838110151515614a20576040517f08c379a000000000000000000000000000000000000000000000000000000000815260040180806020018281038252601b8152602001807f536166654d6174683a206164646974696f6e206f766572666c6f77000000000081525060200191505060405180910390fd5b8091505092915050565b6060808690506060869050606086905060608690506060869050606081518351855187518951010101016040519080825280601f01601f191660200182016040528015614a865781602001600182028038833980820191505090505b509050606081905060008090506000809050600090505b8851811015614b50578881815181101515614ab457fe5b9060200101517f010000000000000000000000000000000000000000000000000000000000000090047f0100000000000000000000000000000000000000000000000000000000000000028383806001019450815181101515614b1357fe5b9060200101907effffffffffffffffffffffffffffffffffffffffffffffffffffffffffffff1916908160001a9053508080600101915050614a9d565b600090505b8751811015614c08578781815181101515614b6c57fe5b9060200101517f010000000000000000000000000000000000000000000000000000000000000090047f0100000000000000000000000000000000000000000000000000000000000000028383806001019450815181101515614bcb57fe5b9060200101907effffffffffffffffffffffffffffffffffffffffffffffffffffffffffffff1916908160001a9053508080600101915050614b55565b600090505b8651811015614cc0578681815181101515614c2457fe5b9060200101517f010000000000000000000000000000000000000000000000000000000000000090047f0100000000000000000000000000000000000000000000000000000000000000028383806001019450815181101515614c8357fe5b9060200101907effffffffffffffffffffffffffffffffffffffffffffffffffffffffffffff1916908160001a9053508080600101915050614c0d565b600090505b8551811015614d78578581815181101515614cdc57fe5b9060200101517f010000000000000000000000000000000000000000000000000000000000000090047f0100000000000000000000000000000000000000000000000000000000000000028383806001019450815181101515614d3b57fe5b9060200101907effffffffffffffffffffffffffffffffffffffffffffffffffffffffffffff1916908160001a9053508080600101915050614cc5565b600090505b8451811015614e30578481815181101515614d9457fe5b9060200101517f010000000000000000000000000000000000000000000000000000000000000090047f0100000000000000000000000000000000000000000000000000000000000000028383806001019450815181101515614df357fe5b9060200101907effffffffffffffffffffffffffffffffffffffffffffffffffffffffffffff1916908160001a9053508080600101915050614d7d565b82995050505050505050505095945050505050565b6000614e8783836040805190810160405280601e81526020017f536166654d6174683a207375627472616374696f6e206f766572666c6f770000815250614e8f565b905092915050565b60008383111582901515614f3e576040517f08c379a00000000000000000000000000000000000000000000000000000000081526004018080602001828103825283818151815260200191508051906020019080838360005b83811015614f03578082015181840152602081019050614ee8565b50505050905090810190601f168015614f305780820380516001836020036101000a031916815260200191505b509250505060405180910390fd5b5060008385039050809150509392505050565b828054600181600116156101000203166002900490600052602060002090601f016020900481019282601f10614f9257803560ff1916838001178555614fc0565b82800160010185558215614fc0579182015b82811115614fbf578235825591602001919060010190614fa4565b5b509050614fcd9190614ffd565b5090565b815481835581811115614ff857818360005260206000209182019101614ff79190614ffd565b5b505050565b61501f91905b8082111561501b576000816000905550600101615003565b5090565b9056fea165627a7a7230582014d85f663d5910ee382bd6f928757238ff114519cb7c5e81228ca0576f48365a0029",
  "source": "pragma solidity 0.5.0;\n\nimport \"./LicenseOwnership.sol\";\n\n/**\n * @title LicenseCore is the entry point of the contract\n * @notice LicenseCore is the entry point and it controls the ability to set a new\n * contract address, in the case where an upgrade is required\n */\ncontract LicenseCore is LicenseOwnership {\n  address public newContractAddress;\n\n  /**\n   * @notice ContractUpgrade is the event that will be emitted if we set a new contract address\n   */\n  event ContractUpgrade(address newContract);\n\n  function setNewAddress(address _v2Address) external onlyOwner whenPaused {\n    newContractAddress = _v2Address;\n    emit ContractUpgrade(_v2Address);\n  }\n\n  function() external {\n    assert(false);\n  }\n\n  function unpause() public onlyOwner whenPaused {\n    require(newContractAddress == address(0));\n    super.unpause();\n  }\n}\n",
  "sourcePath": "/Users/alexander/Development/dotta-license/dot-license-contracts/contracts/LicenseCore.sol",
  "compiler": {
    "name": "solc",
    "version": "0.5.0+commit.1d4f565a.Emscripten.clang"
  },
  "schemaVersion": "3.0.1",
  "updatedAt": "2019-08-16T20:18:31.661Z",
  "devdoc": {
    "methods": {
      "approve(address,uint256)": {
        "params": {
          "_to": "address to be approved for the given token ID",
          "_tokenId": "uint256 ID of the token to be approved"
        }
      },
      "approveAll(address)": {
        "params": {
          "_to": "address to be approved for the given token ID"
        }
      },
      "balanceOf(address)": {
        "params": {
          "_owner": "address to query the balance of"
        },
        "return": "uint256 representing the amount owned by the passed address"
      },
      "disapproveAll(address)": {
        "details": "Note that this only removes the operator approval and does not clear any independent, specific approvals of token transfers to this address",
        "params": {
          "_to": "address to be disapproved for the given token ID"
        }
      },
      "getApproved(uint256)": {
        "params": {
          "_tokenId": "uint256 ID of the token to query the approval of"
        },
        "return": "address currently approved to take ownership of the given token ID"
      },
      "isApprovedForAll(address,address)": {
        "params": {
          "_operator": "operator address which you want to query the approval of",
          "_owner": "owner address which you want to query the approval of"
        },
        "return": "bool whether the given operator is approved by the given owner"
      },
      "isOwner()": {
        "details": "Returns true if the caller is the current owner."
      },
      "mint(address,uint256)": {
        "params": {
          "_to": "The address that will own the minted token",
          "_tokenId": "uint256 ID of the token to be minted by the msg.sender"
        }
      },
      "owner()": {
        "details": "Returns the address of the current owner."
      },
      "ownerOf(uint256)": {
        "params": {
          "_tokenId": "uint256 ID of the token to query the owner of"
        },
        "return": "owner address currently marked as the owner of the given token ID"
      },
      "pause()": {
        "details": "called by the owner to pause, triggers stopped state"
      },
      "renounceOwnership()": {
        "details": "Leaves the contract without owner. It will not be possible to call `onlyOwner` functions anymore. Can only be called by the current owner.     * NOTE: Renouncing ownership will leave the contract without an owner, thereby removing any functionality that is only available to the owner."
      },
      "safeTransferFrom(address,address,uint256,bytes)": {
        "details": "Throws unless `msg.sender` is the current owner, an authorized operator, or the approved address for this NFT. Throws if `_from` is not the current owner. Throws if `_to` is the zero address. Throws if `_tokenId` is not a valid NFT. When transfer is complete, this function checks if `_to` is a smart contract (code size > 0). If so, it calls `onERC721Received` on `_to` and throws if the return value is not `bytes4(keccak256(\"onERC721Received(address,uint256,bytes)\"))`.",
        "params": {
          "_data": "Additional data with no specified format, sent in call to `_to`",
          "_from": "The current owner of the NFT",
          "_to": "The new owner",
          "_tokenId": "The NFT to transfer"
        }
      },
      "setApprovalForAll(address,bool)": {
        "details": "Emits the ApprovalForAll event",
        "params": {
          "_approved": "True if the operators is approved, false to revoke approval",
          "_to": "Address to add to the set of authorized operators."
        }
      },
      "takeOwnership(uint256)": {
        "params": {
          "_tokenId": "uint256 ID of the token being claimed by the msg.sender"
        }
      },
      "tokenByIndex(uint256)": {
        "details": "Our Licenses are kept in an array and each new License-token is just the next element in the array. This method is required for ERC721Enumerable which may support more complicated storage schemes. However, in our case the _index is the tokenId",
        "params": {
          "_index": "A counter less than `totalSupply()`"
        },
        "return": "The token identifier for the `_index`th NFT"
      },
      "tokenOfOwnerByIndex(address,uint256)": {
        "details": "Throws if `_index` >= `balanceOf(_owner)` or if `_owner` is the zero address, representing invalid NFTs.",
        "params": {
          "_index": "A counter less than `balanceOf(_owner)`",
          "_owner": "An address where we are interested in NFTs owned by them"
        },
        "return": "The token identifier for the `_index`th NFT assigned to `_owner`,"
      },
      "tokensOf(address)": {
        "params": {
          "_owner": "address to query the tokens of"
        },
        "return": "uint256[] representing the list of tokens owned by the passed address"
      },
      "totalSupply()": {
        "return": "uint256 representing the total amount of tokens"
      },
      "transfer(address,uint256)": {
        "params": {
          "_to": "address to receive the ownership of the given token ID",
          "_tokenId": "uint256 ID of the token to be transferred"
        }
      },
      "transferFrom(address,address,uint256)": {
        "params": {
          "_from": "The address that owns the token",
          "_to": "The address that will take ownership of the token. Can be any address, including the caller",
          "_tokenId": "The ID of the token to be transferred"
        }
      },
      "transferOwnership(address)": {
        "details": "Transfers ownership of the contract to a new account (`newOwner`). Can only be called by the current owner."
      }
    },
    "title": "LicenseCore is the entry point of the contract"
  },
  "userdoc": {
    "methods": {
      "approve(address,uint256)": {
        "notice": "Approves another address to claim for the ownership of the given token ID"
      },
      "approveAll(address)": {
        "notice": "Approves another address to claim for the ownership of any tokens owned by this account"
      },
      "balanceOf(address)": {
        "notice": "Gets the balance of the specified address"
      },
      "disapproveAll(address)": {
        "notice": "Removes approval for another address to claim for the ownership of any tokens owned by this account."
      },
      "getApproved(uint256)": {
        "notice": "Gets the approved address to take ownership of a given token ID"
      },
      "isApprovedForAll(address,address)": {
        "notice": "Tells whether an operator is approved by a given owner"
      },
      "mint(address,uint256)": {
        "notice": "Mint token function"
      },
      "name()": {
        "notice": "token's name"
      },
      "ownerOf(uint256)": {
        "notice": "Gets the owner of the specified token ID"
      },
      "safeTransferFrom(address,address,uint256,bytes)": {
        "notice": "Transfers the ownership of an NFT from one address to another address"
      },
      "setApprovalForAll(address,bool)": {
        "notice": "Enable or disable approval for a third party (\"operator\") to manage all your assets"
      },
      "symbol()": {
        "notice": "symbols's name"
      },
      "takeOwnership(uint256)": {
        "notice": "Claims the ownership of a given token ID"
      },
      "tokenByIndex(uint256)": {
        "notice": "Enumerate valid NFTs"
      },
      "tokenOfOwnerByIndex(address,uint256)": {
        "notice": "Enumerate NFTs assigned to an owner"
      },
      "tokensOf(address)": {
        "notice": "Gets the list of tokens owned by a given address"
      },
      "totalSupply()": {
        "notice": "Gets the total amount of tokens stored by the contract"
      },
      "transfer(address,uint256)": {
        "notice": "Transfers the ownership of a given token ID to another address"
      },
      "transferFrom(address,address,uint256)": {
        "notice": "Transfer a token owned by another address, for which the calling address has previously been granted transfer approval by the owner."
      }
    },
    "notice": "LicenseCore is the entry point and it controls the ability to set a new contract address, in the case where an upgrade is required"
  }
}