{
  "contractName": "LicenseCore",
  "abi": [
    {
      "constant": true,
      "inputs": [
        {
          "name": "interfaceID",
          "type": "bytes4"
        }
      ],
      "name": "supportsInterface",
      "outputs": [
        {
          "name": "",
          "type": "bool"
        }
      ],
      "payable": false,
      "stateMutability": "view",
      "type": "function"
    },
    {
      "constant": true,
      "inputs": [
        {
          "name": "_productId",
          "type": "uint256"
        }
      ],
      "name": "isSubscriptionProduct",
      "outputs": [
        {
          "name": "",
          "type": "bool"
        }
      ],
      "payable": false,
      "stateMutability": "view",
      "type": "function"
    },
    {
      "constant": false,
      "inputs": [
        {
          "name": "_to",
          "type": "address"
        }
      ],
      "name": "approveAll",
      "outputs": [],
      "payable": false,
      "stateMutability": "nonpayable",
      "type": "function"
    },
    {
      "constant": true,
      "inputs": [],
      "name": "name",
      "outputs": [
        {
          "name": "",
          "type": "string"
        }
      ],
      "payable": false,
      "stateMutability": "pure",
      "type": "function"
    },
    {
      "constant": true,
      "inputs": [
        {
          "name": "_tokenId",
          "type": "uint256"
        }
      ],
      "name": "getApproved",
      "outputs": [
        {
          "name": "",
          "type": "address"
        }
      ],
      "payable": false,
      "stateMutability": "view",
      "type": "function"
    },
    {
      "constant": false,
      "inputs": [
        {
          "name": "_to",
          "type": "address"
        },
        {
          "name": "_tokenId",
          "type": "uint256"
        }
      ],
      "name": "approve",
      "outputs": [],
      "payable": false,
      "stateMutability": "nonpayable",
      "type": "function"
    },
    {
      "constant": true,
      "inputs": [
        {
          "name": "_licenseId",
          "type": "uint256"
        }
      ],
      "name": "licenseAffiliate",
      "outputs": [
        {
          "name": "",
          "type": "address"
        }
      ],
      "payable": false,
      "stateMutability": "view",
      "type": "function"
    },
    {
      "constant": true,
      "inputs": [],
      "name": "implementsERC721",
      "outputs": [
        {
          "name": "",
          "type": "bool"
        }
      ],
      "payable": false,
      "stateMutability": "pure",
      "type": "function"
    },
    {
      "constant": true,
      "inputs": [
        {
          "name": "_licenseId",
          "type": "uint256"
        }
      ],
      "name": "licenseIssuedTime",
      "outputs": [
        {
          "name": "",
          "type": "uint256"
        }
      ],
      "payable": false,
      "stateMutability": "view",
      "type": "function"
    },
    {
      "constant": true,
      "inputs": [],
      "name": "totalSupply",
      "outputs": [
        {
          "name": "",
          "type": "uint256"
        }
      ],
      "payable": false,
      "stateMutability": "view",
      "type": "function"
    },
    {
      "constant": true,
      "inputs": [
        {
          "name": "_licenseId",
          "type": "uint256"
        }
      ],
      "name": "licenseInfo",
      "outputs": [
        {
          "name": "",
          "type": "uint256"
        },
        {
          "name": "",
          "type": "uint256"
        },
        {
          "name": "",
          "type": "uint256"
        },
        {
          "name": "",
          "type": "uint256"
        },
        {
          "name": "",
          "type": "address"
        }
      ],
      "payable": false,
      "stateMutability": "view",
      "type": "function"
    },
    {
      "constant": false,
      "inputs": [
        {
          "name": "_newBaseURI",
          "type": "string"
        }
      ],
      "name": "setTokenMetadataBaseURI",
      "outputs": [],
      "payable": false,
      "stateMutability": "nonpayable",
      "type": "function"
    },
    {
      "constant": false,
      "inputs": [
        {
          "name": "_newWithdrawalAddress",
          "type": "address"
        }
      ],
      "name": "setWithdrawalAddress",
      "outputs": [],
      "payable": false,
      "stateMutability": "nonpayable",
      "type": "function"
    },
    {
      "constant": false,
      "inputs": [
        {
          "name": "_from",
          "type": "address"
        },
        {
          "name": "_to",
          "type": "address"
        },
        {
          "name": "_tokenId",
          "type": "uint256"
        }
      ],
      "name": "transferFrom",
      "outputs": [],
      "payable": false,
      "stateMutability": "nonpayable",
      "type": "function"
    },
    {
      "constant": true,
      "inputs": [
        {
          "name": "_productId",
          "type": "uint256"
        },
        {
          "name": "_numCycles",
          "type": "uint256"
        }
      ],
      "name": "costForProductCycles",
      "outputs": [
        {
          "name": "",
          "type": "uint256"
        }
      ],
      "payable": false,
      "stateMutability": "view",
      "type": "function"
    },
    {
      "constant": true,
      "inputs": [
        {
          "name": "_owner",
          "type": "address"
        },
        {
          "name": "_index",
          "type": "uint256"
        }
      ],
      "name": "tokenOfOwnerByIndex",
      "outputs": [
        {
          "name": "_tokenId",
          "type": "uint256"
        }
      ],
      "payable": false,
      "stateMutability": "view",
      "type": "function"
    },
    {
      "constant": false,
      "inputs": [
        {
          "name": "_productId",
          "type": "uint256"
        },
        {
          "name": "_numCycles",
          "type": "uint256"
        },
        {
          "name": "_assignee",
          "type": "address"
        },
        {
          "name": "_attributes",
          "type": "uint256"
        }
      ],
      "name": "createPromotionalPurchase",
      "outputs": [
        {
          "name": "",
          "type": "uint256"
        }
      ],
      "payable": false,
      "stateMutability": "nonpayable",
      "type": "function"
    },
    {
      "constant": false,
      "inputs": [
        {
          "name": "_productId",
          "type": "uint256"
        },
        {
          "name": "_newRenewable",
          "type": "bool"
        }
      ],
      "name": "setRenewable",
      "outputs": [],
      "payable": false,
      "stateMutability": "nonpayable",
      "type": "function"
    },
    {
      "constant": false,
      "inputs": [
        {
          "name": "_from",
          "type": "address"
        },
        {
          "name": "_to",
          "type": "address"
        },
        {
          "name": "_tokenId",
          "type": "uint256"
        }
      ],
      "name": "safeTransferFrom",
      "outputs": [],
      "payable": false,
      "stateMutability": "nonpayable",
      "type": "function"
    },
    {
      "constant": true,
      "inputs": [
        {
          "name": "_productId",
          "type": "uint256"
        }
      ],
      "name": "renewableOf",
      "outputs": [
        {
          "name": "",
          "type": "bool"
        }
      ],
      "payable": false,
      "stateMutability": "view",
      "type": "function"
    },
    {
      "constant": true,
      "inputs": [
        {
          "name": "_index",
          "type": "uint256"
        }
      ],
      "name": "tokenByIndex",
      "outputs": [
        {
          "name": "",
          "type": "uint256"
        }
      ],
      "payable": false,
      "stateMutability": "view",
      "type": "function"
    },
    {
      "constant": false,
      "inputs": [
        {
          "name": "_to",
          "type": "address"
        }
      ],
      "name": "disapproveAll",
      "outputs": [],
      "payable": false,
      "stateMutability": "nonpayable",
      "type": "function"
    },
    {
      "constant": false,
      "inputs": [
        {
          "name": "_productId",
          "type": "uint256"
        }
      ],
      "name": "clearInventory",
      "outputs": [],
      "payable": false,
      "stateMutability": "nonpayable",
      "type": "function"
    },
    {
      "constant": true,
      "inputs": [
        {
          "name": "_owner",
          "type": "address"
        }
      ],
      "name": "tokensOf",
      "outputs": [
        {
          "name": "",
          "type": "uint256[]"
        }
      ],
      "payable": false,
      "stateMutability": "view",
      "type": "function"
    },
    {
      "constant": true,
      "inputs": [],
      "name": "paused",
      "outputs": [
        {
          "name": "",
          "type": "bool"
        }
      ],
      "payable": false,
      "stateMutability": "view",
      "type": "function"
    },
    {
      "constant": false,
      "inputs": [],
      "name": "withdrawBalance",
      "outputs": [],
      "payable": false,
      "stateMutability": "nonpayable",
      "type": "function"
    },
    {
      "constant": true,
      "inputs": [
        {
          "name": "_tokenId",
          "type": "uint256"
        }
      ],
      "name": "ownerOf",
      "outputs": [
        {
          "name": "",
          "type": "address"
        }
      ],
      "payable": false,
      "stateMutability": "view",
      "type": "function"
    },
    {
      "constant": true,
      "inputs": [],
      "name": "getAllProductIds",
      "outputs": [
        {
          "name": "",
          "type": "uint256[]"
        }
      ],
      "payable": false,
      "stateMutability": "view",
      "type": "function"
    },
    {
      "constant": true,
      "inputs": [],
      "name": "newContractAddress",
      "outputs": [
        {
          "name": "",
          "type": "address"
        }
      ],
      "payable": false,
      "stateMutability": "view",
      "type": "function"
    },
    {
      "constant": true,
      "inputs": [
        {
          "name": "_owner",
          "type": "address"
        }
      ],
      "name": "balanceOf",
      "outputs": [
        {
          "name": "",
          "type": "uint256"
        }
      ],
      "payable": false,
      "stateMutability": "view",
      "type": "function"
    },
    {
      "constant": true,
      "inputs": [
        {
          "name": "_productId",
          "type": "uint256"
        }
      ],
      "name": "totalSupplyOf",
      "outputs": [
        {
          "name": "",
          "type": "uint256"
        }
      ],
      "payable": false,
      "stateMutability": "view",
      "type": "function"
    },
    {
      "constant": true,
      "inputs": [
        {
          "name": "",
          "type": "uint256"
        }
      ],
      "name": "products",
      "outputs": [
        {
          "name": "id",
          "type": "uint256"
        },
        {
          "name": "price",
          "type": "uint256"
        },
        {
          "name": "available",
          "type": "uint256"
        },
        {
          "name": "supply",
          "type": "uint256"
        },
        {
          "name": "sold",
          "type": "uint256"
        },
        {
          "name": "interval",
          "type": "uint256"
        },
        {
          "name": "renewable",
          "type": "bool"
        }
      ],
      "payable": false,
      "stateMutability": "view",
      "type": "function"
    },
    {
      "constant": false,
      "inputs": [
        {
          "name": "_tokenId",
          "type": "uint256"
        },
        {
          "name": "_numCycles",
          "type": "uint256"
        }
      ],
      "name": "createPromotionalRenewal",
      "outputs": [],
      "payable": false,
      "stateMutability": "nonpayable",
      "type": "function"
    },
    {
      "constant": false,
      "inputs": [],
      "name": "pause",
      "outputs": [],
      "payable": false,
      "stateMutability": "nonpayable",
      "type": "function"
    },
    {
      "constant": true,
      "inputs": [
        {
          "name": "_productId",
          "type": "uint256"
        }
      ],
      "name": "availableInventoryOf",
      "outputs": [
        {
          "name": "",
          "type": "uint256"
        }
      ],
      "payable": false,
      "stateMutability": "view",
      "type": "function"
    },
    {
      "constant": true,
      "inputs": [],
      "name": "owner",
      "outputs": [
        {
          "name": "",
          "type": "address"
        }
      ],
      "payable": false,
      "stateMutability": "view",
      "type": "function"
    },
    {
      "constant": false,
      "inputs": [
        {
          "name": "_productId",
          "type": "uint256"
        },
        {
          "name": "_initialPrice",
          "type": "uint256"
        },
        {
          "name": "_initialInventoryQuantity",
          "type": "uint256"
        },
        {
          "name": "_supply",
          "type": "uint256"
        },
        {
          "name": "_interval",
          "type": "uint256"
        }
      ],
      "name": "createProduct",
      "outputs": [],
      "payable": false,
      "stateMutability": "nonpayable",
      "type": "function"
    },
    {
      "constant": true,
      "inputs": [
        {
          "name": "_productId",
          "type": "uint256"
        }
      ],
      "name": "totalSold",
      "outputs": [
        {
          "name": "",
          "type": "uint256"
        }
      ],
      "payable": false,
      "stateMutability": "view",
      "type": "function"
    },
    {
      "constant": true,
      "inputs": [
        {
          "name": "_licenseId",
          "type": "uint256"
        }
      ],
      "name": "licenseProductId",
      "outputs": [
        {
          "name": "",
          "type": "uint256"
        }
      ],
      "payable": false,
      "stateMutability": "view",
      "type": "function"
    },
    {
      "constant": true,
      "inputs": [],
      "name": "symbol",
      "outputs": [
        {
          "name": "",
          "type": "string"
        }
      ],
      "payable": false,
      "stateMutability": "pure",
      "type": "function"
    },
    {
      "constant": false,
      "inputs": [
        {
          "name": "_to",
          "type": "address"
        },
        {
          "name": "_approved",
          "type": "bool"
        }
      ],
      "name": "setApprovalForAll",
      "outputs": [],
      "payable": false,
      "stateMutability": "nonpayable",
      "type": "function"
    },
    {
      "constant": true,
      "inputs": [],
      "name": "NAME",
      "outputs": [
        {
          "name": "",
          "type": "string"
        }
      ],
      "payable": false,
      "stateMutability": "view",
      "type": "function"
    },
    {
      "constant": false,
      "inputs": [
        {
          "name": "_productId",
          "type": "uint256"
        },
        {
          "name": "_numCycles",
          "type": "uint256"
        },
        {
          "name": "_assignee",
          "type": "address"
        },
        {
          "name": "_affiliate",
          "type": "address"
        }
      ],
      "name": "purchase",
      "outputs": [
        {
          "name": "",
          "type": "uint256"
        }
      ],
      "payable": true,
      "stateMutability": "payable",
      "type": "function"
    },
    {
      "constant": false,
      "inputs": [
        {
          "name": "_to",
          "type": "address"
        },
        {
          "name": "_tokenId",
          "type": "uint256"
        }
      ],
      "name": "transfer",
      "outputs": [],
      "payable": false,
      "stateMutability": "nonpayable",
      "type": "function"
    },
    {
      "constant": false,
      "inputs": [
        {
          "name": "_tokenId",
          "type": "uint256"
        }
      ],
      "name": "takeOwnership",
      "outputs": [],
      "payable": false,
      "stateMutability": "nonpayable",
      "type": "function"
    },
    {
      "constant": true,
      "inputs": [
        {
          "name": "_productId",
          "type": "uint256"
        }
      ],
      "name": "intervalOf",
      "outputs": [
        {
          "name": "",
          "type": "uint256"
        }
      ],
      "payable": false,
      "stateMutability": "view",
      "type": "function"
    },
    {
      "constant": true,
      "inputs": [],
      "name": "affiliateProgram",
      "outputs": [
        {
          "name": "",
          "type": "address"
        }
      ],
      "payable": false,
      "stateMutability": "view",
      "type": "function"
    },
    {
      "constant": true,
      "inputs": [],
      "name": "tokenMetadataBaseURI",
      "outputs": [
        {
          "name": "",
          "type": "string"
        }
      ],
      "payable": false,
      "stateMutability": "view",
      "type": "function"
    },
    {
      "constant": false,
      "inputs": [
        {
          "name": "_from",
          "type": "address"
        },
        {
          "name": "_to",
          "type": "address"
        },
        {
          "name": "_tokenId",
          "type": "uint256"
        },
        {
          "name": "_data",
          "type": "bytes"
        }
      ],
      "name": "safeTransferFrom",
      "outputs": [],
      "payable": false,
      "stateMutability": "nonpayable",
      "type": "function"
    },
    {
      "constant": true,
      "inputs": [
        {
          "name": "_productId",
          "type": "uint256"
        }
      ],
      "name": "priceOf",
      "outputs": [
        {
          "name": "",
          "type": "uint256"
        }
      ],
      "payable": false,
      "stateMutability": "view",
      "type": "function"
    },
    {
      "constant": true,
      "inputs": [
        {
          "name": "_productId",
          "type": "uint256"
        }
      ],
      "name": "productInfo",
      "outputs": [
        {
          "name": "price",
          "type": "uint256"
        },
        {
          "name": "inventory",
          "type": "uint256"
        },
        {
          "name": "totalSupply",
          "type": "uint256"
        },
        {
          "name": "interval",
          "type": "uint256"
        },
        {
          "name": "renewable",
          "type": "bool"
        }
      ],
      "payable": false,
      "stateMutability": "view",
      "type": "function"
    },
    {
      "constant": false,
      "inputs": [
        {
          "name": "_address",
          "type": "address"
        }
      ],
      "name": "setAffiliateProgramAddress",
      "outputs": [],
      "payable": false,
      "stateMutability": "nonpayable",
      "type": "function"
    },
    {
      "constant": false,
      "inputs": [
        {
          "name": "_tokenId",
          "type": "uint256"
        },
        {
          "name": "_numCycles",
          "type": "uint256"
        }
      ],
      "name": "renew",
      "outputs": [],
      "payable": true,
      "stateMutability": "payable",
      "type": "function"
    },
    {
      "constant": true,
      "inputs": [
        {
          "name": "_tokenId",
          "type": "uint256"
        }
      ],
      "name": "tokenURI",
      "outputs": [
        {
          "name": "infoUrl",
          "type": "string"
        }
      ],
      "payable": false,
      "stateMutability": "view",
      "type": "function"
    },
    {
      "constant": false,
      "inputs": [
        {
          "name": "_newTime",
          "type": "uint256"
        }
      ],
      "name": "setRenewalsCreditAffiliatesFor",
      "outputs": [],
      "payable": false,
      "stateMutability": "nonpayable",
      "type": "function"
    },
    {
      "constant": true,
      "inputs": [
        {
          "name": "",
          "type": "uint256"
        }
      ],
      "name": "allProductIds",
      "outputs": [
        {
          "name": "",
          "type": "uint256"
        }
      ],
      "payable": false,
      "stateMutability": "view",
      "type": "function"
    },
    {
      "constant": true,
      "inputs": [
        {
          "name": "_licenseId",
          "type": "uint256"
        }
      ],
      "name": "licenseExpirationTime",
      "outputs": [
        {
          "name": "",
          "type": "uint256"
        }
      ],
      "payable": false,
      "stateMutability": "view",
      "type": "function"
    },
    {
      "constant": false,
      "inputs": [
        {
          "name": "_productId",
          "type": "uint256"
        },
        {
          "name": "_inventoryAdjustment",
          "type": "uint256"
        }
      ],
      "name": "incrementInventory",
      "outputs": [],
      "payable": false,
      "stateMutability": "nonpayable",
      "type": "function"
    },
    {
      "constant": true,
      "inputs": [],
      "name": "renewalsCreditAffiliatesFor",
      "outputs": [
        {
          "name": "",
          "type": "uint256"
        }
      ],
      "payable": false,
      "stateMutability": "view",
      "type": "function"
    },
    {
      "constant": true,
      "inputs": [
        {
          "name": "_owner",
          "type": "address"
        },
        {
          "name": "_operator",
          "type": "address"
        }
      ],
      "name": "isApprovedForAll",
      "outputs": [
        {
          "name": "",
          "type": "bool"
        }
      ],
      "payable": false,
      "stateMutability": "view",
      "type": "function"
    },
    {
      "constant": true,
      "inputs": [],
      "name": "withdrawalAddress",
      "outputs": [
        {
          "name": "",
          "type": "address"
        }
      ],
      "payable": false,
      "stateMutability": "view",
      "type": "function"
    },
    {
      "constant": false,
      "inputs": [
        {
          "name": "_newOwner",
          "type": "address"
        }
      ],
      "name": "transferOwnership",
      "outputs": [],
      "payable": false,
      "stateMutability": "nonpayable",
      "type": "function"
    },
    {
      "constant": true,
      "inputs": [
        {
          "name": "_licenseId",
          "type": "uint256"
        }
      ],
      "name": "licenseAttributes",
      "outputs": [
        {
          "name": "",
          "type": "uint256"
        }
      ],
      "payable": false,
      "stateMutability": "view",
      "type": "function"
    },
    {
      "constant": true,
      "inputs": [],
      "name": "SYMBOL",
      "outputs": [
        {
          "name": "",
          "type": "string"
        }
      ],
      "payable": false,
      "stateMutability": "view",
      "type": "function"
    },
    {
      "constant": false,
      "inputs": [
        {
          "name": "_productId",
          "type": "uint256"
        },
        {
          "name": "_price",
          "type": "uint256"
        }
      ],
      "name": "setPrice",
      "outputs": [],
      "payable": false,
      "stateMutability": "nonpayable",
      "type": "function"
    },
    {
      "constant": false,
      "inputs": [
        {
          "name": "_productId",
          "type": "uint256"
        },
        {
          "name": "_inventoryAdjustment",
          "type": "uint256"
        }
      ],
      "name": "decrementInventory",
      "outputs": [],
      "payable": false,
      "stateMutability": "nonpayable",
      "type": "function"
    },
    {
      "inputs": [],
      "payable": false,
      "stateMutability": "nonpayable",
      "type": "constructor"
    },
    {
      "payable": false,
      "stateMutability": "nonpayable",
      "type": "fallback"
    },
    {
      "anonymous": false,
      "inputs": [
        {
          "indexed": true,
          "name": "_from",
          "type": "address"
        },
        {
          "indexed": true,
          "name": "_to",
          "type": "address"
        },
        {
          "indexed": false,
          "name": "_tokenId",
          "type": "uint256"
        }
      ],
      "name": "Transfer",
      "type": "event"
    },
    {
      "anonymous": false,
      "inputs": [
        {
          "indexed": true,
          "name": "_owner",
          "type": "address"
        },
        {
          "indexed": true,
          "name": "_approved",
          "type": "address"
        },
        {
          "indexed": false,
          "name": "_tokenId",
          "type": "uint256"
        }
      ],
      "name": "Approval",
      "type": "event"
    },
    {
      "anonymous": false,
      "inputs": [
        {
          "indexed": true,
          "name": "_owner",
          "type": "address"
        },
        {
          "indexed": true,
          "name": "_operator",
          "type": "address"
        },
        {
          "indexed": false,
          "name": "_approved",
          "type": "bool"
        }
      ],
      "name": "ApprovalForAll",
      "type": "event"
    },
    {
      "anonymous": false,
      "inputs": [
        {
          "indexed": false,
          "name": "id",
          "type": "uint256"
        },
        {
          "indexed": false,
          "name": "price",
          "type": "uint256"
        },
        {
          "indexed": false,
          "name": "available",
          "type": "uint256"
        },
        {
          "indexed": false,
          "name": "supply",
          "type": "uint256"
        },
        {
          "indexed": false,
          "name": "interval",
          "type": "uint256"
        },
        {
          "indexed": false,
          "name": "renewable",
          "type": "bool"
        }
      ],
      "name": "ProductCreated",
      "type": "event"
    },
    {
      "anonymous": false,
      "inputs": [
        {
          "indexed": false,
          "name": "productId",
          "type": "uint256"
        },
        {
          "indexed": false,
          "name": "available",
          "type": "uint256"
        }
      ],
      "name": "ProductInventoryAdjusted",
      "type": "event"
    },
    {
      "anonymous": false,
      "inputs": [
        {
          "indexed": false,
          "name": "productId",
          "type": "uint256"
        },
        {
          "indexed": false,
          "name": "price",
          "type": "uint256"
        }
      ],
      "name": "ProductPriceChanged",
      "type": "event"
    },
    {
      "anonymous": false,
      "inputs": [
        {
          "indexed": false,
          "name": "productId",
          "type": "uint256"
        },
        {
          "indexed": false,
          "name": "renewable",
          "type": "bool"
        }
      ],
      "name": "ProductRenewableChanged",
      "type": "event"
    },
    {
      "anonymous": false,
      "inputs": [
        {
          "indexed": true,
          "name": "owner",
          "type": "address"
        },
        {
          "indexed": true,
          "name": "purchaser",
          "type": "address"
        },
        {
          "indexed": false,
          "name": "licenseId",
          "type": "uint256"
        },
        {
          "indexed": false,
          "name": "productId",
          "type": "uint256"
        },
        {
          "indexed": false,
          "name": "attributes",
          "type": "uint256"
        },
        {
          "indexed": false,
          "name": "issuedTime",
          "type": "uint256"
        },
        {
          "indexed": false,
          "name": "expirationTime",
          "type": "uint256"
        },
        {
          "indexed": false,
          "name": "affiliate",
          "type": "address"
        }
      ],
      "name": "LicenseIssued",
      "type": "event"
    },
    {
      "anonymous": false,
      "inputs": [
        {
          "indexed": true,
          "name": "owner",
          "type": "address"
        },
        {
          "indexed": true,
          "name": "purchaser",
          "type": "address"
        },
        {
          "indexed": false,
          "name": "licenseId",
          "type": "uint256"
        },
        {
          "indexed": false,
          "name": "productId",
          "type": "uint256"
        },
        {
          "indexed": false,
          "name": "expirationTime",
          "type": "uint256"
        }
      ],
      "name": "LicenseRenewal",
      "type": "event"
    },
    {
      "anonymous": false,
      "inputs": [
        {
          "indexed": false,
          "name": "newContract",
          "type": "address"
        }
      ],
      "name": "ContractUpgrade",
      "type": "event"
    },
    {
      "anonymous": false,
      "inputs": [],
      "name": "Paused",
      "type": "event"
    },
    {
      "anonymous": false,
      "inputs": [],
      "name": "Unpaused",
      "type": "event"
    },
    {
      "anonymous": false,
      "inputs": [
        {
          "indexed": true,
          "name": "previousOwner",
          "type": "address"
        },
        {
          "indexed": true,
          "name": "newOwner",
          "type": "address"
        }
      ],
      "name": "OwnershipTransferred",
      "type": "event"
    },
    {
      "constant": false,
      "inputs": [
        {
          "name": "_v2Address",
          "type": "address"
        }
      ],
      "name": "setNewAddress",
      "outputs": [],
      "payable": false,
      "stateMutability": "nonpayable",
      "type": "function"
    },
    {
      "constant": false,
      "inputs": [],
      "name": "unpause",
      "outputs": [],
      "payable": false,
      "stateMutability": "nonpayable",
      "type": "function"
    }
  ],
  "bytecode": "0x606060409081526001805460a060020a60ff02191690558051908101604052601081527f687474703a2f2f6c6f63616c686f7374000000000000000000000000000000006020820152600b9080516200005d929160200190620000af565b506301e13380600d5534156200007257600080fd5b6000805460018054600160a060020a033316600160a060020a031993841681179093168317909355600160a860020a031990921617905562000154565b828054600181600116156101000203166002900490600052602060002090601f016020900481019282601f10620000f257805160ff191683800117855562000122565b8280016001018555821562000122579182015b828111156200012257825182559160200191906001019062000105565b506200013092915062000134565b5090565b6200015191905b808211156200013057600081556001016200013b565b90565b6133ce80620001646000396000f3006060604052600436106103085763ffffffff60e060020a60003504166301ffc9a781146103175780630528bb571461034b5780630621472c1461036157806306fdde0314610380578063081812fc1461040a578063095ea7b31461043c5780630e9fd1991461045e5780631051db34146104745780631411d7131461048757806318160ddd146104af5780631e084558146104c25780631e20363a1461051157806321b8092e1461052f57806323b872dd1461054e57806327597f0a146105765780632f745c591461058f5780633ac6dd9d146105b15780633f4ba83a146105d95780633f4f3075146105ec57806342842e0e146106075780634dac7d6f1461062f5780634f6ccce71461064557806351dabd451461065b578063533f67301461067a5780635a3f2672146106905780635c975abb146107025780635fd8c710146107155780636352211e14610728578063663c01af1461073e5780636af04a571461075157806370a0823114610764578063715879881461078357806375b0d9cd146107a25780637acc0b20146107b85780637d0385c21461080c5780638456cb5914610825578063892412f0146108385780638da5cb5b1461084e57806392363a421461086157806393b2467e146108835780639425753c1461089957806395d89b41146108af578063a22cb465146108c2578063a3f4df7e146108e6578063a7bf1b6c146108f9578063a9059cbb14610919578063b2e6ceeb1461093b578063b369af7114610951578063b3b4fd0f14610967578063b5cab1ce1461097a578063b88d4fde1461098d578063b9186d7d146109f9578063bb119f6e14610a0f578063c2b7ba3214610a56578063c475abff14610a75578063c87b56dd14610a83578063cc293aea14610a99578063dde1bbcf14610aaf578063dfbebd0714610ac5578063e89b5d4b14610adb578063e9748e5814610af4578063e985e9c514610b07578063f2bcd02214610b2c578063f2fde38b14610b3f578063f4b272db14610b5e578063f76f8d7814610b74578063f7d9757714610b87578063fe3d07e414610ba0575b341561031357600080fd5bfe5b005b341561032257600080fd5b610337600160e060020a031960043516610bb9565b604051901515815260200160405180910390f35b341561035657600080fd5b610337600435610c8a565b341561036c57600080fd5b610315600160a060020a0360043516610c9d565b341561038b57600080fd5b610393610d58565b60405160208082528190810183818151815260200191508051906020019080838360005b838110156103cf5780820151838201526020016103b7565b50505050905090810190601f1680156103fc5780820380516001836020036101000a031916815260200191505b509250505060405180910390f35b341561041557600080fd5b610420600435610d9a565b604051600160a060020a03909116815260200160405180910390f35b341561044757600080fd5b610315600160a060020a0360043516602435610db5565b341561046957600080fd5b610420600435610eb2565b341561047f57600080fd5b610337610ee6565b341561049257600080fd5b61049d600435610eeb565b60405190815260200160405180910390f35b34156104ba57600080fd5b61049d610f15565b34156104cd57600080fd5b6104d8600435610f1b565b60405194855260208501939093526040808501929092526060840152600160a060020a03909116608083015260a0909101905180910390f35b341561051c57600080fd5b6103156004803560248101910135610f62565b341561053a57600080fd5b610315600160a060020a0360043516610f8e565b341561055957600080fd5b610315600160a060020a0360043581169060243516604435610fe0565b341561058157600080fd5b61049d600435602435611044565b341561059a57600080fd5b61049d600160a060020a0360043516602435611066565b34156105bc57600080fd5b61049d600435602435600160a060020a03604435166064356110b4565b34156105e457600080fd5b6103156110fe565b34156105f757600080fd5b6103156004356024351515611151565b341561061257600080fd5b610315600160a060020a03600435811690602435166044356111b6565b341561063a57600080fd5b6103376004356111e7565b341561065057600080fd5b61049d6004356111ff565b341561066657600080fd5b610315600160a060020a0360043516611218565b341561068557600080fd5b6103156004356112b8565b341561069b57600080fd5b6106af600160a060020a0360043516611321565b60405160208082528190810183818151815260200191508051906020019060200280838360005b838110156106ee5780820151838201526020016106d6565b505050509050019250505060405180910390f35b341561070d57600080fd5b6103376113a4565b341561072057600080fd5b6103156113b4565b341561073357600080fd5b61042060043561141f565b341561074957600080fd5b6106af611443565b341561075c57600080fd5b6104206114a1565b341561076f57600080fd5b61049d600160a060020a03600435166114b0565b341561078e57600080fd5b610315600160a060020a03600435166114e3565b34156107ad57600080fd5b61049d600435611571565b34156107c357600080fd5b6107ce600435611586565b60405196875260208701959095526040808701949094526060860192909252608085015260a084015290151560c083015260e0909101905180910390f35b341561081757600080fd5b6103156004356024356115c6565b341561083057600080fd5b610315611617565b341561084357600080fd5b61049d60043561169b565b341561085957600080fd5b6104206116b0565b341561086c57600080fd5b6103156004356024356044356064356084356116bf565b341561088e57600080fd5b61049d6004356116ee565b34156108a457600080fd5b61049d600435611704565b34156108ba57600080fd5b61039361172e565b34156108cd57600080fd5b610315600160a060020a0360043516602435151561176f565b34156108f157600080fd5b6103936117a7565b61049d600435602435600160a060020a03604435811690606435166117de565b341561092457600080fd5b610315600160a060020a03600435166024356118d9565b341561094657600080fd5b610315600435611922565b341561095c57600080fd5b61049d600435611963565b341561097257600080fd5b610420611978565b341561098557600080fd5b610393611987565b341561099857600080fd5b610315600160a060020a036004803582169160248035909116916044359160849060643590810190830135806020601f82018190048102016040519081016040528181529291906020840183838082843750949650611a2595505050505050565b3415610a0457600080fd5b61049d600435611bda565b3415610a1a57600080fd5b610a25600435611bef565b60405194855260208501939093526040808501929092526060840152901515608083015260a0909101905180910390f35b3415610a6157600080fd5b610315600160a060020a0360043516611c24565b610315600435602435611cc4565b3415610a8e57600080fd5b610393600435611db0565b3415610aa457600080fd5b610315600435611e64565b3415610aba57600080fd5b61049d600435611e84565b3415610ad057600080fd5b61049d600435611ea3565b3415610ae657600080fd5b610315600435602435611ecd565b3415610aff57600080fd5b61049d611f38565b3415610b1257600080fd5b610337600160a060020a0360043581169060243516611f3e565b3415610b3757600080fd5b610420611f6c565b3415610b4a57600080fd5b610315600160a060020a0360043516611f7b565b3415610b6957600080fd5b61049d600435612009565b3415610b7f57600080fd5b610393612033565b3415610b9257600080fd5b61031560043560243561206a565b3415610bab57600080fd5b6103156004356024356120cd565b6000600160e060020a031982167f01ffc9a7000000000000000000000000000000000000000000000000000000001480610c1c57507f5b5e139f00000000000000000000000000000000000000000000000000000000600160e060020a03198316145b80610c5057507f6466353c00000000000000000000000000000000000000000000000000000000600160e060020a03198316145b80610c8457507f780e9d6300000000000000000000000000000000000000000000000000000000600160e060020a03198316145b92915050565b600080610c9683611963565b1192915050565b60015460a060020a900460ff1615610cb457600080fd5b33600160a060020a031681600160a060020a031614151515610cd557600080fd5b600160a060020a0381161515610cea57600080fd5b600160a060020a0333811660008181526008602090815260408083209486168084529490915290819020805460ff191660019081179091557f17307eab39ab6107e8899845ad3d59bd9653f200f220920489ca2b5937696c319151901515815260200160405180910390a350565b610d606131f3565b60408051908101604052600381527f556a6f0000000000000000000000000000000000000000000000000000000000602082015290505b90565b600090815260076020526040902054600160a060020a031690565b60015460009060a060020a900460ff1615610dcf57600080fd5b8133600160a060020a0316610de38261141f565b600160a060020a031614610df657600080fd5b610dff8361141f565b9150600160a060020a038481169083161415610e1a57600080fd5b610e2383610d9a565b600160a060020a0316151580610e415750600160a060020a03841615155b15610eac57600083815260076020526040908190208054600160a060020a031916600160a060020a0387811691821790925591908416907f8c5be1e5ebec7d5bd14f71427d1e84f3dd0314c0f7b2291e5b200ac8c7c3b9259086905190815260200160405180910390a35b50505050565b6000600282815481101515610ec357fe5b6000918252602090912060059091020160040154600160a060020a031692915050565b600190565b6000600282815481101515610efc57fe5b9060005260206000209060050201600201549050919050565b60055490565b6000806000806000610f2c86611704565b610f3587612009565b610f3e88610eeb565b610f4789611ea3565b610f508a610eb2565b939a9299509097509550909350915050565b60005433600160a060020a03908116911614610f7d57600080fd5b610f89600b8383613205565b505050565b60005433600160a060020a03908116911614610fa957600080fd5b600160a060020a0381161515610fbe57600080fd5b60018054600160a060020a031916600160a060020a0392909216919091179055565b60015460a060020a900460ff1615610ff757600080fd5b611000816120f2565b151561100b57600080fd5b82600160a060020a031661101e8261141f565b600160a060020a03161461103157600080fd5b610f8961103d8261141f565b8383612139565b600061105f8261105385611bda565b9063ffffffff61221316565b9392505050565b6000611071836114b0565b821061107c57600080fd5b600160a060020a03831660009081526009602052604090208054839081106110a057fe5b906000526020600020900154905092915050565b6000805433600160a060020a039081169116146110d057600080fd5b60015460a060020a900460ff16156110e757600080fd5b6110f5858585856000612249565b95945050505050565b60005433600160a060020a0390811691161461111957600080fd5b60015460a060020a900460ff16151561113157600080fd5b600e54600160a060020a03161561114757600080fd5b61114f612261565b565b60005433600160a060020a0390811691161461116c57600080fd5b61117682826122ad565b7f8993c82fcc9b66ce01f4e84cdf9e0c368fc46c1c20e87e9c8324eb0ab6780cf58282604051918252151560208201526040908101905180910390a15050565b60015460a060020a900460ff16156111cd57600080fd5b610f89838383602060405190810160405260008152611a25565b60009081526004602052604090206006015460ff1690565b6000611209610f15565b821061121457600080fd5b5090565b60015460a060020a900460ff161561122f57600080fd5b33600160a060020a031681600160a060020a03161415151561125057600080fd5b600160a060020a03338116600081815260086020908152604080832094861680845294909152808220805460ff191690557f17307eab39ab6107e8899845ad3d59bd9653f200f220920489ca2b5937696c31919051901515815260200160405180910390a350565b60005433600160a060020a039081169116146112d357600080fd5b6112dc816122e4565b7f52de58a758e06868840036921f6c180f216295e8eb79f91399b9f8edb1f64daa816113078361169b565b60405191825260208201526040908101905180910390a150565b6113296131f3565b6009600083600160a060020a0316600160a060020a0316815260200190815260200160002080548060200260200160405190810160405280929190818152602001828054801561139857602002820191906000526020600020905b815481526020019060010190808311611384575b50505050509050919050565b60015460a060020a900460ff1681565b60005433600160a060020a039081169116146113cf57600080fd5b600154600160a060020a031615156113e657600080fd5b600154600160a060020a039081169030163180156108fc0290604051600060405180830381858888f19350505050151561114f57600080fd5b600081815260066020526040812054600160a060020a0316801515610c8457600080fd5b61144b6131f3565b600380548060200260200160405190810160405280929190818152602001828054801561149757602002820191906000526020600020905b815481526020019060010190808311611483575b5050505050905090565b600e54600160a060020a031681565b6000600160a060020a03821615156114c757600080fd5b50600160a060020a031660009081526009602052604090205490565b60005433600160a060020a039081169116146114fe57600080fd5b60015460a060020a900460ff16151561151657600080fd5b600e8054600160a060020a031916600160a060020a0383161790557f450db8da6efbe9c22f2347f7c2021231df1fc58d3ae9a2fa75d39fa44619930581604051600160a060020a03909116815260200160405180910390a150565b60009081526004602052604090206003015490565b6004602081905260009182526040909120805460018201546002830154600384015494840154600585015460069095015493959294919390919060ff1687565b6000805433600160a060020a039081169116146115e257600080fd5b60015460a060020a900460ff16156115f957600080fd5b61160283611704565b905061160d8161230c565b610f898383612340565b60005433600160a060020a0390811691161461163257600080fd5b60015460a060020a900460ff161561164957600080fd5b6001805474ff0000000000000000000000000000000000000000191660a060020a1790557f9e87fac88ff661f02d44f95383c817fece4bce600a3dab7a54406878b965e75260405160405180910390a1565b60009081526004602052604090206002015490565b600054600160a060020a031681565b60005433600160a060020a039081169116146116da57600080fd5b6116e7858585858561242a565b5050505050565b6000908152600460208190526040909120015490565b600060028281548110151561171557fe5b9060005260206000209060050201600001549050919050565b6117366131f3565b60408051908101604052600381527f554a4f00000000000000000000000000000000000000000000000000000000006020820152905090565b60015460a060020a900460ff161561178657600080fd5b801561179a5761179582610c9d565b6117a3565b6117a382611218565b5050565b60408051908101604052600381527f556a6f0000000000000000000000000000000000000000000000000000000000602082015281565b6001546000908190819060a060020a900460ff16156117fc57600080fd5b86151561180857600080fd5b85151561181457600080fd5b600160a060020a038516151561182957600080fd5b6118338787611044565b341461183e57600080fd5b61184787610c8a565b151561185a576001861461185a57600080fd5b84600160a060020a03168760014303406040519081526020016040519081900390201818915061188d8787878588612249565b9050600061189a88611bda565b1180156118af5750600160a060020a03841615155b80156118be57506118be61259b565b156118cf576118cf8488833461267c565b9695505050505050565b60015460a060020a900460ff16156118f057600080fd5b8033600160a060020a03166119048261141f565b600160a060020a03161461191757600080fd5b610f89338484612139565b60015460a060020a900460ff161561193957600080fd5b611942816120f2565b151561194d57600080fd5b6119606119598261141f565b3383612139565b50565b60009081526004602052604090206005015490565b600c54600160a060020a031681565b600b8054600181600116156101000203166002900480601f016020809104026020016040519081016040528092919081815260200182805460018160011615610100020316600290048015611a1d5780601f106119f257610100808354040283529160200191611a1d565b820191906000526020600020905b815481529060010190602001808311611a0057829003601f168201915b505050505081565b60015460009060a060020a900460ff1615611a3f57600080fd5b600160a060020a0384161515611a5457600080fd5b611a5d8361277f565b1515611a6857600080fd5b611a73858585610fe0565b611a7c84612792565b156116e75783600160a060020a031663f0b9e5ba61c3508786866040518563ffffffff1660e060020a0281526004018084600160a060020a0316600160a060020a0316815260200183815260200180602001828103825283818151815260200191508051906020019080838360005b83811015611b03578082015183820152602001611aeb565b50505050905090810190601f168015611b305780820380516001836020036101000a031916815260200191505b50945050505050602060405180830381600088803b1515611b5057600080fd5b87f11515611b5d57600080fd5b505050506040518051905090506040517f6f6e455243373231526563656976656428616464726573732c75696e7432353681527f2c627974657329000000000000000000000000000000000000000000000000006020820152602701604051908190039020600160e060020a03198281169116146116e757600080fd5b60009081526004602052604090206001015490565b6000806000806000611c0086611bda565b611c098761169b565b611c1288611571565b611c1b89611963565b610f508a6111e7565b6000805433600160a060020a03908116911614611c4057600080fd5b5080600160a060020a03811663cd43ee996040518163ffffffff1660e060020a028152600401602060405180830381600087803b1515611c7f57600080fd5b5af11515611c8c57600080fd5b505050604051805190501515611ca157600080fd5b600c8054600160a060020a031916600160a060020a039290921691909117905550565b600154600090819060a060020a900460ff1615611ce057600080fd5b821515611cec57600080fd5b6000611cf78561141f565b600160a060020a03161415611d0b57600080fd5b611d1484611704565b9150611d1f8261230c565b611d298284611044565b9050348114611d3757600080fd5b611d418484612340565b600081118015611d6357506000611d5785610eb2565b600160a060020a031614155b8015611d725750611d7261259b565b8015611d97575042611d95600d54611d8987610eeb565b9063ffffffff61279a16565b115b15610eac57610eac611da885610eb2565b83863461267c565b611db86131f3565b610c84600b8054600181600116156101000203166002900480601f016020809104026020016040519081016040528092919081815260200182805460018160011615610100020316600290048015611e515780601f10611e2657610100808354040283529160200191611e51565b820191906000526020600020905b815481529060010190602001808311611e3457829003601f168201915b5050505050611e5f846127a9565b61289d565b60005433600160a060020a03908116911614611e7f57600080fd5b600d55565b6003805482908110611e9257fe5b600091825260209091200154905081565b6000600282815481101515611eb457fe5b9060005260206000209060050201600301549050919050565b60005433600160a060020a03908116911614611ee857600080fd5b611ef282826128e0565b7f52de58a758e06868840036921f6c180f216295e8eb79f91399b9f8edb1f64daa82611f1d8461169b565b60405191825260208201526040908101905180910390a15050565b600d5481565b600160a060020a03918216600090815260086020908152604080832093909416825291909152205460ff1690565b600154600160a060020a031681565b60005433600160a060020a03908116911614611f9657600080fd5b600160a060020a0381161515611fab57600080fd5b600054600160a060020a0380831691167f8be0079c531659141344cd1fd0a4f28419497f9722a3daafe3b4186f6b6457e060405160405180910390a360008054600160a060020a031916600160a060020a0392909216919091179055565b600060028281548110151561201a57fe5b9060005260206000209060050201600101549050919050565b60408051908101604052600381527f554a4f0000000000000000000000000000000000000000000000000000000000602082015281565b60005433600160a060020a0390811691161461208557600080fd5b61208f8282612981565b7fd63cc1ed2f6abbff2bdc8aeb9f139df953e98c6aa57ca5bfe8e1876be9e890ec828260405191825260208201526040908101905180910390a15050565b60005433600160a060020a039081169116146120e857600080fd5b611ef282826129aa565b600033600160a060020a03166121078361141f565b600160a060020a03161480612121575061212133836129fc565b80610c845750610c846121338361141f565b33611f3e565b600160a060020a038216151561214e57600080fd5b6121578161141f565b600160a060020a038381169116141561216f57600080fd5b82600160a060020a03166121828261141f565b600160a060020a03161461219557600080fd5b61219e8161277f565b15156121a957600080fd5b6121b38382612a22565b6121bd8382612aa7565b6121c78282612c13565b81600160a060020a031683600160a060020a03167fddf252ad1be2c89b69c2b068fc378daa952ba7f163c4a11628f55a4df523b3ef8360405190815260200160405180910390a3505050565b6000808315156122265760009150612242565b5082820282848281151561223657fe5b041461223e57fe5b8091505b5092915050565b600061225486612ccd565b6118cf8686868686612d3c565b6001805474ff0000000000000000000000000000000000000000191690557fa45f47fdea8a1efdd9029a5691c7f759c32b7c698632b563573e155625d1693360405160405180910390a1565b6122b682612ed1565b15156122c157600080fd5b600091825260046020526040909120600601805460ff1916911515919091179055565b6122ed81612ed1565b15156122f857600080fd5b600090815260046020526040812060020155565b80151561231857600080fd5b61232181610c8a565b151561232c57600080fd5b612335816111e7565b151561196057600080fd5b600080600061234e85611704565b925061237a4260028781548110151561236357fe5b906000526020600020906005020160030154612ee5565b915061239961238c8561105386611963565b839063ffffffff61279a16565b9050806002868154811015156123ab57fe5b90600052602060002090600502016003018190555033600160a060020a03166123d38661141f565b600160a060020a03167feaf24094683b38939d81835f96309c60277bbc3366d51527540fe4a67b42da5a87868560405180848152602001838152602001828152602001935050505060405180910390a35050505050565b61243261327f565b61243b86612efc565b151561244657600080fd5b8284111561245357600080fd5b60e0604051908101604052808781526020018681526020018581526020018481526020016000815260200183815260200183600014612493576001612496565b60005b1515905260008781526004602052604090209091508190815181556020820151816001015560408201518160020155606082015181600301556080820151816004015560a0820151816005015560c0820151600691909101805460ff191691151591909117905550600380546001810161251083826132bf565b5060009182526020909120018690557f712119543ff2c643b26af29b73e263a1ae26070bc4c92e6ca2b659885654a70181518260200151836040015184606001518560a001518660c0015160405195865260208601949094526040808601939093526060850191909152608084015290151560a083015260c0909101905180910390a1505050505050565b600c54600090600160a060020a0316158015906126185750600c54600160a060020a03308116911663f2c4da936040518163ffffffff1660e060020a028152600401602060405180830381600087803b15156125f657600080fd5b5af1151561260357600080fd5b50505060405180519050600160a060020a0316145b80156126775750600c54600160a060020a0316635c975abb6040518163ffffffff1660e060020a028152600401602060405180830381600087803b151561265e57600080fd5b5af1151561266b57600080fd5b50505060405180519050155b905090565b600c54600090600160a060020a031663e230e2468686868660405160e060020a63ffffffff8716028152600160a060020a039094166004850152602484019290925260448301526064820152608401602060405180830381600087803b15156126e457600080fd5b5af115156126f157600080fd5b505050604051805191505060008111156116e75781811061271157600080fd5b600c54600160a060020a031663ef6506db82878660405160e060020a63ffffffff8616028152600160a060020a03909216600483015260248201526044016000604051808303818588803b151561276757600080fd5b5af1151561277457600080fd5b505050505050505050565b600061278a82611704565b151592915050565b6000903b1190565b60008282018381101561223e57fe5b6127b16131f3565b6000806127bc6131f3565b60008515156128005760408051908101604052600181527f300000000000000000000000000000000000000000000000000000000000000060208201529450612894565b8593505b831561281b57600190920191600a84049350612804565b826040518059106128295750595b818152601f19601f8301168101602001604052905091505060001982015b85156128905760001981019060f860020a6030600a890601029083908151811061286d57fe5b906020010190600160f860020a031916908160001a905350600a86049550612847565b8194505b50505050919050565b6128a56131f3565b61105f838360206040519081016040528060008152506020604051908101604052806000815250602060405190810160405260008152612f0f565b60006128eb83612ed1565b15156128f657600080fd5b600083815260046020526040902060020154612918908363ffffffff61279a16565b600084815260046020526040812060030154919250901115612968576000838152600460208190526040909120600381015491015461295d908363ffffffff61279a16565b111561296857600080fd5b6000928352600460205260409092206002019190915550565b61298a82612ed1565b151561299557600080fd5b60009182526004602052604090912060010155565b60006129b583612ed1565b15156129c057600080fd5b6000838152600460205260409020600201546129e2908363ffffffff61317f16565b600093845260046020526040909320600201929092555050565b600082600160a060020a0316612a1183610d9a565b600160a060020a0316149392505050565b81600160a060020a0316612a358261141f565b600160a060020a031614612a4857600080fd5b6000818152600760205260408082208054600160a060020a0319169055600160a060020a038416907f8c5be1e5ebec7d5bd14f71427d1e84f3dd0314c0f7b2291e5b200ac8c7c3b9259084905190815260200160405180910390a35050565b600080600084600160a060020a0316612abf8561141f565b600160a060020a031614612ad257600080fd5b6000848152600a60205260409020549250612afd6001612af1876114b0565b9063ffffffff61317f16565b600160a060020a038616600090815260096020526040902080549193509083908110612b2557fe5b60009182526020808320909101548683526006825260408084208054600160a060020a0319169055600160a060020a0389168452600990925291208054919250829185908110612b7157fe5b6000918252602080832090910192909255600160a060020a0387168152600990915260408120805484908110612ba357fe5b6000918252602080832090910192909255600160a060020a0387168152600990915260409020805490612bda9060001983016132bf565b506000848152600a60205260408082208290558282529020839055600554612c0990600163ffffffff61317f16565b6005555050505050565b600081815260066020526040812054600160a060020a031615612c3557600080fd5b60008281526006602052604090208054600160a060020a031916600160a060020a038516179055612c65836114b0565b600160a060020a038416600090815260096020526040902080549192509060018101612c9183826132bf565b506000918252602080832091909101849055838252600a905260409020819055600554612cc590600163ffffffff61279a16565b600555505050565b612cd681612ed1565b1515612ce157600080fd5b6000612cec8261169b565b11612cf657600080fd5b612d018160016129aa565b60008181526004602081905260409091200154612d2590600163ffffffff61279a16565b600091825260046020819052604090922090910155565b600080612d476132e3565b6000612d5289610c8a565b15612d6357871515612d6357600080fd5b612d6c89610c8a565b612d77576000612d94565b612d94612d87896110538c611963565b429063ffffffff61279a16565b925060a0604051908101604052808a815260200187815260200142815260200184815260200186600160a060020a03168152509150600160028054806001018281612ddf919061331c565b600092835260209092208591600502018151815560208201518160010155604082015181600201556060820151816003015560808201516004919091018054600160a060020a031916600160a060020a03928316179055929091039250503381169088167f295203a2e224d53a9e7107bf20ca4642308c1afa628268bbfe5f796412f832428385518660200151876040015188606001518960800151604051958652602086019490945260408086019390935260608501919091526080840152600160a060020a0390911660a083015260c0909101905180910390a3612ec58782613191565b98975050505050505050565b600090815260046020526040902054151590565b600081831015612ef5578161105f565b5090919050565b6000908152600460205260409020541590565b612f176131f3565b612f1f6131f3565b612f276131f3565b612f2f6131f3565b612f376131f3565b612f3f6131f3565b612f476131f3565b612f4f6131f3565b6000808e98508d97508c96508b95508a94508451865188518a518c5101010101604051805910612f7c5750595b818152601f19601f83011681016020016040529050935083925060009150600090505b8851811015612ff857888181518110612fb457fe5b016020015160f860020a900460f860020a02838380600101945081518110612fd857fe5b906020010190600160f860020a031916908160001a905350600101612f9f565b5060005b87518110156130555787818151811061301157fe5b016020015160f860020a900460f860020a0283838060010194508151811061303557fe5b906020010190600160f860020a031916908160001a905350600101612ffc565b5060005b86518110156130b25786818151811061306e57fe5b016020015160f860020a900460f860020a0283838060010194508151811061309257fe5b906020010190600160f860020a031916908160001a905350600101613059565b5060005b855181101561310f578581815181106130cb57fe5b016020015160f860020a900460f860020a028383806001019450815181106130ef57fe5b906020010190600160f860020a031916908160001a9053506001016130b6565b5060005b845181101561316c5784818151811061312857fe5b016020015160f860020a900460f860020a0283838060010194508151811061314c57fe5b906020010190600160f860020a031916908160001a905350600101613113565b50909d9c50505050505050505050505050565b60008282111561318b57fe5b50900390565b600160a060020a03821615156131a657600080fd5b6131b08282612c13565b81600160a060020a031660007fddf252ad1be2c89b69c2b068fc378daa952ba7f163c4a11628f55a4df523b3ef8360405190815260200160405180910390a35050565b60206040519081016040526000815290565b828054600181600116156101000203166002900490600052602060002090601f016020900481019282601f106132465782800160ff19823516178555613273565b82800160010185558215613273579182015b82811115613273578235825591602001919060010190613258565b50611214929150613348565b60e0604051908101604052806000815260200160008152602001600081526020016000815260200160008152602001600081526020016000151581525090565b815481835581811511610f8957600083815260209020610f89918101908301613348565b60a060405190810160405280600081526020016000815260200160008152602001600081526020016000600160a060020a031681525090565b815481835581811511610f8957600502816005028360005260206000209182019101610f899190613362565b610d9791905b80821115611214576000815560010161334e565b610d9791905b8082111561121457600080825560018201819055600282018190556003820155600481018054600160a060020a03191690556005016133685600a165627a7a72305820c071173154712551e4e8090ce3de78a8837dfabb2a34821abdeb186d747db3900029",
  "source": "pragma solidity ^0.4.19;\n\nimport \"./ownership/Ownable.sol\";\n\nimport \"./LicenseSale.sol\";\n\n/**\n * @title LicenseCore is the entry point of the contract\n * @notice LicenseCore is the entry point and it controls the ability to set a new\n * contract address, in the case where an upgrade is required\n */\ncontract LicenseCore is Ownable, LicenseSale {\n  address public newContractAddress;\n\n  function LicenseCore() public {\n    paused = false;\n\n    owner = msg.sender;\n    withdrawalAddress = msg.sender;\n  }\n\n  function setNewAddress(address _v2Address) external onlyOwner whenPaused {\n    newContractAddress = _v2Address;\n    ContractUpgrade(_v2Address);\n  }\n\n  function() external {\n    assert(false);\n  }\n\n  function unpause() public onlyOwner whenPaused {\n    require(newContractAddress == address(0));\n    super.unpause();\n  }\n}\n",
  "sourcePath": "/Users/alexander/Development/ujo.js/packages/contracts-licensing-v2/contracts/LicenseCore.sol",
  "compiler": {
    "name": "solc",
    "version": "0.4.21+commit.dfe3193c.Emscripten.clang"
  },
  "schemaVersion": "2.0.0",
  "updatedAt": "2019-06-20T20:49:08.939Z"
}